{
  "_format": "hh-sol-artifact-1",
  "contractName": "BerlinYonkies",
  "sourceName": "contracts/NFT.sol",
  "abi": [
    {
      "inputs": [
        {
          "internalType": "string",
          "name": "_name",
          "type": "string"
        },
        {
          "internalType": "string",
          "name": "_symbol",
          "type": "string"
        },
        {
          "internalType": "address",
          "name": "_royalties",
          "type": "address"
        },
        {
          "internalType": "address",
          "name": "_beneficiary",
          "type": "address"
        },
        {
          "internalType": "string",
          "name": "_BASE_TOKEN_URI",
          "type": "string"
        },
        {
          "internalType": "uint256",
          "name": "_MAX_ELEMENTS",
          "type": "uint256"
        },
        {
          "internalType": "uint256",
          "name": "_PRICE",
          "type": "uint256"
        },
        {
          "internalType": "address",
          "name": "_proxyRegistryAddress",
          "type": "address"
        }
      ],
      "stateMutability": "nonpayable",
      "type": "constructor"
    },
    {
      "anonymous": false,
      "inputs": [
        {
          "indexed": true,
          "internalType": "address",
          "name": "owner",
          "type": "address"
        },
        {
          "indexed": true,
          "internalType": "address",
          "name": "approved",
          "type": "address"
        },
        {
          "indexed": true,
          "internalType": "uint256",
          "name": "tokenId",
          "type": "uint256"
        }
      ],
      "name": "Approval",
      "type": "event"
    },
    {
      "anonymous": false,
      "inputs": [
        {
          "indexed": true,
          "internalType": "address",
          "name": "owner",
          "type": "address"
        },
        {
          "indexed": true,
          "internalType": "address",
          "name": "operator",
          "type": "address"
        },
        {
          "indexed": false,
          "internalType": "bool",
          "name": "approved",
          "type": "bool"
        }
      ],
      "name": "ApprovalForAll",
      "type": "event"
    },
    {
      "anonymous": false,
      "inputs": [
        {
          "indexed": false,
          "internalType": "address",
          "name": "player",
          "type": "address"
        },
        {
          "indexed": false,
          "internalType": "uint256",
          "name": "tokenId",
          "type": "uint256"
        }
      ],
      "name": "Minted",
      "type": "event"
    },
    {
      "anonymous": false,
      "inputs": [
        {
          "indexed": true,
          "internalType": "address",
          "name": "previousOwner",
          "type": "address"
        },
        {
          "indexed": true,
          "internalType": "address",
          "name": "newOwner",
          "type": "address"
        }
      ],
      "name": "OwnershipTransferred",
      "type": "event"
    },
    {
      "anonymous": false,
      "inputs": [
        {
          "indexed": true,
          "internalType": "address",
          "name": "from",
          "type": "address"
        },
        {
          "indexed": true,
          "internalType": "address",
          "name": "to",
          "type": "address"
        },
        {
          "indexed": true,
          "internalType": "uint256",
          "name": "tokenId",
          "type": "uint256"
        }
      ],
      "name": "Transfer",
      "type": "event"
    },
    {
      "inputs": [
        {
          "internalType": "address",
          "name": "to",
          "type": "address"
        },
        {
          "internalType": "uint256",
          "name": "tokenId",
          "type": "uint256"
        }
      ],
      "name": "approve",
      "outputs": [],
      "stateMutability": "nonpayable",
      "type": "function"
    },
    {
      "inputs": [
        {
          "internalType": "address",
          "name": "owner",
          "type": "address"
        }
      ],
      "name": "balanceOf",
      "outputs": [
        {
          "internalType": "uint256",
          "name": "",
          "type": "uint256"
        }
      ],
      "stateMutability": "view",
      "type": "function"
    },
    {
      "inputs": [],
      "name": "baseTokenURI",
      "outputs": [
        {
          "internalType": "string",
          "name": "",
          "type": "string"
        }
      ],
      "stateMutability": "view",
      "type": "function"
    },
    {
      "inputs": [],
      "name": "beneficiary",
      "outputs": [
        {
          "internalType": "address",
          "name": "",
          "type": "address"
        }
      ],
      "stateMutability": "view",
      "type": "function"
    },
    {
      "inputs": [],
      "name": "contractURI",
      "outputs": [
        {
          "internalType": "string",
          "name": "",
          "type": "string"
        }
      ],
      "stateMutability": "view",
      "type": "function"
    },
    {
      "inputs": [
        {
          "internalType": "address",
          "name": "player",
          "type": "address"
        }
      ],
      "name": "freeMint",
      "outputs": [
        {
          "internalType": "uint256",
          "name": "",
          "type": "uint256"
        }
      ],
      "stateMutability": "nonpayable",
      "type": "function"
    },
    {
      "inputs": [
        {
          "internalType": "uint256",
          "name": "tokenId",
          "type": "uint256"
        }
      ],
      "name": "getApproved",
      "outputs": [
        {
          "internalType": "address",
          "name": "",
          "type": "address"
        }
      ],
      "stateMutability": "view",
      "type": "function"
    },
    {
      "inputs": [],
      "name": "getMaxElements",
      "outputs": [
        {
          "internalType": "uint256",
          "name": "",
          "type": "uint256"
        }
      ],
      "stateMutability": "view",
      "type": "function"
    },
    {
      "inputs": [],
      "name": "getPrice",
      "outputs": [
        {
          "internalType": "uint256",
          "name": "",
          "type": "uint256"
        }
      ],
      "stateMutability": "view",
      "type": "function"
    },
    {
      "inputs": [],
      "name": "getStatus",
      "outputs": [
        {
          "internalType": "bool",
          "name": "",
          "type": "bool"
        }
      ],
      "stateMutability": "view",
      "type": "function"
    },
    {
      "inputs": [
        {
          "internalType": "address",
          "name": "owner",
          "type": "address"
        },
        {
          "internalType": "address",
          "name": "operator",
          "type": "address"
        }
      ],
      "name": "isApprovedForAll",
      "outputs": [
        {
          "internalType": "bool",
          "name": "",
          "type": "bool"
        }
      ],
      "stateMutability": "view",
      "type": "function"
    },
    {
      "inputs": [
        {
          "internalType": "address",
          "name": "player",
          "type": "address"
        }
      ],
      "name": "mint",
      "outputs": [
        {
          "internalType": "uint256",
          "name": "",
          "type": "uint256"
        }
      ],
      "stateMutability": "payable",
      "type": "function"
    },
    {
      "inputs": [],
      "name": "name",
      "outputs": [
        {
          "internalType": "string",
          "name": "",
          "type": "string"
        }
      ],
      "stateMutability": "view",
      "type": "function"
    },
    {
      "inputs": [],
      "name": "owner",
      "outputs": [
        {
          "internalType": "address",
          "name": "",
          "type": "address"
        }
      ],
      "stateMutability": "view",
      "type": "function"
    },
    {
      "inputs": [
        {
          "internalType": "uint256",
          "name": "tokenId",
          "type": "uint256"
        }
      ],
      "name": "ownerOf",
      "outputs": [
        {
          "internalType": "address",
          "name": "",
          "type": "address"
        }
      ],
      "stateMutability": "view",
      "type": "function"
    },
    {
      "inputs": [
        {
          "internalType": "bool",
          "name": "status",
          "type": "bool"
        }
      ],
      "name": "pause",
      "outputs": [],
      "stateMutability": "nonpayable",
      "type": "function"
    },
    {
      "inputs": [],
      "name": "renounceOwnership",
      "outputs": [],
      "stateMutability": "nonpayable",
      "type": "function"
    },
    {
      "inputs": [],
      "name": "royalties",
      "outputs": [
        {
          "internalType": "address",
          "name": "",
          "type": "address"
        }
      ],
      "stateMutability": "view",
      "type": "function"
    },
    {
      "inputs": [
        {
          "internalType": "uint256",
          "name": "_tokenId",
          "type": "uint256"
        },
        {
          "internalType": "uint256",
          "name": "_salePrice",
          "type": "uint256"
        }
      ],
      "name": "royaltyInfo",
      "outputs": [
        {
          "internalType": "address",
          "name": "",
          "type": "address"
        },
        {
          "internalType": "uint256",
          "name": "royaltyAmount",
          "type": "uint256"
        }
      ],
      "stateMutability": "view",
      "type": "function"
    },
    {
      "inputs": [
        {
          "internalType": "address",
          "name": "from",
          "type": "address"
        },
        {
          "internalType": "address",
          "name": "to",
          "type": "address"
        },
        {
          "internalType": "uint256",
          "name": "tokenId",
          "type": "uint256"
        }
      ],
      "name": "safeTransferFrom",
      "outputs": [],
      "stateMutability": "nonpayable",
      "type": "function"
    },
    {
      "inputs": [
        {
          "internalType": "address",
          "name": "from",
          "type": "address"
        },
        {
          "internalType": "address",
          "name": "to",
          "type": "address"
        },
        {
          "internalType": "uint256",
          "name": "tokenId",
          "type": "uint256"
        },
        {
          "internalType": "bytes",
          "name": "_data",
          "type": "bytes"
        }
      ],
      "name": "safeTransferFrom",
      "outputs": [],
      "stateMutability": "nonpayable",
      "type": "function"
    },
    {
      "inputs": [
        {
          "internalType": "address",
          "name": "operator",
          "type": "address"
        },
        {
          "internalType": "bool",
          "name": "approved",
          "type": "bool"
        }
      ],
      "name": "setApprovalForAll",
      "outputs": [],
      "stateMutability": "nonpayable",
      "type": "function"
    },
    {
      "inputs": [
        {
          "internalType": "bytes4",
          "name": "interfaceId",
          "type": "bytes4"
        }
      ],
      "name": "supportsInterface",
      "outputs": [
        {
          "internalType": "bool",
          "name": "",
          "type": "bool"
        }
      ],
      "stateMutability": "view",
      "type": "function"
    },
    {
      "inputs": [],
      "name": "symbol",
      "outputs": [
        {
          "internalType": "string",
          "name": "",
          "type": "string"
        }
      ],
      "stateMutability": "view",
      "type": "function"
    },
    {
      "inputs": [
        {
          "internalType": "uint256",
          "name": "tokenId",
          "type": "uint256"
        }
      ],
      "name": "tokenURI",
      "outputs": [
        {
          "internalType": "string",
          "name": "",
          "type": "string"
        }
      ],
      "stateMutability": "view",
      "type": "function"
    },
    {
      "inputs": [
        {
          "internalType": "address",
          "name": "from",
          "type": "address"
        },
        {
          "internalType": "address",
          "name": "to",
          "type": "address"
        },
        {
          "internalType": "uint256",
          "name": "tokenId",
          "type": "uint256"
        }
      ],
      "name": "transferFrom",
      "outputs": [],
      "stateMutability": "nonpayable",
      "type": "function"
    },
    {
      "inputs": [
        {
          "internalType": "address",
          "name": "newOwner",
          "type": "address"
        }
      ],
      "name": "transferOwnership",
      "outputs": [],
      "stateMutability": "nonpayable",
      "type": "function"
    },
    {
      "inputs": [],
      "name": "withdraw",
      "outputs": [],
      "stateMutability": "nonpayable",
      "type": "function"
    }
  ],
  "bytecode": "0x60806040526000600d60006101000a81548160ff0219169083151502179055503480156200002c57600080fd5b506040516200480a3803806200480a8339818101604052810190620000529190620003c6565b878781600090805190602001906200006c92919062000276565b5080600190805190602001906200008592919062000276565b5050506001600781905550620000b0620000a4620001a860201b60201c565b620001b060201b60201c565b85600e60006101000a81548173ffffffffffffffffffffffffffffffffffffffff021916908373ffffffffffffffffffffffffffffffffffffffff16021790555084600d60016101000a81548173ffffffffffffffffffffffffffffffffffffffff021916908373ffffffffffffffffffffffffffffffffffffffff16021790555080600f60006101000a81548173ffffffffffffffffffffffffffffffffffffffff021916908373ffffffffffffffffffffffffffffffffffffffff16021790555083600b90805190602001906200018b92919062000276565b5082600a8190555081600c819055505050505050505050620006b6565b600033905090565b6000600860009054906101000a900473ffffffffffffffffffffffffffffffffffffffff16905081600860006101000a81548173ffffffffffffffffffffffffffffffffffffffff021916908373ffffffffffffffffffffffffffffffffffffffff1602179055508173ffffffffffffffffffffffffffffffffffffffff168173ffffffffffffffffffffffffffffffffffffffff167f8be0079c531659141344cd1fd0a4f28419497f9722a3daafe3b4186f6b6457e060405160405180910390a35050565b8280546200028490620005a7565b90600052602060002090601f016020900481019282620002a85760008555620002f4565b82601f10620002c357805160ff1916838001178555620002f4565b82800160010185558215620002f4579182015b82811115620002f3578251825591602001919060010190620002d6565b5b50905062000303919062000307565b5090565b5b808211156200032257600081600090555060010162000308565b5090565b60006200033d6200033784620004fd565b620004d4565b9050828152602081018484840111156200035657600080fd5b6200036384828562000571565b509392505050565b6000815190506200037c8162000682565b92915050565b600082601f8301126200039457600080fd5b8151620003a684826020860162000326565b91505092915050565b600081519050620003c0816200069c565b92915050565b600080600080600080600080610100898b031215620003e457600080fd5b600089015167ffffffffffffffff811115620003ff57600080fd5b6200040d8b828c0162000382565b985050602089015167ffffffffffffffff8111156200042b57600080fd5b620004398b828c0162000382565b97505060406200044c8b828c016200036b565b96505060606200045f8b828c016200036b565b955050608089015167ffffffffffffffff8111156200047d57600080fd5b6200048b8b828c0162000382565b94505060a06200049e8b828c01620003af565b93505060c0620004b18b828c01620003af565b92505060e0620004c48b828c016200036b565b9150509295985092959890939650565b6000620004e0620004f3565b9050620004ee8282620005dd565b919050565b6000604051905090565b600067ffffffffffffffff8211156200051b576200051a62000642565b5b620005268262000671565b9050602081019050919050565b6000620005408262000547565b9050919050565b600073ffffffffffffffffffffffffffffffffffffffff82169050919050565b6000819050919050565b60005b838110156200059157808201518184015260208101905062000574565b83811115620005a1576000848401525b50505050565b60006002820490506001821680620005c057607f821691505b60208210811415620005d757620005d662000613565b5b50919050565b620005e88262000671565b810181811067ffffffffffffffff821117156200060a576200060962000642565b5b80604052505050565b7f4e487b7100000000000000000000000000000000000000000000000000000000600052602260045260246000fd5b7f4e487b7100000000000000000000000000000000000000000000000000000000600052604160045260246000fd5b6000601f19601f8301169050919050565b6200068d8162000533565b81146200069957600080fd5b50565b620006a78162000567565b8114620006b357600080fd5b50565b61414480620006c66000396000f3fe6080604052600436106101b75760003560e01c806370a08231116100ec578063c87b56dd1161008a578063e985e9c511610064578063e985e9c514610602578063f053dc5c1461063f578063f2fde38b1461066a578063fa07ce1d14610693576101b7565b8063c87b56dd1461056f578063d547cfb7146105ac578063e8a3d485146105d7576101b7565b806395d89b41116100c657806395d89b41146104c757806398d5fdca146104f2578063a22cb4651461051d578063b88d4fde14610546576101b7565b806370a0823114610448578063715018a6146104855780638da5cb5b1461049c576101b7565b8063368e167a1161015957806342842e0e1161013357806342842e0e146103875780634e69d560146103b05780636352211e146103db5780636a62784214610418576101b7565b8063368e167a1461031a57806338af3eed146103455780633ccfd60b14610370576101b7565b8063081812fc11610195578063081812fc1461024d578063095ea7b31461028a57806323b872dd146102b35780632a55205a146102dc576101b7565b806301ffc9a7146101bc57806302329a29146101f957806306fdde0314610222575b600080fd5b3480156101c857600080fd5b506101e360048036038101906101de9190612ca5565b6106d0565b6040516101f09190613337565b60405180910390f35b34801561020557600080fd5b50610220600480360381019061021b9190612c7c565b61074a565b005b34801561022e57600080fd5b506102376107e3565b6040516102449190613352565b60405180910390f35b34801561025957600080fd5b50610274600480360381019061026f9190612d20565b610875565b60405161028191906132a7565b60405180910390f35b34801561029657600080fd5b506102b160048036038101906102ac9190612c40565b6108fa565b005b3480156102bf57600080fd5b506102da60048036038101906102d59190612b3a565b610a12565b005b3480156102e857600080fd5b5061030360048036038101906102fe9190612d49565b610a72565b60405161031192919061330e565b60405180910390f35b34801561032657600080fd5b5061032f610abc565b60405161033c9190613654565b60405180910390f35b34801561035157600080fd5b5061035a610ac6565b60405161036791906132a7565b60405180910390f35b34801561037c57600080fd5b50610385610aec565b005b34801561039357600080fd5b506103ae60048036038101906103a99190612b3a565b610bd3565b005b3480156103bc57600080fd5b506103c5610bf3565b6040516103d29190613337565b60405180910390f35b3480156103e757600080fd5b5061040260048036038101906103fd9190612d20565b610c0a565b60405161040f91906132a7565b60405180910390f35b610432600480360381019061042d9190612ad5565b610cbc565b60405161043f9190613654565b60405180910390f35b34801561045457600080fd5b5061046f600480360381019061046a9190612ad5565b610ef9565b60405161047c9190613654565b60405180910390f35b34801561049157600080fd5b5061049a610fb1565b005b3480156104a857600080fd5b506104b1611039565b6040516104be91906132a7565b60405180910390f35b3480156104d357600080fd5b506104dc611063565b6040516104e99190613352565b60405180910390f35b3480156104fe57600080fd5b506105076110f5565b6040516105149190613654565b60405180910390f35b34801561052957600080fd5b50610544600480360381019061053f9190612c04565b6110ff565b005b34801561055257600080fd5b5061056d60048036038101906105689190612b89565b611115565b005b34801561057b57600080fd5b5061059660048036038101906105919190612d20565b611177565b6040516105a39190613352565b60405180910390f35b3480156105b857600080fd5b506105c16112c9565b6040516105ce9190613352565b60405180910390f35b3480156105e357600080fd5b506105ec61135b565b6040516105f99190613352565b60405180910390f35b34801561060e57600080fd5b5061062960048036038101906106249190612afe565b6113ed565b6040516106369190613337565b60405180910390f35b34801561064b57600080fd5b506106546114ef565b60405161066191906132a7565b60405180910390f35b34801561067657600080fd5b50610691600480360381019061068c9190612ad5565b611515565b005b34801561069f57600080fd5b506106ba60048036038101906106b59190612ad5565b61160d565b6040516106c79190613654565b60405180910390f35b60007f2a55205a000000000000000000000000000000000000000000000000000000007bffffffffffffffffffffffffffffffffffffffffffffffffffffffff1916827bffffffffffffffffffffffffffffffffffffffffffffffffffffffff1916148061074357506107428261188c565b5b9050919050565b61075261196e565b73ffffffffffffffffffffffffffffffffffffffff16610770611039565b73ffffffffffffffffffffffffffffffffffffffff16146107c6576040517f08c379a00000000000000000000000000000000000000000000000000000000081526004016107bd90613594565b60405180910390fd5b80600d60006101000a81548160ff02191690831515021790555050565b6060600080546107f29061392e565b80601f016020809104026020016040519081016040528092919081815260200182805461081e9061392e565b801561086b5780601f106108405761010080835404028352916020019161086b565b820191906000526020600020905b81548152906001019060200180831161084e57829003601f168201915b5050505050905090565b600061088082611976565b6108bf576040517f08c379a00000000000000000000000000000000000000000000000000000000081526004016108b690613574565b60405180910390fd5b6004600083815260200190815260200160002060009054906101000a900473ffffffffffffffffffffffffffffffffffffffff169050919050565b600061090582610c0a565b90508073ffffffffffffffffffffffffffffffffffffffff168373ffffffffffffffffffffffffffffffffffffffff161415610976576040517f08c379a000000000000000000000000000000000000000000000000000000000815260040161096d906135f4565b60405180910390fd5b8073ffffffffffffffffffffffffffffffffffffffff1661099561196e565b73ffffffffffffffffffffffffffffffffffffffff1614806109c457506109c3816109be61196e565b6113ed565b5b610a03576040517f08c379a00000000000000000000000000000000000000000000000000000000081526004016109fa90613474565b60405180910390fd5b610a0d83836119e2565b505050565b610a23610a1d61196e565b82611a9b565b610a62576040517f08c379a0000000000000000000000000000000000000000000000000000000008152600401610a5990613614565b60405180910390fd5b610a6d838383611b79565b505050565b6000806005606484610a8491906137a7565b610a8e91906137d8565b9050600e60009054906101000a900473ffffffffffffffffffffffffffffffffffffffff1691509250929050565b6000600a54905090565b600d60019054906101000a900473ffffffffffffffffffffffffffffffffffffffff1681565b610af461196e565b73ffffffffffffffffffffffffffffffffffffffff16610b12611039565b73ffffffffffffffffffffffffffffffffffffffff1614610b68576040517f08c379a0000000000000000000000000000000000000000000000000000000008152600401610b5f90613594565b60405180910390fd5b600d60019054906101000a900473ffffffffffffffffffffffffffffffffffffffff1673ffffffffffffffffffffffffffffffffffffffff166108fc479081150290604051600060405180830381858888f19350505050158015610bd0573d6000803e3d6000fd5b50565b610bee83838360405180602001604052806000815250611115565b505050565b6000600d60009054906101000a900460ff16905090565b6000806002600084815260200190815260200160002060009054906101000a900473ffffffffffffffffffffffffffffffffffffffff169050600073ffffffffffffffffffffffffffffffffffffffff168173ffffffffffffffffffffffffffffffffffffffff161415610cb3576040517f08c379a0000000000000000000000000000000000000000000000000000000008152600401610caa906134b4565b60405180910390fd5b80915050919050565b6000600a54610ccb6009611de0565b1115610d0c576040517f08c379a0000000000000000000000000000000000000000000000000000000008152600401610d0390613554565b60405180910390fd5b60001515600d60009054906101000a900460ff16151514610d62576040517f08c379a0000000000000000000000000000000000000000000000000000000008152600401610d5990613434565b60405180910390fd5b60026007541415610da8576040517f08c379a0000000000000000000000000000000000000000000000000000000008152600401610d9f90613634565b60405180910390fd5b6002600781905550610dba6009611dee565b6000610dc66009611de0565b90506001601060003373ffffffffffffffffffffffffffffffffffffffff1673ffffffffffffffffffffffffffffffffffffffff16815260200190815260200160002060006101000a81548160ff021916908315150217905550610e2c34600c54611e04565b600c54341015610e71576040517f08c379a0000000000000000000000000000000000000000000000000000000008152600401610e68906134f4565b60405180910390fd5b610e7b8382611ea0565b610eaf81600b610e8a84611ebe565b604051602001610e9b929190613250565b60405160208183030381529060405261206b565b7f30385c845b448a36257a6a1716e6ad2e1bc2cbe333cde1e69fe849ad6511adfe3382604051610ee092919061330e565b60405180910390a1809150506001600781905550919050565b60008073ffffffffffffffffffffffffffffffffffffffff168273ffffffffffffffffffffffffffffffffffffffff161415610f6a576040517f08c379a0000000000000000000000000000000000000000000000000000000008152600401610f6190613494565b60405180910390fd5b600360008373ffffffffffffffffffffffffffffffffffffffff1673ffffffffffffffffffffffffffffffffffffffff168152602001908152602001600020549050919050565b610fb961196e565b73ffffffffffffffffffffffffffffffffffffffff16610fd7611039565b73ffffffffffffffffffffffffffffffffffffffff161461102d576040517f08c379a000000000000000000000000000000000000000000000000000000000815260040161102490613594565b60405180910390fd5b61103760006120df565b565b6000600860009054906101000a900473ffffffffffffffffffffffffffffffffffffffff16905090565b6060600180546110729061392e565b80601f016020809104026020016040519081016040528092919081815260200182805461109e9061392e565b80156110eb5780601f106110c0576101008083540402835291602001916110eb565b820191906000526020600020905b8154815290600101906020018083116110ce57829003601f168201915b5050505050905090565b6000600c54905090565b61111161110a61196e565b83836121a5565b5050565b61112661112061196e565b83611a9b565b611165576040517f08c379a000000000000000000000000000000000000000000000000000000000815260040161115c90613614565b60405180910390fd5b61117184848484612312565b50505050565b606061118282611976565b6111c1576040517f08c379a00000000000000000000000000000000000000000000000000000000081526004016111b890613534565b60405180910390fd5b60006006600084815260200190815260200160002080546111e19061392e565b80601f016020809104026020016040519081016040528092919081815260200182805461120d9061392e565b801561125a5780601f1061122f5761010080835404028352916020019161125a565b820191906000526020600020905b81548152906001019060200180831161123d57829003601f168201915b50505050509050600061126b61236e565b90506000815114156112815781925050506112c4565b6000825111156112b657808260405160200161129e929190613283565b604051602081830303815290604052925050506112c4565b6112bf84612385565b925050505b919050565b6060600b80546112d89061392e565b80601f01602080910402602001604051908101604052809291908181526020018280546113049061392e565b80156113515780601f1061132657610100808354040283529160200191611351565b820191906000526020600020905b81548152906001019060200180831161133457829003601f168201915b5050505050905090565b6060600b805461136a9061392e565b80601f01602080910402602001604051908101604052809291908181526020018280546113969061392e565b80156113e35780601f106113b8576101008083540402835291602001916113e3565b820191906000526020600020905b8154815290600101906020018083116113c657829003601f168201915b5050505050905090565b600080600f60009054906101000a900473ffffffffffffffffffffffffffffffffffffffff1690508273ffffffffffffffffffffffffffffffffffffffff168173ffffffffffffffffffffffffffffffffffffffff1663c4552791866040518263ffffffff1660e01b815260040161146591906132a7565b60206040518083038186803b15801561147d57600080fd5b505afa158015611491573d6000803e3d6000fd5b505050506040513d601f19601f820116820180604052508101906114b59190612cf7565b73ffffffffffffffffffffffffffffffffffffffff1614156114db5760019150506114e9565b6114e5848461242c565b9150505b92915050565b600e60009054906101000a900473ffffffffffffffffffffffffffffffffffffffff1681565b61151d61196e565b73ffffffffffffffffffffffffffffffffffffffff1661153b611039565b73ffffffffffffffffffffffffffffffffffffffff1614611591576040517f08c379a000000000000000000000000000000000000000000000000000000000815260040161158890613594565b60405180910390fd5b600073ffffffffffffffffffffffffffffffffffffffff168173ffffffffffffffffffffffffffffffffffffffff161415611601576040517f08c379a00000000000000000000000000000000000000000000000000000000081526004016115f890613394565b60405180910390fd5b61160a816120df565b50565b6000600a5461161c6009611de0565b111561165d576040517f08c379a000000000000000000000000000000000000000000000000000000000815260040161165490613554565b60405180910390fd5b60001515600d60009054906101000a900460ff161515146116b3576040517f08c379a00000000000000000000000000000000000000000000000000000000081526004016116aa90613434565b60405180910390fd5b60001515601060003373ffffffffffffffffffffffffffffffffffffffff1673ffffffffffffffffffffffffffffffffffffffff16815260200190815260200160002060009054906101000a900460ff16151514611746576040517f08c379a000000000000000000000000000000000000000000000000000000000815260040161173d906135b4565b60405180910390fd5b6002600754141561178c576040517f08c379a000000000000000000000000000000000000000000000000000000000815260040161178390613634565b60405180910390fd5b600260078190555061179e6009611dee565b60006117aa6009611de0565b90506001601060003373ffffffffffffffffffffffffffffffffffffffff1673ffffffffffffffffffffffffffffffffffffffff16815260200190815260200160002060006101000a81548160ff02191690831515021790555061180e8382611ea0565b61184281600b61181d84611ebe565b60405160200161182e929190613250565b60405160208183030381529060405261206b565b7f30385c845b448a36257a6a1716e6ad2e1bc2cbe333cde1e69fe849ad6511adfe338260405161187392919061330e565b60405180910390a1809150506001600781905550919050565b60007f80ac58cd000000000000000000000000000000000000000000000000000000007bffffffffffffffffffffffffffffffffffffffffffffffffffffffff1916827bffffffffffffffffffffffffffffffffffffffffffffffffffffffff1916148061195757507f5b5e139f000000000000000000000000000000000000000000000000000000007bffffffffffffffffffffffffffffffffffffffffffffffffffffffff1916827bffffffffffffffffffffffffffffffffffffffffffffffffffffffff1916145b806119675750611966826124c0565b5b9050919050565b600033905090565b60008073ffffffffffffffffffffffffffffffffffffffff166002600084815260200190815260200160002060009054906101000a900473ffffffffffffffffffffffffffffffffffffffff1673ffffffffffffffffffffffffffffffffffffffff1614159050919050565b816004600083815260200190815260200160002060006101000a81548173ffffffffffffffffffffffffffffffffffffffff021916908373ffffffffffffffffffffffffffffffffffffffff160217905550808273ffffffffffffffffffffffffffffffffffffffff16611a5583610c0a565b73ffffffffffffffffffffffffffffffffffffffff167f8c5be1e5ebec7d5bd14f71427d1e84f3dd0314c0f7b2291e5b200ac8c7c3b92560405160405180910390a45050565b6000611aa682611976565b611ae5576040517f08c379a0000000000000000000000000000000000000000000000000000000008152600401611adc90613454565b60405180910390fd5b6000611af083610c0a565b90508073ffffffffffffffffffffffffffffffffffffffff168473ffffffffffffffffffffffffffffffffffffffff161480611b5f57508373ffffffffffffffffffffffffffffffffffffffff16611b4784610875565b73ffffffffffffffffffffffffffffffffffffffff16145b80611b705750611b6f81856113ed565b5b91505092915050565b8273ffffffffffffffffffffffffffffffffffffffff16611b9982610c0a565b73ffffffffffffffffffffffffffffffffffffffff1614611bef576040517f08c379a0000000000000000000000000000000000000000000000000000000008152600401611be6906133b4565b60405180910390fd5b600073ffffffffffffffffffffffffffffffffffffffff168273ffffffffffffffffffffffffffffffffffffffff161415611c5f576040517f08c379a0000000000000000000000000000000000000000000000000000000008152600401611c56906133f4565b60405180910390fd5b611c6a83838361252a565b611c756000826119e2565b6001600360008573ffffffffffffffffffffffffffffffffffffffff1673ffffffffffffffffffffffffffffffffffffffff1681526020019081526020016000206000828254611cc59190613832565b925050819055506001600360008473ffffffffffffffffffffffffffffffffffffffff1673ffffffffffffffffffffffffffffffffffffffff1681526020019081526020016000206000828254611d1c9190613751565b92505081905550816002600083815260200190815260200160002060006101000a81548173ffffffffffffffffffffffffffffffffffffffff021916908373ffffffffffffffffffffffffffffffffffffffff160217905550808273ffffffffffffffffffffffffffffffffffffffff168473ffffffffffffffffffffffffffffffffffffffff167fddf252ad1be2c89b69c2b068fc378daa952ba7f163c4a11628f55a4df523b3ef60405160405180910390a4611ddb83838361252f565b505050565b600081600001549050919050565b6001816000016000828254019250508190555050565b611e9c8282604051602401611e1a92919061366f565b6040516020818303038152906040527f6c0f6980000000000000000000000000000000000000000000000000000000007bffffffffffffffffffffffffffffffffffffffffffffffffffffffff19166020820180517bffffffffffffffffffffffffffffffffffffffffffffffffffffffff8381831617835250505050612534565b5050565b611eba82826040518060200160405280600081525061255d565b5050565b60606000821415611f06576040518060400160405280600181526020017f30000000000000000000000000000000000000000000000000000000000000008152509050612066565b600082905060005b60008214611f38578080611f2190613991565b915050600a82611f3191906137a7565b9150611f0e565b60008167ffffffffffffffff811115611f7a577f4e487b7100000000000000000000000000000000000000000000000000000000600052604160045260246000fd5b6040519080825280601f01601f191660200182016040528015611fac5781602001600182028036833780820191505090505b5090505b6000851461205f57600182611fc59190613832565b9150600a85611fd491906139da565b6030611fe09190613751565b60f81b81838151811061201c577f4e487b7100000000000000000000000000000000000000000000000000000000600052603260045260246000fd5b60200101907effffffffffffffffffffffffffffffffffffffffffffffffffffffffffffff1916908160001a905350600a8561205891906137a7565b9450611fb0565b8093505050505b919050565b61207482611976565b6120b3576040517f08c379a00000000000000000000000000000000000000000000000000000000081526004016120aa906134d4565b60405180910390fd5b806006600084815260200190815260200160002090805190602001906120da92919061294c565b505050565b6000600860009054906101000a900473ffffffffffffffffffffffffffffffffffffffff16905081600860006101000a81548173ffffffffffffffffffffffffffffffffffffffff021916908373ffffffffffffffffffffffffffffffffffffffff1602179055508173ffffffffffffffffffffffffffffffffffffffff168173ffffffffffffffffffffffffffffffffffffffff167f8be0079c531659141344cd1fd0a4f28419497f9722a3daafe3b4186f6b6457e060405160405180910390a35050565b8173ffffffffffffffffffffffffffffffffffffffff168373ffffffffffffffffffffffffffffffffffffffff161415612214576040517f08c379a000000000000000000000000000000000000000000000000000000000815260040161220b90613414565b60405180910390fd5b80600560008573ffffffffffffffffffffffffffffffffffffffff1673ffffffffffffffffffffffffffffffffffffffff16815260200190815260200160002060008473ffffffffffffffffffffffffffffffffffffffff1673ffffffffffffffffffffffffffffffffffffffff16815260200190815260200160002060006101000a81548160ff0219169083151502179055508173ffffffffffffffffffffffffffffffffffffffff168373ffffffffffffffffffffffffffffffffffffffff167f17307eab39ab6107e8899845ad3d59bd9653f200f220920489ca2b5937696c31836040516123059190613337565b60405180910390a3505050565b61231d848484611b79565b612329848484846125b8565b612368576040517f08c379a000000000000000000000000000000000000000000000000000000000815260040161235f90613374565b60405180910390fd5b50505050565b606060405180602001604052806000815250905090565b606061239082611976565b6123cf576040517f08c379a00000000000000000000000000000000000000000000000000000000081526004016123c6906135d4565b60405180910390fd5b60006123d961236e565b905060008151116123f95760405180602001604052806000815250612424565b8061240384611ebe565b604051602001612414929190613283565b6040516020818303038152906040525b915050919050565b6000600560008473ffffffffffffffffffffffffffffffffffffffff1673ffffffffffffffffffffffffffffffffffffffff16815260200190815260200160002060008373ffffffffffffffffffffffffffffffffffffffff1673ffffffffffffffffffffffffffffffffffffffff16815260200190815260200160002060009054906101000a900460ff16905092915050565b60007f01ffc9a7000000000000000000000000000000000000000000000000000000007bffffffffffffffffffffffffffffffffffffffffffffffffffffffff1916827bffffffffffffffffffffffffffffffffffffffffffffffffffffffff1916149050919050565b505050565b505050565b60008151905060006a636f6e736f6c652e6c6f679050602083016000808483855afa5050505050565b612567838361274f565b61257460008484846125b8565b6125b3576040517f08c379a00000000000000000000000000000000000000000000000000000000081526004016125aa90613374565b60405180910390fd5b505050565b60006125d98473ffffffffffffffffffffffffffffffffffffffff16612929565b15612742578373ffffffffffffffffffffffffffffffffffffffff1663150b7a0261260261196e565b8786866040518563ffffffff1660e01b815260040161262494939291906132c2565b602060405180830381600087803b15801561263e57600080fd5b505af192505050801561266f57506040513d601f19601f8201168201806040525081019061266c9190612cce565b60015b6126f2573d806000811461269f576040519150601f19603f3d011682016040523d82523d6000602084013e6126a4565b606091505b506000815114156126ea576040517f08c379a00000000000000000000000000000000000000000000000000000000081526004016126e190613374565b60405180910390fd5b805181602001fd5b63150b7a0260e01b7bffffffffffffffffffffffffffffffffffffffffffffffffffffffff1916817bffffffffffffffffffffffffffffffffffffffffffffffffffffffff191614915050612747565b600190505b949350505050565b600073ffffffffffffffffffffffffffffffffffffffff168273ffffffffffffffffffffffffffffffffffffffff1614156127bf576040517f08c379a00000000000000000000000000000000000000000000000000000000081526004016127b690613514565b60405180910390fd5b6127c881611976565b15612808576040517f08c379a00000000000000000000000000000000000000000000000000000000081526004016127ff906133d4565b60405180910390fd5b6128146000838361252a565b6001600360008473ffffffffffffffffffffffffffffffffffffffff1673ffffffffffffffffffffffffffffffffffffffff16815260200190815260200160002060008282546128649190613751565b92505081905550816002600083815260200190815260200160002060006101000a81548173ffffffffffffffffffffffffffffffffffffffff021916908373ffffffffffffffffffffffffffffffffffffffff160217905550808273ffffffffffffffffffffffffffffffffffffffff16600073ffffffffffffffffffffffffffffffffffffffff167fddf252ad1be2c89b69c2b068fc378daa952ba7f163c4a11628f55a4df523b3ef60405160405180910390a46129256000838361252f565b5050565b6000808273ffffffffffffffffffffffffffffffffffffffff163b119050919050565b8280546129589061392e565b90600052602060002090601f01602090048101928261297a57600085556129c1565b82601f1061299357805160ff19168380011785556129c1565b828001600101855582156129c1579182015b828111156129c05782518255916020019190600101906129a5565b5b5090506129ce91906129d2565b5090565b5b808211156129eb5760008160009055506001016129d3565b5090565b6000612a026129fd846136bd565b613698565b905082815260208101848484011115612a1a57600080fd5b612a258482856138ec565b509392505050565b600081359050612a3c8161409b565b92915050565b600081359050612a51816140b2565b92915050565b600081359050612a66816140c9565b92915050565b600081519050612a7b816140c9565b92915050565b600082601f830112612a9257600080fd5b8135612aa28482602086016129ef565b91505092915050565b600081519050612aba816140e0565b92915050565b600081359050612acf816140f7565b92915050565b600060208284031215612ae757600080fd5b6000612af584828501612a2d565b91505092915050565b60008060408385031215612b1157600080fd5b6000612b1f85828601612a2d565b9250506020612b3085828601612a2d565b9150509250929050565b600080600060608486031215612b4f57600080fd5b6000612b5d86828701612a2d565b9350506020612b6e86828701612a2d565b9250506040612b7f86828701612ac0565b9150509250925092565b60008060008060808587031215612b9f57600080fd5b6000612bad87828801612a2d565b9450506020612bbe87828801612a2d565b9350506040612bcf87828801612ac0565b925050606085013567ffffffffffffffff811115612bec57600080fd5b612bf887828801612a81565b91505092959194509250565b60008060408385031215612c1757600080fd5b6000612c2585828601612a2d565b9250506020612c3685828601612a42565b9150509250929050565b60008060408385031215612c5357600080fd5b6000612c6185828601612a2d565b9250506020612c7285828601612ac0565b9150509250929050565b600060208284031215612c8e57600080fd5b6000612c9c84828501612a42565b91505092915050565b600060208284031215612cb757600080fd5b6000612cc584828501612a57565b91505092915050565b600060208284031215612ce057600080fd5b6000612cee84828501612a6c565b91505092915050565b600060208284031215612d0957600080fd5b6000612d1784828501612aab565b91505092915050565b600060208284031215612d3257600080fd5b6000612d4084828501612ac0565b91505092915050565b60008060408385031215612d5c57600080fd5b6000612d6a85828601612ac0565b9250506020612d7b85828601612ac0565b9150509250929050565b612d8e81613866565b82525050565b612d9d81613878565b82525050565b6000612dae82613703565b612db88185613719565b9350612dc88185602086016138fb565b612dd181613ac7565b840191505092915050565b6000612de782613703565b612df1818561372a565b9350612e018185602086016138fb565b80840191505092915050565b60008154612e1a8161392e565b612e24818661372a565b94506001821660008114612e3f5760018114612e5057612e83565b60ff19831686528186019350612e83565b612e59856136ee565b60005b83811015612e7b57815481890152600182019150602081019050612e5c565b838801955050505b50505092915050565b6000612e978261370e565b612ea18185613735565b9350612eb18185602086016138fb565b612eba81613ac7565b840191505092915050565b6000612ed08261370e565b612eda8185613746565b9350612eea8185602086016138fb565b80840191505092915050565b6000612f03603283613735565b9150612f0e82613ad8565b604082019050919050565b6000612f26602683613735565b9150612f3182613b27565b604082019050919050565b6000612f49602583613735565b9150612f5482613b76565b604082019050919050565b6000612f6c601c83613735565b9150612f7782613bc5565b602082019050919050565b6000612f8f602483613735565b9150612f9a82613bee565b604082019050919050565b6000612fb2601983613735565b9150612fbd82613c3d565b602082019050919050565b6000612fd5601883613735565b9150612fe082613c66565b602082019050919050565b6000612ff8602c83613735565b915061300382613c8f565b604082019050919050565b600061301b603883613735565b915061302682613cde565b604082019050919050565b600061303e602a83613735565b915061304982613d2d565b604082019050919050565b6000613061602983613735565b915061306c82613d7c565b604082019050919050565b6000613084602e83613735565b915061308f82613dcb565b604082019050919050565b60006130a7601283613735565b91506130b282613e1a565b602082019050919050565b60006130ca602083613735565b91506130d582613e43565b602082019050919050565b60006130ed603183613735565b91506130f882613e6c565b604082019050919050565b6000613110601983613735565b915061311b82613ebb565b602082019050919050565b6000613133602c83613735565b915061313e82613ee4565b604082019050919050565b6000613156602083613735565b915061316182613f33565b602082019050919050565b6000613179600e83613735565b915061318482613f5c565b602082019050919050565b600061319c602f83613735565b91506131a782613f85565b604082019050919050565b60006131bf602183613735565b91506131ca82613fd4565b604082019050919050565b60006131e2603183613735565b91506131ed82614023565b604082019050919050565b6000613205601f83613735565b915061321082614072565b602082019050919050565b7f2f00000000000000000000000000000000000000000000000000000000000000815250565b61324a816138e2565b82525050565b600061325c8285612e0d565b91506132678261321b565b6001820191506132778284612ddc565b91508190509392505050565b600061328f8285612ec5565b915061329b8284612ec5565b91508190509392505050565b60006020820190506132bc6000830184612d85565b92915050565b60006080820190506132d76000830187612d85565b6132e46020830186612d85565b6132f16040830185613241565b81810360608301526133038184612da3565b905095945050505050565b60006040820190506133236000830185612d85565b6133306020830184613241565b9392505050565b600060208201905061334c6000830184612d94565b92915050565b6000602082019050818103600083015261336c8184612e8c565b905092915050565b6000602082019050818103600083015261338d81612ef6565b9050919050565b600060208201905081810360008301526133ad81612f19565b9050919050565b600060208201905081810360008301526133cd81612f3c565b9050919050565b600060208201905081810360008301526133ed81612f5f565b9050919050565b6000602082019050818103600083015261340d81612f82565b9050919050565b6000602082019050818103600083015261342d81612fa5565b9050919050565b6000602082019050818103600083015261344d81612fc8565b9050919050565b6000602082019050818103600083015261346d81612feb565b9050919050565b6000602082019050818103600083015261348d8161300e565b9050919050565b600060208201905081810360008301526134ad81613031565b9050919050565b600060208201905081810360008301526134cd81613054565b9050919050565b600060208201905081810360008301526134ed81613077565b9050919050565b6000602082019050818103600083015261350d8161309a565b9050919050565b6000602082019050818103600083015261352d816130bd565b9050919050565b6000602082019050818103600083015261354d816130e0565b9050919050565b6000602082019050818103600083015261356d81613103565b9050919050565b6000602082019050818103600083015261358d81613126565b9050919050565b600060208201905081810360008301526135ad81613149565b9050919050565b600060208201905081810360008301526135cd8161316c565b9050919050565b600060208201905081810360008301526135ed8161318f565b9050919050565b6000602082019050818103600083015261360d816131b2565b9050919050565b6000602082019050818103600083015261362d816131d5565b9050919050565b6000602082019050818103600083015261364d816131f8565b9050919050565b60006020820190506136696000830184613241565b92915050565b60006040820190506136846000830185613241565b6136916020830184613241565b9392505050565b60006136a26136b3565b90506136ae8282613960565b919050565b6000604051905090565b600067ffffffffffffffff8211156136d8576136d7613a98565b5b6136e182613ac7565b9050602081019050919050565b60008190508160005260206000209050919050565b600081519050919050565b600081519050919050565b600082825260208201905092915050565b600081905092915050565b600082825260208201905092915050565b600081905092915050565b600061375c826138e2565b9150613767836138e2565b9250827fffffffffffffffffffffffffffffffffffffffffffffffffffffffffffffffff0382111561379c5761379b613a0b565b5b828201905092915050565b60006137b2826138e2565b91506137bd836138e2565b9250826137cd576137cc613a3a565b5b828204905092915050565b60006137e3826138e2565b91506137ee836138e2565b9250817fffffffffffffffffffffffffffffffffffffffffffffffffffffffffffffffff048311821515161561382757613826613a0b565b5b828202905092915050565b600061383d826138e2565b9150613848836138e2565b92508282101561385b5761385a613a0b565b5b828203905092915050565b6000613871826138c2565b9050919050565b60008115159050919050565b60007fffffffff0000000000000000000000000000000000000000000000000000000082169050919050565b60006138bb82613866565b9050919050565b600073ffffffffffffffffffffffffffffffffffffffff82169050919050565b6000819050919050565b82818337600083830152505050565b60005b838110156139195780820151818401526020810190506138fe565b83811115613928576000848401525b50505050565b6000600282049050600182168061394657607f821691505b6020821081141561395a57613959613a69565b5b50919050565b61396982613ac7565b810181811067ffffffffffffffff8211171561398857613987613a98565b5b80604052505050565b600061399c826138e2565b91507fffffffffffffffffffffffffffffffffffffffffffffffffffffffffffffffff8214156139cf576139ce613a0b565b5b600182019050919050565b60006139e5826138e2565b91506139f0836138e2565b925082613a00576139ff613a3a565b5b828206905092915050565b7f4e487b7100000000000000000000000000000000000000000000000000000000600052601160045260246000fd5b7f4e487b7100000000000000000000000000000000000000000000000000000000600052601260045260246000fd5b7f4e487b7100000000000000000000000000000000000000000000000000000000600052602260045260246000fd5b7f4e487b7100000000000000000000000000000000000000000000000000000000600052604160045260246000fd5b6000601f19601f8301169050919050565b7f4552433732313a207472616e7366657220746f206e6f6e20455243373231526560008201527f63656976657220696d706c656d656e7465720000000000000000000000000000602082015250565b7f4f776e61626c653a206e6577206f776e657220697320746865207a65726f206160008201527f6464726573730000000000000000000000000000000000000000000000000000602082015250565b7f4552433732313a207472616e736665722066726f6d20696e636f72726563742060008201527f6f776e6572000000000000000000000000000000000000000000000000000000602082015250565b7f4552433732313a20746f6b656e20616c7265616479206d696e74656400000000600082015250565b7f4552433732313a207472616e7366657220746f20746865207a65726f2061646460008201527f7265737300000000000000000000000000000000000000000000000000000000602082015250565b7f4552433732313a20617070726f766520746f2063616c6c657200000000000000600082015250565b7f536f7272792c20706175736564206d696e74696e67203a280000000000000000600082015250565b7f4552433732313a206f70657261746f7220717565727920666f72206e6f6e657860008201527f697374656e7420746f6b656e0000000000000000000000000000000000000000602082015250565b7f4552433732313a20617070726f76652063616c6c6572206973206e6f74206f7760008201527f6e6572206e6f7220617070726f76656420666f7220616c6c0000000000000000602082015250565b7f4552433732313a2062616c616e636520717565727920666f7220746865207a6560008201527f726f206164647265737300000000000000000000000000000000000000000000602082015250565b7f4552433732313a206f776e657220717565727920666f72206e6f6e657869737460008201527f656e7420746f6b656e0000000000000000000000000000000000000000000000602082015250565b7f45524337323155524953746f726167653a2055524920736574206f66206e6f6e60008201527f6578697374656e7420746f6b656e000000000000000000000000000000000000602082015250565b7f496e737566696369656e7420616d6f756e740000000000000000000000000000600082015250565b7f4552433732313a206d696e7420746f20746865207a65726f2061646472657373600082015250565b7f45524337323155524953746f726167653a2055524920717565727920666f722060008201527f6e6f6e6578697374656e7420746f6b656e000000000000000000000000000000602082015250565b7f43616e277420657863656564204d41585f454c454d454e545300000000000000600082015250565b7f4552433732313a20617070726f76656420717565727920666f72206e6f6e657860008201527f697374656e7420746f6b656e0000000000000000000000000000000000000000602082015250565b7f4f776e61626c653a2063616c6c6572206973206e6f7420746865206f776e6572600082015250565b7f4d6178656420667265656d696e74000000000000000000000000000000000000600082015250565b7f4552433732314d657461646174613a2055524920717565727920666f72206e6f60008201527f6e6578697374656e7420746f6b656e0000000000000000000000000000000000602082015250565b7f4552433732313a20617070726f76616c20746f2063757272656e74206f776e6560008201527f7200000000000000000000000000000000000000000000000000000000000000602082015250565b7f4552433732313a207472616e736665722063616c6c6572206973206e6f74206f60008201527f776e6572206e6f7220617070726f766564000000000000000000000000000000602082015250565b7f5265656e7472616e637947756172643a207265656e7472616e742063616c6c00600082015250565b6140a481613866565b81146140af57600080fd5b50565b6140bb81613878565b81146140c657600080fd5b50565b6140d281613884565b81146140dd57600080fd5b50565b6140e9816138b0565b81146140f457600080fd5b50565b614100816138e2565b811461410b57600080fd5b5056fea2646970667358221220f1967e7aa7ba2abd5d1bdea53042bbbf5cb0a2f3e056886c7455a5bedb64f6bc64736f6c63430008040033",
  "linkReferences": {},
  "deployedLinkReferences": {}
}