{
  "_format": "hh-sol-artifact-1",
  "contractName": "BerlinYonkies",
  "sourceName": "contracts/NFT.sol",
  "abi": [
    {
      "inputs": [
        {
          "internalType": "string",
          "name": "_name",
          "type": "string"
        },
        {
          "internalType": "string",
          "name": "_symbol",
          "type": "string"
        },
        {
          "internalType": "address",
          "name": "_royalties",
          "type": "address"
        },
        {
          "internalType": "address",
          "name": "_beneficiary",
          "type": "address"
        },
        {
          "internalType": "string",
          "name": "_BASE_TOKEN_URI",
          "type": "string"
        },
        {
          "internalType": "uint256",
          "name": "_MAX_ELEMENTS",
          "type": "uint256"
        },
        {
          "internalType": "uint256",
          "name": "_MAX_FREE_MINT_ELEMENTS",
          "type": "uint256"
        },
        {
          "internalType": "uint256",
          "name": "_PRICE",
          "type": "uint256"
        },
        {
          "internalType": "address",
          "name": "_proxyRegistryAddress",
          "type": "address"
        }
      ],
      "stateMutability": "nonpayable",
      "type": "constructor"
    },
    {
      "anonymous": false,
      "inputs": [
        {
          "indexed": true,
          "internalType": "address",
          "name": "owner",
          "type": "address"
        },
        {
          "indexed": true,
          "internalType": "address",
          "name": "approved",
          "type": "address"
        },
        {
          "indexed": true,
          "internalType": "uint256",
          "name": "tokenId",
          "type": "uint256"
        }
      ],
      "name": "Approval",
      "type": "event"
    },
    {
      "anonymous": false,
      "inputs": [
        {
          "indexed": true,
          "internalType": "address",
          "name": "owner",
          "type": "address"
        },
        {
          "indexed": true,
          "internalType": "address",
          "name": "operator",
          "type": "address"
        },
        {
          "indexed": false,
          "internalType": "bool",
          "name": "approved",
          "type": "bool"
        }
      ],
      "name": "ApprovalForAll",
      "type": "event"
    },
    {
      "anonymous": false,
      "inputs": [
        {
          "indexed": false,
          "internalType": "address",
          "name": "player",
          "type": "address"
        },
        {
          "indexed": false,
          "internalType": "uint256",
          "name": "tokenId",
          "type": "uint256"
        }
      ],
      "name": "Minted",
      "type": "event"
    },
    {
      "anonymous": false,
      "inputs": [
        {
          "indexed": true,
          "internalType": "address",
          "name": "previousOwner",
          "type": "address"
        },
        {
          "indexed": true,
          "internalType": "address",
          "name": "newOwner",
          "type": "address"
        }
      ],
      "name": "OwnershipTransferred",
      "type": "event"
    },
    {
      "anonymous": false,
      "inputs": [
        {
          "indexed": true,
          "internalType": "address",
          "name": "from",
          "type": "address"
        },
        {
          "indexed": true,
          "internalType": "address",
          "name": "to",
          "type": "address"
        },
        {
          "indexed": true,
          "internalType": "uint256",
          "name": "tokenId",
          "type": "uint256"
        }
      ],
      "name": "Transfer",
      "type": "event"
    },
    {
      "inputs": [
        {
          "internalType": "address",
          "name": "to",
          "type": "address"
        },
        {
          "internalType": "uint256",
          "name": "tokenId",
          "type": "uint256"
        }
      ],
      "name": "approve",
      "outputs": [],
      "stateMutability": "nonpayable",
      "type": "function"
    },
    {
      "inputs": [
        {
          "internalType": "address",
          "name": "owner",
          "type": "address"
        }
      ],
      "name": "balanceOf",
      "outputs": [
        {
          "internalType": "uint256",
          "name": "",
          "type": "uint256"
        }
      ],
      "stateMutability": "view",
      "type": "function"
    },
    {
      "inputs": [],
      "name": "baseTokenURI",
      "outputs": [
        {
          "internalType": "string",
          "name": "",
          "type": "string"
        }
      ],
      "stateMutability": "view",
      "type": "function"
    },
    {
      "inputs": [],
      "name": "beneficiary",
      "outputs": [
        {
          "internalType": "address",
          "name": "",
          "type": "address"
        }
      ],
      "stateMutability": "view",
      "type": "function"
    },
    {
      "inputs": [],
      "name": "contractURI",
      "outputs": [
        {
          "internalType": "string",
          "name": "",
          "type": "string"
        }
      ],
      "stateMutability": "view",
      "type": "function"
    },
    {
      "inputs": [],
      "name": "freeMint",
      "outputs": [
        {
          "internalType": "uint256",
          "name": "",
          "type": "uint256"
        }
      ],
      "stateMutability": "nonpayable",
      "type": "function"
    },
    {
      "inputs": [
        {
          "internalType": "uint256",
          "name": "tokenId",
          "type": "uint256"
        }
      ],
      "name": "getApproved",
      "outputs": [
        {
          "internalType": "address",
          "name": "",
          "type": "address"
        }
      ],
      "stateMutability": "view",
      "type": "function"
    },
    {
      "inputs": [],
      "name": "getCurrentSupply",
      "outputs": [
        {
          "internalType": "uint256",
          "name": "",
          "type": "uint256"
        }
      ],
      "stateMutability": "view",
      "type": "function"
    },
    {
      "inputs": [],
      "name": "getMaxElements",
      "outputs": [
        {
          "internalType": "uint256",
          "name": "",
          "type": "uint256"
        }
      ],
      "stateMutability": "view",
      "type": "function"
    },
    {
      "inputs": [],
      "name": "getPrice",
      "outputs": [
        {
          "internalType": "uint256",
          "name": "",
          "type": "uint256"
        }
      ],
      "stateMutability": "view",
      "type": "function"
    },
    {
      "inputs": [],
      "name": "getStatus",
      "outputs": [
        {
          "internalType": "bool",
          "name": "",
          "type": "bool"
        }
      ],
      "stateMutability": "view",
      "type": "function"
    },
    {
      "inputs": [
        {
          "internalType": "address",
          "name": "owner",
          "type": "address"
        },
        {
          "internalType": "address",
          "name": "operator",
          "type": "address"
        }
      ],
      "name": "isApprovedForAll",
      "outputs": [
        {
          "internalType": "bool",
          "name": "",
          "type": "bool"
        }
      ],
      "stateMutability": "view",
      "type": "function"
    },
    {
      "inputs": [],
      "name": "mint",
      "outputs": [
        {
          "internalType": "uint256",
          "name": "",
          "type": "uint256"
        }
      ],
      "stateMutability": "payable",
      "type": "function"
    },
    {
      "inputs": [],
      "name": "name",
      "outputs": [
        {
          "internalType": "string",
          "name": "",
          "type": "string"
        }
      ],
      "stateMutability": "view",
      "type": "function"
    },
    {
      "inputs": [],
      "name": "owner",
      "outputs": [
        {
          "internalType": "address",
          "name": "",
          "type": "address"
        }
      ],
      "stateMutability": "view",
      "type": "function"
    },
    {
      "inputs": [
        {
          "internalType": "uint256",
          "name": "tokenId",
          "type": "uint256"
        }
      ],
      "name": "ownerOf",
      "outputs": [
        {
          "internalType": "address",
          "name": "",
          "type": "address"
        }
      ],
      "stateMutability": "view",
      "type": "function"
    },
    {
      "inputs": [
        {
          "internalType": "bool",
          "name": "status",
          "type": "bool"
        }
      ],
      "name": "pause",
      "outputs": [],
      "stateMutability": "nonpayable",
      "type": "function"
    },
    {
      "inputs": [],
      "name": "renounceOwnership",
      "outputs": [],
      "stateMutability": "nonpayable",
      "type": "function"
    },
    {
      "inputs": [],
      "name": "royalties",
      "outputs": [
        {
          "internalType": "address",
          "name": "",
          "type": "address"
        }
      ],
      "stateMutability": "view",
      "type": "function"
    },
    {
      "inputs": [
        {
          "internalType": "uint256",
          "name": "_tokenId",
          "type": "uint256"
        },
        {
          "internalType": "uint256",
          "name": "_salePrice",
          "type": "uint256"
        }
      ],
      "name": "royaltyInfo",
      "outputs": [
        {
          "internalType": "address",
          "name": "",
          "type": "address"
        },
        {
          "internalType": "uint256",
          "name": "royaltyAmount",
          "type": "uint256"
        }
      ],
      "stateMutability": "view",
      "type": "function"
    },
    {
      "inputs": [
        {
          "internalType": "address",
          "name": "from",
          "type": "address"
        },
        {
          "internalType": "address",
          "name": "to",
          "type": "address"
        },
        {
          "internalType": "uint256",
          "name": "tokenId",
          "type": "uint256"
        }
      ],
      "name": "safeTransferFrom",
      "outputs": [],
      "stateMutability": "nonpayable",
      "type": "function"
    },
    {
      "inputs": [
        {
          "internalType": "address",
          "name": "from",
          "type": "address"
        },
        {
          "internalType": "address",
          "name": "to",
          "type": "address"
        },
        {
          "internalType": "uint256",
          "name": "tokenId",
          "type": "uint256"
        },
        {
          "internalType": "bytes",
          "name": "_data",
          "type": "bytes"
        }
      ],
      "name": "safeTransferFrom",
      "outputs": [],
      "stateMutability": "nonpayable",
      "type": "function"
    },
    {
      "inputs": [
        {
          "internalType": "address",
          "name": "operator",
          "type": "address"
        },
        {
          "internalType": "bool",
          "name": "approved",
          "type": "bool"
        }
      ],
      "name": "setApprovalForAll",
      "outputs": [],
      "stateMutability": "nonpayable",
      "type": "function"
    },
    {
      "inputs": [
        {
          "internalType": "bytes4",
          "name": "interfaceId",
          "type": "bytes4"
        }
      ],
      "name": "supportsInterface",
      "outputs": [
        {
          "internalType": "bool",
          "name": "",
          "type": "bool"
        }
      ],
      "stateMutability": "view",
      "type": "function"
    },
    {
      "inputs": [],
      "name": "symbol",
      "outputs": [
        {
          "internalType": "string",
          "name": "",
          "type": "string"
        }
      ],
      "stateMutability": "view",
      "type": "function"
    },
    {
      "inputs": [
        {
          "internalType": "uint256",
          "name": "tokenId",
          "type": "uint256"
        }
      ],
      "name": "tokenURI",
      "outputs": [
        {
          "internalType": "string",
          "name": "",
          "type": "string"
        }
      ],
      "stateMutability": "view",
      "type": "function"
    },
    {
      "inputs": [
        {
          "internalType": "address",
          "name": "from",
          "type": "address"
        },
        {
          "internalType": "address",
          "name": "to",
          "type": "address"
        },
        {
          "internalType": "uint256",
          "name": "tokenId",
          "type": "uint256"
        }
      ],
      "name": "transferFrom",
      "outputs": [],
      "stateMutability": "nonpayable",
      "type": "function"
    },
    {
      "inputs": [
        {
          "internalType": "address",
          "name": "newOwner",
          "type": "address"
        }
      ],
      "name": "transferOwnership",
      "outputs": [],
      "stateMutability": "nonpayable",
      "type": "function"
    },
    {
      "inputs": [],
      "name": "withdraw",
      "outputs": [],
      "stateMutability": "nonpayable",
      "type": "function"
    }
  ],
  "bytecode": "0x60806040526001600f60006101000a81548160ff0219169083151502179055503480156200002c57600080fd5b50604051620047a4380380620047a48339818101604052810190620000529190620003ce565b888881600090805190602001906200006c9291906200027e565b508060019080519060200190620000859291906200027e565b5050506001600781905550620000b0620000a4620001b060201b60201c565b620001b860201b60201c565b86601060006101000a81548173ffffffffffffffffffffffffffffffffffffffff021916908373ffffffffffffffffffffffffffffffffffffffff16021790555085600f60016101000a81548173ffffffffffffffffffffffffffffffffffffffff021916908373ffffffffffffffffffffffffffffffffffffffff16021790555080601160006101000a81548173ffffffffffffffffffffffffffffffffffffffff021916908373ffffffffffffffffffffffffffffffffffffffff16021790555084600d90805190602001906200018b9291906200027e565b5083600b8190555081600e8190555082600c81905550505050505050505050620006d4565b600033905090565b6000600860009054906101000a900473ffffffffffffffffffffffffffffffffffffffff16905081600860006101000a81548173ffffffffffffffffffffffffffffffffffffffff021916908373ffffffffffffffffffffffffffffffffffffffff1602179055508173ffffffffffffffffffffffffffffffffffffffff168173ffffffffffffffffffffffffffffffffffffffff167f8be0079c531659141344cd1fd0a4f28419497f9722a3daafe3b4186f6b6457e060405160405180910390a35050565b8280546200028c90620005c5565b90600052602060002090601f016020900481019282620002b05760008555620002fc565b82601f10620002cb57805160ff1916838001178555620002fc565b82800160010185558215620002fc579182015b82811115620002fb578251825591602001919060010190620002de565b5b5090506200030b91906200030f565b5090565b5b808211156200032a57600081600090555060010162000310565b5090565b6000620003456200033f846200051b565b620004f2565b9050828152602081018484840111156200035e57600080fd5b6200036b8482856200058f565b509392505050565b6000815190506200038481620006a0565b92915050565b600082601f8301126200039c57600080fd5b8151620003ae8482602086016200032e565b91505092915050565b600081519050620003c881620006ba565b92915050565b60008060008060008060008060006101208a8c031215620003ee57600080fd5b60008a015167ffffffffffffffff8111156200040957600080fd5b620004178c828d016200038a565b99505060208a015167ffffffffffffffff8111156200043557600080fd5b620004438c828d016200038a565b9850506040620004568c828d0162000373565b9750506060620004698c828d0162000373565b96505060808a015167ffffffffffffffff8111156200048757600080fd5b620004958c828d016200038a565b95505060a0620004a88c828d01620003b7565b94505060c0620004bb8c828d01620003b7565b93505060e0620004ce8c828d01620003b7565b925050610100620004e28c828d0162000373565b9150509295985092959850929598565b6000620004fe62000511565b90506200050c8282620005fb565b919050565b6000604051905090565b600067ffffffffffffffff82111562000539576200053862000660565b5b62000544826200068f565b9050602081019050919050565b60006200055e8262000565565b9050919050565b600073ffffffffffffffffffffffffffffffffffffffff82169050919050565b6000819050919050565b60005b83811015620005af57808201518184015260208101905062000592565b83811115620005bf576000848401525b50505050565b60006002820490506001821680620005de57607f821691505b60208210811415620005f557620005f462000631565b5b50919050565b62000606826200068f565b810181811067ffffffffffffffff8211171562000628576200062762000660565b5b80604052505050565b7f4e487b7100000000000000000000000000000000000000000000000000000000600052602260045260246000fd5b7f4e487b7100000000000000000000000000000000000000000000000000000000600052604160045260246000fd5b6000601f19601f8301169050919050565b620006ab8162000551565b8114620006b757600080fd5b50565b620006c58162000585565b8114620006d157600080fd5b50565b6140c080620006e46000396000f3fe6080604052600436106101c25760003560e01c80635b70ea9f116100f7578063a22cb46511610095578063e8a3d48511610064578063e8a3d48514610626578063e985e9c514610651578063f053dc5c1461068e578063f2fde38b146106b9576101c2565b8063a22cb4651461056c578063b88d4fde14610595578063c87b56dd146105be578063d547cfb7146105fb576101c2565b8063715018a6116100d1578063715018a6146104d45780638da5cb5b146104eb57806395d89b411461051657806398d5fdca14610541576101c2565b80635b70ea9f1461042f5780636352211e1461045a57806370a0823114610497576101c2565b80632a55205a116101645780633ccfd60b1161013e5780633ccfd60b1461039957806342842e0e146103b05780634e69d560146103d95780634f3e1efc14610404576101c2565b80632a55205a14610305578063368e167a1461034357806338af3eed1461036e576101c2565b8063081812fc116101a0578063081812fc14610258578063095ea7b3146102955780631249c58b146102be57806323b872dd146102dc576101c2565b806301ffc9a7146101c757806302329a291461020457806306fdde031461022d575b600080fd5b3480156101d357600080fd5b506101ee60048036038101906101e99190612c4a565b6106e2565b6040516101fb91906132dc565b60405180910390f35b34801561021057600080fd5b5061022b60048036038101906102269190612c21565b61075c565b005b34801561023957600080fd5b506102426107f5565b60405161024f91906132f7565b60405180910390f35b34801561026457600080fd5b5061027f600480360381019061027a9190612cc5565b610887565b60405161028c919061324c565b60405180910390f35b3480156102a157600080fd5b506102bc60048036038101906102b79190612be5565b61090c565b005b6102c6610a24565b6040516102d391906135f9565b60405180910390f35b3480156102e857600080fd5b5061030360048036038101906102fe9190612adf565b610c53565b005b34801561031157600080fd5b5061032c60048036038101906103279190612cee565b610cb3565b60405161033a9291906132b3565b60405180910390f35b34801561034f57600080fd5b50610358610cfd565b60405161036591906135f9565b60405180910390f35b34801561037a57600080fd5b50610383610d07565b604051610390919061324c565b60405180910390f35b3480156103a557600080fd5b506103ae610d2d565b005b3480156103bc57600080fd5b506103d760048036038101906103d29190612adf565b610e14565b005b3480156103e557600080fd5b506103ee610e34565b6040516103fb91906132dc565b60405180910390f35b34801561041057600080fd5b50610419610e4b565b60405161042691906135f9565b60405180910390f35b34801561043b57600080fd5b50610444610e5c565b60405161045191906135f9565b60405180910390f35b34801561046657600080fd5b50610481600480360381019061047c9190612cc5565b611130565b60405161048e919061324c565b60405180910390f35b3480156104a357600080fd5b506104be60048036038101906104b99190612a7a565b6111e2565b6040516104cb91906135f9565b60405180910390f35b3480156104e057600080fd5b506104e961129a565b005b3480156104f757600080fd5b50610500611322565b60405161050d919061324c565b60405180910390f35b34801561052257600080fd5b5061052b61134c565b60405161053891906132f7565b60405180910390f35b34801561054d57600080fd5b506105566113de565b60405161056391906135f9565b60405180910390f35b34801561057857600080fd5b50610593600480360381019061058e9190612ba9565b6113e8565b005b3480156105a157600080fd5b506105bc60048036038101906105b79190612b2e565b6113fe565b005b3480156105ca57600080fd5b506105e560048036038101906105e09190612cc5565b611460565b6040516105f291906132f7565b60405180910390f35b34801561060757600080fd5b506106106115b2565b60405161061d91906132f7565b60405180910390f35b34801561063257600080fd5b5061063b611644565b60405161064891906132f7565b60405180910390f35b34801561065d57600080fd5b5061067860048036038101906106739190612aa3565b6116d6565b60405161068591906132dc565b60405180910390f35b34801561069a57600080fd5b506106a36117d8565b6040516106b0919061324c565b60405180910390f35b3480156106c557600080fd5b506106e060048036038101906106db9190612a7a565b6117fe565b005b60007f2a55205a000000000000000000000000000000000000000000000000000000007bffffffffffffffffffffffffffffffffffffffffffffffffffffffff1916827bffffffffffffffffffffffffffffffffffffffffffffffffffffffff191614806107555750610754826118f6565b5b9050919050565b6107646119d8565b73ffffffffffffffffffffffffffffffffffffffff16610782611322565b73ffffffffffffffffffffffffffffffffffffffff16146107d8576040517f08c379a00000000000000000000000000000000000000000000000000000000081526004016107cf90613539565b60405180910390fd5b80600f60006101000a81548160ff02191690831515021790555050565b606060008054610804906138aa565b80601f0160208091040260200160405190810160405280929190818152602001828054610830906138aa565b801561087d5780601f106108525761010080835404028352916020019161087d565b820191906000526020600020905b81548152906001019060200180831161086057829003601f168201915b5050505050905090565b6000610892826119e0565b6108d1576040517f08c379a00000000000000000000000000000000000000000000000000000000081526004016108c890613519565b60405180910390fd5b6004600083815260200190815260200160002060009054906101000a900473ffffffffffffffffffffffffffffffffffffffff169050919050565b600061091782611130565b90508073ffffffffffffffffffffffffffffffffffffffff168373ffffffffffffffffffffffffffffffffffffffff161415610988576040517f08c379a000000000000000000000000000000000000000000000000000000000815260040161097f90613599565b60405180910390fd5b8073ffffffffffffffffffffffffffffffffffffffff166109a76119d8565b73ffffffffffffffffffffffffffffffffffffffff1614806109d657506109d5816109d06119d8565b6116d6565b5b610a15576040517f08c379a0000000000000000000000000000000000000000000000000000000008152600401610a0c90613419565b60405180910390fd5b610a1f8383611a4c565b505050565b6000600b54610a336009611b05565b1115610a74576040517f08c379a0000000000000000000000000000000000000000000000000000000008152600401610a6b906134f9565b60405180910390fd5b60001515600f60009054906101000a900460ff16151514610aca576040517f08c379a0000000000000000000000000000000000000000000000000000000008152600401610ac1906133d9565b60405180910390fd5b60026007541415610b10576040517f08c379a0000000000000000000000000000000000000000000000000000000008152600401610b07906135d9565b60405180910390fd5b6002600781905550610b226009611b13565b6000610b2e6009611b05565b90506001601260003373ffffffffffffffffffffffffffffffffffffffff1673ffffffffffffffffffffffffffffffffffffffff16815260200190815260200160002060006101000a81548160ff021916908315150217905550600e54341015610bcd576040517f08c379a0000000000000000000000000000000000000000000000000000000008152600401610bc490613499565b60405180910390fd5b610bd73382611b29565b610c0b81600d610be684611b47565b604051602001610bf79291906131f5565b604051602081830303815290604052611cf4565b7f30385c845b448a36257a6a1716e6ad2e1bc2cbe333cde1e69fe849ad6511adfe3382604051610c3c9291906132b3565b60405180910390a180915050600160078190555090565b610c64610c5e6119d8565b82611d68565b610ca3576040517f08c379a0000000000000000000000000000000000000000000000000000000008152600401610c9a906135b9565b60405180910390fd5b610cae838383611e46565b505050565b6000806005606484610cc59190613723565b610ccf9190613754565b9050601060009054906101000a900473ffffffffffffffffffffffffffffffffffffffff1691509250929050565b6000600b54905090565b600f60019054906101000a900473ffffffffffffffffffffffffffffffffffffffff1681565b610d356119d8565b73ffffffffffffffffffffffffffffffffffffffff16610d53611322565b73ffffffffffffffffffffffffffffffffffffffff1614610da9576040517f08c379a0000000000000000000000000000000000000000000000000000000008152600401610da090613539565b60405180910390fd5b600f60019054906101000a900473ffffffffffffffffffffffffffffffffffffffff1673ffffffffffffffffffffffffffffffffffffffff166108fc479081150290604051600060405180830381858888f19350505050158015610e11573d6000803e3d6000fd5b50565b610e2f838383604051806020016040528060008152506113fe565b505050565b6000600f60009054906101000a900460ff16905090565b6000610e576009611b05565b905090565b6000600b54610e6b6009611b05565b1115610eac576040517f08c379a0000000000000000000000000000000000000000000000000000000008152600401610ea3906134f9565b60405180910390fd5b60001515600f60009054906101000a900460ff16151514610f02576040517f08c379a0000000000000000000000000000000000000000000000000000000008152600401610ef9906133d9565b60405180910390fd5b60001515601260003373ffffffffffffffffffffffffffffffffffffffff1673ffffffffffffffffffffffffffffffffffffffff16815260200190815260200160002060009054906101000a900460ff16151514610f95576040517f08c379a0000000000000000000000000000000000000000000000000000000008152600401610f8c90613559565b60405180910390fd5b60026007541415610fdb576040517f08c379a0000000000000000000000000000000000000000000000000000000008152600401610fd2906135d9565b60405180910390fd5b6002600781905550600c54610ff0600a611b05565b10611030576040517f08c379a000000000000000000000000000000000000000000000000000000000815260040161102790613559565b60405180910390fd5b61103a6009611b13565b611044600a611b13565b60006110506009611b05565b90506001601260003373ffffffffffffffffffffffffffffffffffffffff1673ffffffffffffffffffffffffffffffffffffffff16815260200190815260200160002060006101000a81548160ff0219169083151502179055506110b43382611b29565b6110e881600d6110c384611b47565b6040516020016110d49291906131f5565b604051602081830303815290604052611cf4565b7f30385c845b448a36257a6a1716e6ad2e1bc2cbe333cde1e69fe849ad6511adfe33826040516111199291906132b3565b60405180910390a180915050600160078190555090565b6000806002600084815260200190815260200160002060009054906101000a900473ffffffffffffffffffffffffffffffffffffffff169050600073ffffffffffffffffffffffffffffffffffffffff168173ffffffffffffffffffffffffffffffffffffffff1614156111d9576040517f08c379a00000000000000000000000000000000000000000000000000000000081526004016111d090613459565b60405180910390fd5b80915050919050565b60008073ffffffffffffffffffffffffffffffffffffffff168273ffffffffffffffffffffffffffffffffffffffff161415611253576040517f08c379a000000000000000000000000000000000000000000000000000000000815260040161124a90613439565b60405180910390fd5b600360008373ffffffffffffffffffffffffffffffffffffffff1673ffffffffffffffffffffffffffffffffffffffff168152602001908152602001600020549050919050565b6112a26119d8565b73ffffffffffffffffffffffffffffffffffffffff166112c0611322565b73ffffffffffffffffffffffffffffffffffffffff1614611316576040517f08c379a000000000000000000000000000000000000000000000000000000000815260040161130d90613539565b60405180910390fd5b61132060006120ad565b565b6000600860009054906101000a900473ffffffffffffffffffffffffffffffffffffffff16905090565b60606001805461135b906138aa565b80601f0160208091040260200160405190810160405280929190818152602001828054611387906138aa565b80156113d45780601f106113a9576101008083540402835291602001916113d4565b820191906000526020600020905b8154815290600101906020018083116113b757829003601f168201915b5050505050905090565b6000600e54905090565b6113fa6113f36119d8565b8383612173565b5050565b61140f6114096119d8565b83611d68565b61144e576040517f08c379a0000000000000000000000000000000000000000000000000000000008152600401611445906135b9565b60405180910390fd5b61145a848484846122e0565b50505050565b606061146b826119e0565b6114aa576040517f08c379a00000000000000000000000000000000000000000000000000000000081526004016114a1906134d9565b60405180910390fd5b60006006600084815260200190815260200160002080546114ca906138aa565b80601f01602080910402602001604051908101604052809291908181526020018280546114f6906138aa565b80156115435780601f1061151857610100808354040283529160200191611543565b820191906000526020600020905b81548152906001019060200180831161152657829003601f168201915b50505050509050600061155461233c565b905060008151141561156a5781925050506115ad565b60008251111561159f578082604051602001611587929190613228565b604051602081830303815290604052925050506115ad565b6115a884612353565b925050505b919050565b6060600d80546115c1906138aa565b80601f01602080910402602001604051908101604052809291908181526020018280546115ed906138aa565b801561163a5780601f1061160f5761010080835404028352916020019161163a565b820191906000526020600020905b81548152906001019060200180831161161d57829003601f168201915b5050505050905090565b6060600d8054611653906138aa565b80601f016020809104026020016040519081016040528092919081815260200182805461167f906138aa565b80156116cc5780601f106116a1576101008083540402835291602001916116cc565b820191906000526020600020905b8154815290600101906020018083116116af57829003601f168201915b5050505050905090565b600080601160009054906101000a900473ffffffffffffffffffffffffffffffffffffffff1690508273ffffffffffffffffffffffffffffffffffffffff168173ffffffffffffffffffffffffffffffffffffffff1663c4552791866040518263ffffffff1660e01b815260040161174e919061324c565b60206040518083038186803b15801561176657600080fd5b505afa15801561177a573d6000803e3d6000fd5b505050506040513d601f19601f8201168201806040525081019061179e9190612c9c565b73ffffffffffffffffffffffffffffffffffffffff1614156117c45760019150506117d2565b6117ce84846123fa565b9150505b92915050565b601060009054906101000a900473ffffffffffffffffffffffffffffffffffffffff1681565b6118066119d8565b73ffffffffffffffffffffffffffffffffffffffff16611824611322565b73ffffffffffffffffffffffffffffffffffffffff161461187a576040517f08c379a000000000000000000000000000000000000000000000000000000000815260040161187190613539565b60405180910390fd5b600073ffffffffffffffffffffffffffffffffffffffff168173ffffffffffffffffffffffffffffffffffffffff1614156118ea576040517f08c379a00000000000000000000000000000000000000000000000000000000081526004016118e190613339565b60405180910390fd5b6118f3816120ad565b50565b60007f80ac58cd000000000000000000000000000000000000000000000000000000007bffffffffffffffffffffffffffffffffffffffffffffffffffffffff1916827bffffffffffffffffffffffffffffffffffffffffffffffffffffffff191614806119c157507f5b5e139f000000000000000000000000000000000000000000000000000000007bffffffffffffffffffffffffffffffffffffffffffffffffffffffff1916827bffffffffffffffffffffffffffffffffffffffffffffffffffffffff1916145b806119d157506119d08261248e565b5b9050919050565b600033905090565b60008073ffffffffffffffffffffffffffffffffffffffff166002600084815260200190815260200160002060009054906101000a900473ffffffffffffffffffffffffffffffffffffffff1673ffffffffffffffffffffffffffffffffffffffff1614159050919050565b816004600083815260200190815260200160002060006101000a81548173ffffffffffffffffffffffffffffffffffffffff021916908373ffffffffffffffffffffffffffffffffffffffff160217905550808273ffffffffffffffffffffffffffffffffffffffff16611abf83611130565b73ffffffffffffffffffffffffffffffffffffffff167f8c5be1e5ebec7d5bd14f71427d1e84f3dd0314c0f7b2291e5b200ac8c7c3b92560405160405180910390a45050565b600081600001549050919050565b6001816000016000828254019250508190555050565b611b438282604051806020016040528060008152506124f8565b5050565b60606000821415611b8f576040518060400160405280600181526020017f30000000000000000000000000000000000000000000000000000000000000008152509050611cef565b600082905060005b60008214611bc1578080611baa9061390d565b915050600a82611bba9190613723565b9150611b97565b60008167ffffffffffffffff811115611c03577f4e487b7100000000000000000000000000000000000000000000000000000000600052604160045260246000fd5b6040519080825280601f01601f191660200182016040528015611c355781602001600182028036833780820191505090505b5090505b60008514611ce857600182611c4e91906137ae565b9150600a85611c5d9190613956565b6030611c6991906136cd565b60f81b818381518110611ca5577f4e487b7100000000000000000000000000000000000000000000000000000000600052603260045260246000fd5b60200101907effffffffffffffffffffffffffffffffffffffffffffffffffffffffffffff1916908160001a905350600a85611ce19190613723565b9450611c39565b8093505050505b919050565b611cfd826119e0565b611d3c576040517f08c379a0000000000000000000000000000000000000000000000000000000008152600401611d3390613479565b60405180910390fd5b80600660008481526020019081526020016000209080519060200190611d639291906128f1565b505050565b6000611d73826119e0565b611db2576040517f08c379a0000000000000000000000000000000000000000000000000000000008152600401611da9906133f9565b60405180910390fd5b6000611dbd83611130565b90508073ffffffffffffffffffffffffffffffffffffffff168473ffffffffffffffffffffffffffffffffffffffff161480611e2c57508373ffffffffffffffffffffffffffffffffffffffff16611e1484610887565b73ffffffffffffffffffffffffffffffffffffffff16145b80611e3d5750611e3c81856116d6565b5b91505092915050565b8273ffffffffffffffffffffffffffffffffffffffff16611e6682611130565b73ffffffffffffffffffffffffffffffffffffffff1614611ebc576040517f08c379a0000000000000000000000000000000000000000000000000000000008152600401611eb390613359565b60405180910390fd5b600073ffffffffffffffffffffffffffffffffffffffff168273ffffffffffffffffffffffffffffffffffffffff161415611f2c576040517f08c379a0000000000000000000000000000000000000000000000000000000008152600401611f2390613399565b60405180910390fd5b611f37838383612553565b611f42600082611a4c565b6001600360008573ffffffffffffffffffffffffffffffffffffffff1673ffffffffffffffffffffffffffffffffffffffff1681526020019081526020016000206000828254611f9291906137ae565b925050819055506001600360008473ffffffffffffffffffffffffffffffffffffffff1673ffffffffffffffffffffffffffffffffffffffff1681526020019081526020016000206000828254611fe991906136cd565b92505081905550816002600083815260200190815260200160002060006101000a81548173ffffffffffffffffffffffffffffffffffffffff021916908373ffffffffffffffffffffffffffffffffffffffff160217905550808273ffffffffffffffffffffffffffffffffffffffff168473ffffffffffffffffffffffffffffffffffffffff167fddf252ad1be2c89b69c2b068fc378daa952ba7f163c4a11628f55a4df523b3ef60405160405180910390a46120a8838383612558565b505050565b6000600860009054906101000a900473ffffffffffffffffffffffffffffffffffffffff16905081600860006101000a81548173ffffffffffffffffffffffffffffffffffffffff021916908373ffffffffffffffffffffffffffffffffffffffff1602179055508173ffffffffffffffffffffffffffffffffffffffff168173ffffffffffffffffffffffffffffffffffffffff167f8be0079c531659141344cd1fd0a4f28419497f9722a3daafe3b4186f6b6457e060405160405180910390a35050565b8173ffffffffffffffffffffffffffffffffffffffff168373ffffffffffffffffffffffffffffffffffffffff1614156121e2576040517f08c379a00000000000000000000000000000000000000000000000000000000081526004016121d9906133b9565b60405180910390fd5b80600560008573ffffffffffffffffffffffffffffffffffffffff1673ffffffffffffffffffffffffffffffffffffffff16815260200190815260200160002060008473ffffffffffffffffffffffffffffffffffffffff1673ffffffffffffffffffffffffffffffffffffffff16815260200190815260200160002060006101000a81548160ff0219169083151502179055508173ffffffffffffffffffffffffffffffffffffffff168373ffffffffffffffffffffffffffffffffffffffff167f17307eab39ab6107e8899845ad3d59bd9653f200f220920489ca2b5937696c31836040516122d391906132dc565b60405180910390a3505050565b6122eb848484611e46565b6122f78484848461255d565b612336576040517f08c379a000000000000000000000000000000000000000000000000000000000815260040161232d90613319565b60405180910390fd5b50505050565b606060405180602001604052806000815250905090565b606061235e826119e0565b61239d576040517f08c379a000000000000000000000000000000000000000000000000000000000815260040161239490613579565b60405180910390fd5b60006123a761233c565b905060008151116123c757604051806020016040528060008152506123f2565b806123d184611b47565b6040516020016123e2929190613228565b6040516020818303038152906040525b915050919050565b6000600560008473ffffffffffffffffffffffffffffffffffffffff1673ffffffffffffffffffffffffffffffffffffffff16815260200190815260200160002060008373ffffffffffffffffffffffffffffffffffffffff1673ffffffffffffffffffffffffffffffffffffffff16815260200190815260200160002060009054906101000a900460ff16905092915050565b60007f01ffc9a7000000000000000000000000000000000000000000000000000000007bffffffffffffffffffffffffffffffffffffffffffffffffffffffff1916827bffffffffffffffffffffffffffffffffffffffffffffffffffffffff1916149050919050565b61250283836126f4565b61250f600084848461255d565b61254e576040517f08c379a000000000000000000000000000000000000000000000000000000000815260040161254590613319565b60405180910390fd5b505050565b505050565b505050565b600061257e8473ffffffffffffffffffffffffffffffffffffffff166128ce565b156126e7578373ffffffffffffffffffffffffffffffffffffffff1663150b7a026125a76119d8565b8786866040518563ffffffff1660e01b81526004016125c99493929190613267565b602060405180830381600087803b1580156125e357600080fd5b505af192505050801561261457506040513d601f19601f820116820180604052508101906126119190612c73565b60015b612697573d8060008114612644576040519150601f19603f3d011682016040523d82523d6000602084013e612649565b606091505b5060008151141561268f576040517f08c379a000000000000000000000000000000000000000000000000000000000815260040161268690613319565b60405180910390fd5b805181602001fd5b63150b7a0260e01b7bffffffffffffffffffffffffffffffffffffffffffffffffffffffff1916817bffffffffffffffffffffffffffffffffffffffffffffffffffffffff1916149150506126ec565b600190505b949350505050565b600073ffffffffffffffffffffffffffffffffffffffff168273ffffffffffffffffffffffffffffffffffffffff161415612764576040517f08c379a000000000000000000000000000000000000000000000000000000000815260040161275b906134b9565b60405180910390fd5b61276d816119e0565b156127ad576040517f08c379a00000000000000000000000000000000000000000000000000000000081526004016127a490613379565b60405180910390fd5b6127b960008383612553565b6001600360008473ffffffffffffffffffffffffffffffffffffffff1673ffffffffffffffffffffffffffffffffffffffff168152602001908152602001600020600082825461280991906136cd565b92505081905550816002600083815260200190815260200160002060006101000a81548173ffffffffffffffffffffffffffffffffffffffff021916908373ffffffffffffffffffffffffffffffffffffffff160217905550808273ffffffffffffffffffffffffffffffffffffffff16600073ffffffffffffffffffffffffffffffffffffffff167fddf252ad1be2c89b69c2b068fc378daa952ba7f163c4a11628f55a4df523b3ef60405160405180910390a46128ca60008383612558565b5050565b6000808273ffffffffffffffffffffffffffffffffffffffff163b119050919050565b8280546128fd906138aa565b90600052602060002090601f01602090048101928261291f5760008555612966565b82601f1061293857805160ff1916838001178555612966565b82800160010185558215612966579182015b8281111561296557825182559160200191906001019061294a565b5b5090506129739190612977565b5090565b5b80821115612990576000816000905550600101612978565b5090565b60006129a76129a284613639565b613614565b9050828152602081018484840111156129bf57600080fd5b6129ca848285613868565b509392505050565b6000813590506129e181614017565b92915050565b6000813590506129f68161402e565b92915050565b600081359050612a0b81614045565b92915050565b600081519050612a2081614045565b92915050565b600082601f830112612a3757600080fd5b8135612a47848260208601612994565b91505092915050565b600081519050612a5f8161405c565b92915050565b600081359050612a7481614073565b92915050565b600060208284031215612a8c57600080fd5b6000612a9a848285016129d2565b91505092915050565b60008060408385031215612ab657600080fd5b6000612ac4858286016129d2565b9250506020612ad5858286016129d2565b9150509250929050565b600080600060608486031215612af457600080fd5b6000612b02868287016129d2565b9350506020612b13868287016129d2565b9250506040612b2486828701612a65565b9150509250925092565b60008060008060808587031215612b4457600080fd5b6000612b52878288016129d2565b9450506020612b63878288016129d2565b9350506040612b7487828801612a65565b925050606085013567ffffffffffffffff811115612b9157600080fd5b612b9d87828801612a26565b91505092959194509250565b60008060408385031215612bbc57600080fd5b6000612bca858286016129d2565b9250506020612bdb858286016129e7565b9150509250929050565b60008060408385031215612bf857600080fd5b6000612c06858286016129d2565b9250506020612c1785828601612a65565b9150509250929050565b600060208284031215612c3357600080fd5b6000612c41848285016129e7565b91505092915050565b600060208284031215612c5c57600080fd5b6000612c6a848285016129fc565b91505092915050565b600060208284031215612c8557600080fd5b6000612c9384828501612a11565b91505092915050565b600060208284031215612cae57600080fd5b6000612cbc84828501612a50565b91505092915050565b600060208284031215612cd757600080fd5b6000612ce584828501612a65565b91505092915050565b60008060408385031215612d0157600080fd5b6000612d0f85828601612a65565b9250506020612d2085828601612a65565b9150509250929050565b612d33816137e2565b82525050565b612d42816137f4565b82525050565b6000612d538261367f565b612d5d8185613695565b9350612d6d818560208601613877565b612d7681613a43565b840191505092915050565b6000612d8c8261367f565b612d9681856136a6565b9350612da6818560208601613877565b80840191505092915050565b60008154612dbf816138aa565b612dc981866136a6565b94506001821660008114612de45760018114612df557612e28565b60ff19831686528186019350612e28565b612dfe8561366a565b60005b83811015612e2057815481890152600182019150602081019050612e01565b838801955050505b50505092915050565b6000612e3c8261368a565b612e4681856136b1565b9350612e56818560208601613877565b612e5f81613a43565b840191505092915050565b6000612e758261368a565b612e7f81856136c2565b9350612e8f818560208601613877565b80840191505092915050565b6000612ea86032836136b1565b9150612eb382613a54565b604082019050919050565b6000612ecb6026836136b1565b9150612ed682613aa3565b604082019050919050565b6000612eee6025836136b1565b9150612ef982613af2565b604082019050919050565b6000612f11601c836136b1565b9150612f1c82613b41565b602082019050919050565b6000612f346024836136b1565b9150612f3f82613b6a565b604082019050919050565b6000612f576019836136b1565b9150612f6282613bb9565b602082019050919050565b6000612f7a6018836136b1565b9150612f8582613be2565b602082019050919050565b6000612f9d602c836136b1565b9150612fa882613c0b565b604082019050919050565b6000612fc06038836136b1565b9150612fcb82613c5a565b604082019050919050565b6000612fe3602a836136b1565b9150612fee82613ca9565b604082019050919050565b60006130066029836136b1565b915061301182613cf8565b604082019050919050565b6000613029602e836136b1565b915061303482613d47565b604082019050919050565b600061304c6012836136b1565b915061305782613d96565b602082019050919050565b600061306f6020836136b1565b915061307a82613dbf565b602082019050919050565b60006130926031836136b1565b915061309d82613de8565b604082019050919050565b60006130b56019836136b1565b91506130c082613e37565b602082019050919050565b60006130d8602c836136b1565b91506130e382613e60565b604082019050919050565b60006130fb6020836136b1565b915061310682613eaf565b602082019050919050565b600061311e600e836136b1565b915061312982613ed8565b602082019050919050565b6000613141602f836136b1565b915061314c82613f01565b604082019050919050565b60006131646021836136b1565b915061316f82613f50565b604082019050919050565b60006131876031836136b1565b915061319282613f9f565b604082019050919050565b60006131aa601f836136b1565b91506131b582613fee565b602082019050919050565b7f2f00000000000000000000000000000000000000000000000000000000000000815250565b6131ef8161385e565b82525050565b60006132018285612db2565b915061320c826131c0565b60018201915061321c8284612d81565b91508190509392505050565b60006132348285612e6a565b91506132408284612e6a565b91508190509392505050565b60006020820190506132616000830184612d2a565b92915050565b600060808201905061327c6000830187612d2a565b6132896020830186612d2a565b61329660408301856131e6565b81810360608301526132a88184612d48565b905095945050505050565b60006040820190506132c86000830185612d2a565b6132d560208301846131e6565b9392505050565b60006020820190506132f16000830184612d39565b92915050565b600060208201905081810360008301526133118184612e31565b905092915050565b6000602082019050818103600083015261333281612e9b565b9050919050565b6000602082019050818103600083015261335281612ebe565b9050919050565b6000602082019050818103600083015261337281612ee1565b9050919050565b6000602082019050818103600083015261339281612f04565b9050919050565b600060208201905081810360008301526133b281612f27565b9050919050565b600060208201905081810360008301526133d281612f4a565b9050919050565b600060208201905081810360008301526133f281612f6d565b9050919050565b6000602082019050818103600083015261341281612f90565b9050919050565b6000602082019050818103600083015261343281612fb3565b9050919050565b6000602082019050818103600083015261345281612fd6565b9050919050565b6000602082019050818103600083015261347281612ff9565b9050919050565b600060208201905081810360008301526134928161301c565b9050919050565b600060208201905081810360008301526134b28161303f565b9050919050565b600060208201905081810360008301526134d281613062565b9050919050565b600060208201905081810360008301526134f281613085565b9050919050565b60006020820190508181036000830152613512816130a8565b9050919050565b60006020820190508181036000830152613532816130cb565b9050919050565b60006020820190508181036000830152613552816130ee565b9050919050565b6000602082019050818103600083015261357281613111565b9050919050565b6000602082019050818103600083015261359281613134565b9050919050565b600060208201905081810360008301526135b281613157565b9050919050565b600060208201905081810360008301526135d28161317a565b9050919050565b600060208201905081810360008301526135f28161319d565b9050919050565b600060208201905061360e60008301846131e6565b92915050565b600061361e61362f565b905061362a82826138dc565b919050565b6000604051905090565b600067ffffffffffffffff82111561365457613653613a14565b5b61365d82613a43565b9050602081019050919050565b60008190508160005260206000209050919050565b600081519050919050565b600081519050919050565b600082825260208201905092915050565b600081905092915050565b600082825260208201905092915050565b600081905092915050565b60006136d88261385e565b91506136e38361385e565b9250827fffffffffffffffffffffffffffffffffffffffffffffffffffffffffffffffff0382111561371857613717613987565b5b828201905092915050565b600061372e8261385e565b91506137398361385e565b925082613749576137486139b6565b5b828204905092915050565b600061375f8261385e565b915061376a8361385e565b9250817fffffffffffffffffffffffffffffffffffffffffffffffffffffffffffffffff04831182151516156137a3576137a2613987565b5b828202905092915050565b60006137b98261385e565b91506137c48361385e565b9250828210156137d7576137d6613987565b5b828203905092915050565b60006137ed8261383e565b9050919050565b60008115159050919050565b60007fffffffff0000000000000000000000000000000000000000000000000000000082169050919050565b6000613837826137e2565b9050919050565b600073ffffffffffffffffffffffffffffffffffffffff82169050919050565b6000819050919050565b82818337600083830152505050565b60005b8381101561389557808201518184015260208101905061387a565b838111156138a4576000848401525b50505050565b600060028204905060018216806138c257607f821691505b602082108114156138d6576138d56139e5565b5b50919050565b6138e582613a43565b810181811067ffffffffffffffff8211171561390457613903613a14565b5b80604052505050565b60006139188261385e565b91507fffffffffffffffffffffffffffffffffffffffffffffffffffffffffffffffff82141561394b5761394a613987565b5b600182019050919050565b60006139618261385e565b915061396c8361385e565b92508261397c5761397b6139b6565b5b828206905092915050565b7f4e487b7100000000000000000000000000000000000000000000000000000000600052601160045260246000fd5b7f4e487b7100000000000000000000000000000000000000000000000000000000600052601260045260246000fd5b7f4e487b7100000000000000000000000000000000000000000000000000000000600052602260045260246000fd5b7f4e487b7100000000000000000000000000000000000000000000000000000000600052604160045260246000fd5b6000601f19601f8301169050919050565b7f4552433732313a207472616e7366657220746f206e6f6e20455243373231526560008201527f63656976657220696d706c656d656e7465720000000000000000000000000000602082015250565b7f4f776e61626c653a206e6577206f776e657220697320746865207a65726f206160008201527f6464726573730000000000000000000000000000000000000000000000000000602082015250565b7f4552433732313a207472616e736665722066726f6d20696e636f72726563742060008201527f6f776e6572000000000000000000000000000000000000000000000000000000602082015250565b7f4552433732313a20746f6b656e20616c7265616479206d696e74656400000000600082015250565b7f4552433732313a207472616e7366657220746f20746865207a65726f2061646460008201527f7265737300000000000000000000000000000000000000000000000000000000602082015250565b7f4552433732313a20617070726f766520746f2063616c6c657200000000000000600082015250565b7f536f7272792c20706175736564206d696e74696e67203a280000000000000000600082015250565b7f4552433732313a206f70657261746f7220717565727920666f72206e6f6e657860008201527f697374656e7420746f6b656e0000000000000000000000000000000000000000602082015250565b7f4552433732313a20617070726f76652063616c6c6572206973206e6f74206f7760008201527f6e6572206e6f7220617070726f76656420666f7220616c6c0000000000000000602082015250565b7f4552433732313a2062616c616e636520717565727920666f7220746865207a6560008201527f726f206164647265737300000000000000000000000000000000000000000000602082015250565b7f4552433732313a206f776e657220717565727920666f72206e6f6e657869737460008201527f656e7420746f6b656e0000000000000000000000000000000000000000000000602082015250565b7f45524337323155524953746f726167653a2055524920736574206f66206e6f6e60008201527f6578697374656e7420746f6b656e000000000000000000000000000000000000602082015250565b7f496e737566696369656e7420616d6f756e740000000000000000000000000000600082015250565b7f4552433732313a206d696e7420746f20746865207a65726f2061646472657373600082015250565b7f45524337323155524953746f726167653a2055524920717565727920666f722060008201527f6e6f6e6578697374656e7420746f6b656e000000000000000000000000000000602082015250565b7f43616e277420657863656564204d41585f454c454d454e545300000000000000600082015250565b7f4552433732313a20617070726f76656420717565727920666f72206e6f6e657860008201527f697374656e7420746f6b656e0000000000000000000000000000000000000000602082015250565b7f4f776e61626c653a2063616c6c6572206973206e6f7420746865206f776e6572600082015250565b7f4d6178656420667265656d696e74000000000000000000000000000000000000600082015250565b7f4552433732314d657461646174613a2055524920717565727920666f72206e6f60008201527f6e6578697374656e7420746f6b656e0000000000000000000000000000000000602082015250565b7f4552433732313a20617070726f76616c20746f2063757272656e74206f776e6560008201527f7200000000000000000000000000000000000000000000000000000000000000602082015250565b7f4552433732313a207472616e736665722063616c6c6572206973206e6f74206f60008201527f776e6572206e6f7220617070726f766564000000000000000000000000000000602082015250565b7f5265656e7472616e637947756172643a207265656e7472616e742063616c6c00600082015250565b614020816137e2565b811461402b57600080fd5b50565b614037816137f4565b811461404257600080fd5b50565b61404e81613800565b811461405957600080fd5b50565b6140658161382c565b811461407057600080fd5b50565b61407c8161385e565b811461408757600080fd5b5056fea2646970667358221220a3adcfb0208d4d4f89f67875f485e8f07b267b7741f72eaad83050305e0cfd1664736f6c63430008040033",
  "linkReferences": {},
  "deployedLinkReferences": {}
}