{
  "_format": "hh-sol-artifact-1",
  "contractName": "NFT",
  "sourceName": "contracts/NFT.sol",
  "abi": [
    {
      "inputs": [
        {
          "internalType": "string",
          "name": "_name",
          "type": "string"
        },
        {
          "internalType": "string",
          "name": "_symbol",
          "type": "string"
        },
        {
          "internalType": "string",
          "name": "_BASE_TOKEN_URI",
          "type": "string"
        },
        {
          "internalType": "uint256",
          "name": "_MAX_ELEMENTS",
          "type": "uint256"
        },
        {
          "internalType": "address",
          "name": "_proxyRegistryAddress",
          "type": "address"
        }
      ],
      "stateMutability": "nonpayable",
      "type": "constructor"
    },
    {
      "anonymous": false,
      "inputs": [
        {
          "indexed": true,
          "internalType": "address",
          "name": "owner",
          "type": "address"
        },
        {
          "indexed": true,
          "internalType": "address",
          "name": "approved",
          "type": "address"
        },
        {
          "indexed": true,
          "internalType": "uint256",
          "name": "tokenId",
          "type": "uint256"
        }
      ],
      "name": "Approval",
      "type": "event"
    },
    {
      "anonymous": false,
      "inputs": [
        {
          "indexed": true,
          "internalType": "address",
          "name": "owner",
          "type": "address"
        },
        {
          "indexed": true,
          "internalType": "address",
          "name": "operator",
          "type": "address"
        },
        {
          "indexed": false,
          "internalType": "bool",
          "name": "approved",
          "type": "bool"
        }
      ],
      "name": "ApprovalForAll",
      "type": "event"
    },
    {
      "anonymous": false,
      "inputs": [
        {
          "indexed": true,
          "internalType": "address",
          "name": "previousOwner",
          "type": "address"
        },
        {
          "indexed": true,
          "internalType": "address",
          "name": "newOwner",
          "type": "address"
        }
      ],
      "name": "OwnershipTransferred",
      "type": "event"
    },
    {
      "anonymous": false,
      "inputs": [
        {
          "indexed": true,
          "internalType": "address",
          "name": "from",
          "type": "address"
        },
        {
          "indexed": true,
          "internalType": "address",
          "name": "to",
          "type": "address"
        },
        {
          "indexed": true,
          "internalType": "uint256",
          "name": "tokenId",
          "type": "uint256"
        }
      ],
      "name": "Transfer",
      "type": "event"
    },
    {
      "inputs": [
        {
          "internalType": "address",
          "name": "to",
          "type": "address"
        },
        {
          "internalType": "uint256",
          "name": "tokenId",
          "type": "uint256"
        }
      ],
      "name": "approve",
      "outputs": [],
      "stateMutability": "nonpayable",
      "type": "function"
    },
    {
      "inputs": [
        {
          "internalType": "address",
          "name": "owner",
          "type": "address"
        }
      ],
      "name": "balanceOf",
      "outputs": [
        {
          "internalType": "uint256",
          "name": "",
          "type": "uint256"
        }
      ],
      "stateMutability": "view",
      "type": "function"
    },
    {
      "inputs": [],
      "name": "baseTokenURI",
      "outputs": [
        {
          "internalType": "string",
          "name": "",
          "type": "string"
        }
      ],
      "stateMutability": "view",
      "type": "function"
    },
    {
      "inputs": [
        {
          "internalType": "uint256",
          "name": "tokenId",
          "type": "uint256"
        }
      ],
      "name": "getApproved",
      "outputs": [
        {
          "internalType": "address",
          "name": "",
          "type": "address"
        }
      ],
      "stateMutability": "view",
      "type": "function"
    },
    {
      "inputs": [],
      "name": "getMaxElements",
      "outputs": [
        {
          "internalType": "uint256",
          "name": "",
          "type": "uint256"
        }
      ],
      "stateMutability": "view",
      "type": "function"
    },
    {
      "inputs": [],
      "name": "getStatus",
      "outputs": [
        {
          "internalType": "bool",
          "name": "",
          "type": "bool"
        }
      ],
      "stateMutability": "view",
      "type": "function"
    },
    {
      "inputs": [
        {
          "internalType": "address",
          "name": "owner",
          "type": "address"
        },
        {
          "internalType": "address",
          "name": "operator",
          "type": "address"
        }
      ],
      "name": "isApprovedForAll",
      "outputs": [
        {
          "internalType": "bool",
          "name": "",
          "type": "bool"
        }
      ],
      "stateMutability": "view",
      "type": "function"
    },
    {
      "inputs": [
        {
          "internalType": "address",
          "name": "player",
          "type": "address"
        }
      ],
      "name": "mint",
      "outputs": [
        {
          "internalType": "uint256",
          "name": "",
          "type": "uint256"
        }
      ],
      "stateMutability": "nonpayable",
      "type": "function"
    },
    {
      "inputs": [],
      "name": "name",
      "outputs": [
        {
          "internalType": "string",
          "name": "",
          "type": "string"
        }
      ],
      "stateMutability": "view",
      "type": "function"
    },
    {
      "inputs": [],
      "name": "owner",
      "outputs": [
        {
          "internalType": "address",
          "name": "",
          "type": "address"
        }
      ],
      "stateMutability": "view",
      "type": "function"
    },
    {
      "inputs": [
        {
          "internalType": "uint256",
          "name": "tokenId",
          "type": "uint256"
        }
      ],
      "name": "ownerOf",
      "outputs": [
        {
          "internalType": "address",
          "name": "",
          "type": "address"
        }
      ],
      "stateMutability": "view",
      "type": "function"
    },
    {
      "inputs": [
        {
          "internalType": "bool",
          "name": "status",
          "type": "bool"
        }
      ],
      "name": "pause",
      "outputs": [],
      "stateMutability": "nonpayable",
      "type": "function"
    },
    {
      "inputs": [],
      "name": "renounceOwnership",
      "outputs": [],
      "stateMutability": "nonpayable",
      "type": "function"
    },
    {
      "inputs": [
        {
          "internalType": "address",
          "name": "from",
          "type": "address"
        },
        {
          "internalType": "address",
          "name": "to",
          "type": "address"
        },
        {
          "internalType": "uint256",
          "name": "tokenId",
          "type": "uint256"
        }
      ],
      "name": "safeTransferFrom",
      "outputs": [],
      "stateMutability": "nonpayable",
      "type": "function"
    },
    {
      "inputs": [
        {
          "internalType": "address",
          "name": "from",
          "type": "address"
        },
        {
          "internalType": "address",
          "name": "to",
          "type": "address"
        },
        {
          "internalType": "uint256",
          "name": "tokenId",
          "type": "uint256"
        },
        {
          "internalType": "bytes",
          "name": "_data",
          "type": "bytes"
        }
      ],
      "name": "safeTransferFrom",
      "outputs": [],
      "stateMutability": "nonpayable",
      "type": "function"
    },
    {
      "inputs": [
        {
          "internalType": "address",
          "name": "operator",
          "type": "address"
        },
        {
          "internalType": "bool",
          "name": "approved",
          "type": "bool"
        }
      ],
      "name": "setApprovalForAll",
      "outputs": [],
      "stateMutability": "nonpayable",
      "type": "function"
    },
    {
      "inputs": [
        {
          "internalType": "bytes4",
          "name": "interfaceId",
          "type": "bytes4"
        }
      ],
      "name": "supportsInterface",
      "outputs": [
        {
          "internalType": "bool",
          "name": "",
          "type": "bool"
        }
      ],
      "stateMutability": "view",
      "type": "function"
    },
    {
      "inputs": [],
      "name": "symbol",
      "outputs": [
        {
          "internalType": "string",
          "name": "",
          "type": "string"
        }
      ],
      "stateMutability": "view",
      "type": "function"
    },
    {
      "inputs": [
        {
          "internalType": "uint256",
          "name": "tokenId",
          "type": "uint256"
        }
      ],
      "name": "tokenURI",
      "outputs": [
        {
          "internalType": "string",
          "name": "",
          "type": "string"
        }
      ],
      "stateMutability": "view",
      "type": "function"
    },
    {
      "inputs": [
        {
          "internalType": "address",
          "name": "from",
          "type": "address"
        },
        {
          "internalType": "address",
          "name": "to",
          "type": "address"
        },
        {
          "internalType": "uint256",
          "name": "tokenId",
          "type": "uint256"
        }
      ],
      "name": "transferFrom",
      "outputs": [],
      "stateMutability": "nonpayable",
      "type": "function"
    },
    {
      "inputs": [
        {
          "internalType": "address",
          "name": "newOwner",
          "type": "address"
        }
      ],
      "name": "transferOwnership",
      "outputs": [],
      "stateMutability": "nonpayable",
      "type": "function"
    }
  ],
  "bytecode": "0x60806040526000600b60006101000a81548160ff0219169083151502179055503480156200002c57600080fd5b5060405162003bcf38038062003bcf8339818101604052810190620000529190620002fd565b848481600090805190602001906200006c929190620001ad565b50806001908051906020019062000085929190620001ad565b50505060006200009a620001a560201b60201c565b905080600760006101000a81548173ffffffffffffffffffffffffffffffffffffffff021916908373ffffffffffffffffffffffffffffffffffffffff1602179055508073ffffffffffffffffffffffffffffffffffffffff16600073ffffffffffffffffffffffffffffffffffffffff167f8be0079c531659141344cd1fd0a4f28419497f9722a3daafe3b4186f6b6457e060405160405180910390a35080600b60016101000a81548173ffffffffffffffffffffffffffffffffffffffff021916908373ffffffffffffffffffffffffffffffffffffffff16021790555082600a908051906020019062000192929190620001ad565b50816009819055505050505050620005ac565b600033905090565b828054620001bb906200049d565b90600052602060002090601f016020900481019282620001df57600085556200022b565b82601f10620001fa57805160ff19168380011785556200022b565b828001600101855582156200022b579182015b828111156200022a5782518255916020019190600101906200020d565b5b5090506200023a91906200023e565b5090565b5b80821115620002595760008160009055506001016200023f565b5090565b6000620002746200026e84620003f3565b620003ca565b9050828152602081018484840111156200028d57600080fd5b6200029a84828562000467565b509392505050565b600081519050620002b38162000578565b92915050565b600082601f830112620002cb57600080fd5b8151620002dd8482602086016200025d565b91505092915050565b600081519050620002f78162000592565b92915050565b600080600080600060a086880312156200031657600080fd5b600086015167ffffffffffffffff8111156200033157600080fd5b6200033f88828901620002b9565b955050602086015167ffffffffffffffff8111156200035d57600080fd5b6200036b88828901620002b9565b945050604086015167ffffffffffffffff8111156200038957600080fd5b6200039788828901620002b9565b9350506060620003aa88828901620002e6565b9250506080620003bd88828901620002a2565b9150509295509295909350565b6000620003d6620003e9565b9050620003e48282620004d3565b919050565b6000604051905090565b600067ffffffffffffffff82111562000411576200041062000538565b5b6200041c8262000567565b9050602081019050919050565b600062000436826200043d565b9050919050565b600073ffffffffffffffffffffffffffffffffffffffff82169050919050565b6000819050919050565b60005b83811015620004875780820151818401526020810190506200046a565b8381111562000497576000848401525b50505050565b60006002820490506001821680620004b657607f821691505b60208210811415620004cd57620004cc62000509565b5b50919050565b620004de8262000567565b810181811067ffffffffffffffff821117156200050057620004ff62000538565b5b80604052505050565b7f4e487b7100000000000000000000000000000000000000000000000000000000600052602260045260246000fd5b7f4e487b7100000000000000000000000000000000000000000000000000000000600052604160045260246000fd5b6000601f19601f8301169050919050565b620005838162000429565b81146200058f57600080fd5b50565b6200059d816200045d565b8114620005a957600080fd5b50565b61361380620005bc6000396000f3fe608060405234801561001057600080fd5b50600436106101375760003560e01c80636a627842116100b8578063a22cb4651161007c578063a22cb4651461033c578063b88d4fde14610358578063c87b56dd14610374578063d547cfb7146103a4578063e985e9c5146103c2578063f2fde38b146103f257610137565b80636a6278421461029657806370a08231146102c6578063715018a6146102f65780638da5cb5b1461030057806395d89b411461031e57610137565b806323b872dd116100ff57806323b872dd146101f2578063368e167a1461020e57806342842e0e1461022c5780634e69d560146102485780636352211e1461026657610137565b806301ffc9a71461013c57806302329a291461016c57806306fdde0314610188578063081812fc146101a6578063095ea7b3146101d6575b600080fd5b610156600480360381019061015191906123a0565b61040e565b6040516101639190612964565b60405180910390f35b61018660048036038101906101819190612377565b6104f0565b005b610190610589565b60405161019d919061297f565b60405180910390f35b6101c060048036038101906101bb919061241b565b61061b565b6040516101cd91906128fd565b60405180910390f35b6101f060048036038101906101eb919061233b565b6106a0565b005b61020c60048036038101906102079190612235565b6107b8565b005b610216610818565b6040516102239190612c21565b60405180910390f35b61024660048036038101906102419190612235565b610822565b005b610250610842565b60405161025d9190612964565b60405180910390f35b610280600480360381019061027b919061241b565b610859565b60405161028d91906128fd565b60405180910390f35b6102b060048036038101906102ab91906121d0565b61090b565b6040516102bd9190612c21565b60405180910390f35b6102e060048036038101906102db91906121d0565b610a67565b6040516102ed9190612c21565b60405180910390f35b6102fe610b1f565b005b610308610c5c565b60405161031591906128fd565b60405180910390f35b610326610c86565b604051610333919061297f565b60405180910390f35b610356600480360381019061035191906122ff565b610d18565b005b610372600480360381019061036d9190612284565b610e99565b005b61038e6004803603810190610389919061241b565b610efb565b60405161039b919061297f565b60405180910390f35b6103ac61104d565b6040516103b9919061297f565b60405180910390f35b6103dc60048036038101906103d791906121f9565b6110df565b6040516103e99190612964565b60405180910390f35b61040c600480360381019061040791906121d0565b6111e1565b005b60007f80ac58cd000000000000000000000000000000000000000000000000000000007bffffffffffffffffffffffffffffffffffffffffffffffffffffffff1916827bffffffffffffffffffffffffffffffffffffffffffffffffffffffff191614806104d957507f5b5e139f000000000000000000000000000000000000000000000000000000007bffffffffffffffffffffffffffffffffffffffffffffffffffffffff1916827bffffffffffffffffffffffffffffffffffffffffffffffffffffffff1916145b806104e957506104e88261138d565b5b9050919050565b6104f86113f7565b73ffffffffffffffffffffffffffffffffffffffff16610516610c5c565b73ffffffffffffffffffffffffffffffffffffffff161461056c576040517f08c379a000000000000000000000000000000000000000000000000000000000815260040161056390612b81565b60405180910390fd5b80600b60006101000a81548160ff02191690831515021790555050565b60606000805461059890612e78565b80601f01602080910402602001604051908101604052809291908181526020018280546105c490612e78565b80156106115780601f106105e657610100808354040283529160200191610611565b820191906000526020600020905b8154815290600101906020018083116105f457829003601f168201915b5050505050905090565b6000610626826113ff565b610665576040517f08c379a000000000000000000000000000000000000000000000000000000000815260040161065c90612b61565b60405180910390fd5b6004600083815260200190815260200160002060009054906101000a900473ffffffffffffffffffffffffffffffffffffffff169050919050565b60006106ab82610859565b90508073ffffffffffffffffffffffffffffffffffffffff168373ffffffffffffffffffffffffffffffffffffffff16141561071c576040517f08c379a000000000000000000000000000000000000000000000000000000000815260040161071390612be1565b60405180910390fd5b8073ffffffffffffffffffffffffffffffffffffffff1661073b6113f7565b73ffffffffffffffffffffffffffffffffffffffff16148061076a5750610769816107646113f7565b6110df565b5b6107a9576040517f08c379a00000000000000000000000000000000000000000000000000000000081526004016107a090612a81565b60405180910390fd5b6107b3838361146b565b505050565b6107c96107c36113f7565b82611524565b610808576040517f08c379a00000000000000000000000000000000000000000000000000000000081526004016107ff90612c01565b60405180910390fd5b610813838383611602565b505050565b6000600954905090565b61083d83838360405180602001604052806000815250610e99565b505050565b6000600b60009054906101000a900460ff16905090565b6000806002600084815260200190815260200160002060009054906101000a900473ffffffffffffffffffffffffffffffffffffffff169050600073ffffffffffffffffffffffffffffffffffffffff168173ffffffffffffffffffffffffffffffffffffffff161415610902576040517f08c379a00000000000000000000000000000000000000000000000000000000081526004016108f990612ac1565b60405180910390fd5b80915050919050565b600060095461091a600861185e565b1061095a576040517f08c379a000000000000000000000000000000000000000000000000000000000815260040161095190612b41565b60405180910390fd5b60001515600b60009054906101000a900460ff161515146109b0576040517f08c379a00000000000000000000000000000000000000000000000000000000081526004016109a790612a41565b60405180910390fd5b6109ba600861186c565b60006109c6600861185e565b90506001600c60003373ffffffffffffffffffffffffffffffffffffffff1673ffffffffffffffffffffffffffffffffffffffff16815260200190815260200160002060006101000a81548160ff021916908315150217905550610a2a8382611882565b610a5e81600a610a39846118a0565b604051602001610a4a9291906128a6565b604051602081830303815290604052611a4d565b80915050919050565b60008073ffffffffffffffffffffffffffffffffffffffff168273ffffffffffffffffffffffffffffffffffffffff161415610ad8576040517f08c379a0000000000000000000000000000000000000000000000000000000008152600401610acf90612aa1565b60405180910390fd5b600360008373ffffffffffffffffffffffffffffffffffffffff1673ffffffffffffffffffffffffffffffffffffffff168152602001908152602001600020549050919050565b610b276113f7565b73ffffffffffffffffffffffffffffffffffffffff16610b45610c5c565b73ffffffffffffffffffffffffffffffffffffffff1614610b9b576040517f08c379a0000000000000000000000000000000000000000000000000000000008152600401610b9290612b81565b60405180910390fd5b600073ffffffffffffffffffffffffffffffffffffffff16600760009054906101000a900473ffffffffffffffffffffffffffffffffffffffff1673ffffffffffffffffffffffffffffffffffffffff167f8be0079c531659141344cd1fd0a4f28419497f9722a3daafe3b4186f6b6457e060405160405180910390a36000600760006101000a81548173ffffffffffffffffffffffffffffffffffffffff021916908373ffffffffffffffffffffffffffffffffffffffff160217905550565b6000600760009054906101000a900473ffffffffffffffffffffffffffffffffffffffff16905090565b606060018054610c9590612e78565b80601f0160208091040260200160405190810160405280929190818152602001828054610cc190612e78565b8015610d0e5780601f10610ce357610100808354040283529160200191610d0e565b820191906000526020600020905b815481529060010190602001808311610cf157829003601f168201915b5050505050905090565b610d206113f7565b73ffffffffffffffffffffffffffffffffffffffff168273ffffffffffffffffffffffffffffffffffffffff161415610d8e576040517f08c379a0000000000000000000000000000000000000000000000000000000008152600401610d8590612a21565b60405180910390fd5b8060056000610d9b6113f7565b73ffffffffffffffffffffffffffffffffffffffff1673ffffffffffffffffffffffffffffffffffffffff16815260200190815260200160002060008473ffffffffffffffffffffffffffffffffffffffff1673ffffffffffffffffffffffffffffffffffffffff16815260200190815260200160002060006101000a81548160ff0219169083151502179055508173ffffffffffffffffffffffffffffffffffffffff16610e486113f7565b73ffffffffffffffffffffffffffffffffffffffff167f17307eab39ab6107e8899845ad3d59bd9653f200f220920489ca2b5937696c3183604051610e8d9190612964565b60405180910390a35050565b610eaa610ea46113f7565b83611524565b610ee9576040517f08c379a0000000000000000000000000000000000000000000000000000000008152600401610ee090612c01565b60405180910390fd5b610ef584848484611ac1565b50505050565b6060610f06826113ff565b610f45576040517f08c379a0000000000000000000000000000000000000000000000000000000008152600401610f3c90612b21565b60405180910390fd5b6000600660008481526020019081526020016000208054610f6590612e78565b80601f0160208091040260200160405190810160405280929190818152602001828054610f9190612e78565b8015610fde5780601f10610fb357610100808354040283529160200191610fde565b820191906000526020600020905b815481529060010190602001808311610fc157829003601f168201915b505050505090506000610fef611b1d565b9050600081511415611005578192505050611048565b60008251111561103a5780826040516020016110229291906128d9565b60405160208183030381529060405292505050611048565b61104384611b34565b925050505b919050565b6060600a805461105c90612e78565b80601f016020809104026020016040519081016040528092919081815260200182805461108890612e78565b80156110d55780601f106110aa576101008083540402835291602001916110d5565b820191906000526020600020905b8154815290600101906020018083116110b857829003601f168201915b5050505050905090565b600080600b60019054906101000a900473ffffffffffffffffffffffffffffffffffffffff1690508273ffffffffffffffffffffffffffffffffffffffff168173ffffffffffffffffffffffffffffffffffffffff1663c4552791866040518263ffffffff1660e01b815260040161115791906128fd565b60206040518083038186803b15801561116f57600080fd5b505afa158015611183573d6000803e3d6000fd5b505050506040513d601f19601f820116820180604052508101906111a791906123f2565b73ffffffffffffffffffffffffffffffffffffffff1614156111cd5760019150506111db565b6111d78484611bdb565b9150505b92915050565b6111e96113f7565b73ffffffffffffffffffffffffffffffffffffffff16611207610c5c565b73ffffffffffffffffffffffffffffffffffffffff161461125d576040517f08c379a000000000000000000000000000000000000000000000000000000000815260040161125490612b81565b60405180910390fd5b600073ffffffffffffffffffffffffffffffffffffffff168173ffffffffffffffffffffffffffffffffffffffff1614156112cd576040517f08c379a00000000000000000000000000000000000000000000000000000000081526004016112c4906129c1565b60405180910390fd5b8073ffffffffffffffffffffffffffffffffffffffff16600760009054906101000a900473ffffffffffffffffffffffffffffffffffffffff1673ffffffffffffffffffffffffffffffffffffffff167f8be0079c531659141344cd1fd0a4f28419497f9722a3daafe3b4186f6b6457e060405160405180910390a380600760006101000a81548173ffffffffffffffffffffffffffffffffffffffff021916908373ffffffffffffffffffffffffffffffffffffffff16021790555050565b60007f01ffc9a7000000000000000000000000000000000000000000000000000000007bffffffffffffffffffffffffffffffffffffffffffffffffffffffff1916827bffffffffffffffffffffffffffffffffffffffffffffffffffffffff1916149050919050565b600033905090565b60008073ffffffffffffffffffffffffffffffffffffffff166002600084815260200190815260200160002060009054906101000a900473ffffffffffffffffffffffffffffffffffffffff1673ffffffffffffffffffffffffffffffffffffffff1614159050919050565b816004600083815260200190815260200160002060006101000a81548173ffffffffffffffffffffffffffffffffffffffff021916908373ffffffffffffffffffffffffffffffffffffffff160217905550808273ffffffffffffffffffffffffffffffffffffffff166114de83610859565b73ffffffffffffffffffffffffffffffffffffffff167f8c5be1e5ebec7d5bd14f71427d1e84f3dd0314c0f7b2291e5b200ac8c7c3b92560405160405180910390a45050565b600061152f826113ff565b61156e576040517f08c379a000000000000000000000000000000000000000000000000000000000815260040161156590612a61565b60405180910390fd5b600061157983610859565b90508073ffffffffffffffffffffffffffffffffffffffff168473ffffffffffffffffffffffffffffffffffffffff1614806115e857508373ffffffffffffffffffffffffffffffffffffffff166115d08461061b565b73ffffffffffffffffffffffffffffffffffffffff16145b806115f957506115f881856110df565b5b91505092915050565b8273ffffffffffffffffffffffffffffffffffffffff1661162282610859565b73ffffffffffffffffffffffffffffffffffffffff1614611678576040517f08c379a000000000000000000000000000000000000000000000000000000000815260040161166f90612ba1565b60405180910390fd5b600073ffffffffffffffffffffffffffffffffffffffff168273ffffffffffffffffffffffffffffffffffffffff1614156116e8576040517f08c379a00000000000000000000000000000000000000000000000000000000081526004016116df90612a01565b60405180910390fd5b6116f3838383611c6f565b6116fe60008261146b565b6001600360008573ffffffffffffffffffffffffffffffffffffffff1673ffffffffffffffffffffffffffffffffffffffff168152602001908152602001600020600082825461174e9190612d7c565b925050819055506001600360008473ffffffffffffffffffffffffffffffffffffffff1673ffffffffffffffffffffffffffffffffffffffff16815260200190815260200160002060008282546117a59190612cf5565b92505081905550816002600083815260200190815260200160002060006101000a81548173ffffffffffffffffffffffffffffffffffffffff021916908373ffffffffffffffffffffffffffffffffffffffff160217905550808273ffffffffffffffffffffffffffffffffffffffff168473ffffffffffffffffffffffffffffffffffffffff167fddf252ad1be2c89b69c2b068fc378daa952ba7f163c4a11628f55a4df523b3ef60405160405180910390a4505050565b600081600001549050919050565b6001816000016000828254019250508190555050565b61189c828260405180602001604052806000815250611c74565b5050565b606060008214156118e8576040518060400160405280600181526020017f30000000000000000000000000000000000000000000000000000000000000008152509050611a48565b600082905060005b6000821461191a57808061190390612edb565b915050600a826119139190612d4b565b91506118f0565b60008167ffffffffffffffff81111561195c577f4e487b7100000000000000000000000000000000000000000000000000000000600052604160045260246000fd5b6040519080825280601f01601f19166020018201604052801561198e5781602001600182028036833780820191505090505b5090505b60008514611a41576001826119a79190612d7c565b9150600a856119b69190612f24565b60306119c29190612cf5565b60f81b8183815181106119fe577f4e487b7100000000000000000000000000000000000000000000000000000000600052603260045260246000fd5b60200101907effffffffffffffffffffffffffffffffffffffffffffffffffffffffffffff1916908160001a905350600a85611a3a9190612d4b565b9450611992565b8093505050505b919050565b611a56826113ff565b611a95576040517f08c379a0000000000000000000000000000000000000000000000000000000008152600401611a8c90612ae1565b60405180910390fd5b80600660008481526020019081526020016000209080519060200190611abc929190612047565b505050565b611acc848484611602565b611ad884848484611ccf565b611b17576040517f08c379a0000000000000000000000000000000000000000000000000000000008152600401611b0e906129a1565b60405180910390fd5b50505050565b606060405180602001604052806000815250905090565b6060611b3f826113ff565b611b7e576040517f08c379a0000000000000000000000000000000000000000000000000000000008152600401611b7590612bc1565b60405180910390fd5b6000611b88611b1d565b90506000815111611ba85760405180602001604052806000815250611bd3565b80611bb2846118a0565b604051602001611bc39291906128d9565b6040516020818303038152906040525b915050919050565b6000600560008473ffffffffffffffffffffffffffffffffffffffff1673ffffffffffffffffffffffffffffffffffffffff16815260200190815260200160002060008373ffffffffffffffffffffffffffffffffffffffff1673ffffffffffffffffffffffffffffffffffffffff16815260200190815260200160002060009054906101000a900460ff16905092915050565b505050565b611c7e8383611e66565b611c8b6000848484611ccf565b611cca576040517f08c379a0000000000000000000000000000000000000000000000000000000008152600401611cc1906129a1565b60405180910390fd5b505050565b6000611cf08473ffffffffffffffffffffffffffffffffffffffff16612034565b15611e59578373ffffffffffffffffffffffffffffffffffffffff1663150b7a02611d196113f7565b8786866040518563ffffffff1660e01b8152600401611d3b9493929190612918565b602060405180830381600087803b158015611d5557600080fd5b505af1925050508015611d8657506040513d601f19601f82011682018060405250810190611d8391906123c9565b60015b611e09573d8060008114611db6576040519150601f19603f3d011682016040523d82523d6000602084013e611dbb565b606091505b50600081511415611e01576040517f08c379a0000000000000000000000000000000000000000000000000000000008152600401611df8906129a1565b60405180910390fd5b805181602001fd5b63150b7a0260e01b7bffffffffffffffffffffffffffffffffffffffffffffffffffffffff1916817bffffffffffffffffffffffffffffffffffffffffffffffffffffffff191614915050611e5e565b600190505b949350505050565b600073ffffffffffffffffffffffffffffffffffffffff168273ffffffffffffffffffffffffffffffffffffffff161415611ed6576040517f08c379a0000000000000000000000000000000000000000000000000000000008152600401611ecd90612b01565b60405180910390fd5b611edf816113ff565b15611f1f576040517f08c379a0000000000000000000000000000000000000000000000000000000008152600401611f16906129e1565b60405180910390fd5b611f2b60008383611c6f565b6001600360008473ffffffffffffffffffffffffffffffffffffffff1673ffffffffffffffffffffffffffffffffffffffff1681526020019081526020016000206000828254611f7b9190612cf5565b92505081905550816002600083815260200190815260200160002060006101000a81548173ffffffffffffffffffffffffffffffffffffffff021916908373ffffffffffffffffffffffffffffffffffffffff160217905550808273ffffffffffffffffffffffffffffffffffffffff16600073ffffffffffffffffffffffffffffffffffffffff167fddf252ad1be2c89b69c2b068fc378daa952ba7f163c4a11628f55a4df523b3ef60405160405180910390a45050565b600080823b905060008111915050919050565b82805461205390612e78565b90600052602060002090601f01602090048101928261207557600085556120bc565b82601f1061208e57805160ff19168380011785556120bc565b828001600101855582156120bc579182015b828111156120bb5782518255916020019190600101906120a0565b5b5090506120c991906120cd565b5090565b5b808211156120e65760008160009055506001016120ce565b5090565b60006120fd6120f884612c61565b612c3c565b90508281526020810184848401111561211557600080fd5b612120848285612e36565b509392505050565b6000813590506121378161356a565b92915050565b60008135905061214c81613581565b92915050565b60008135905061216181613598565b92915050565b60008151905061217681613598565b92915050565b600082601f83011261218d57600080fd5b813561219d8482602086016120ea565b91505092915050565b6000815190506121b5816135af565b92915050565b6000813590506121ca816135c6565b92915050565b6000602082840312156121e257600080fd5b60006121f084828501612128565b91505092915050565b6000806040838503121561220c57600080fd5b600061221a85828601612128565b925050602061222b85828601612128565b9150509250929050565b60008060006060848603121561224a57600080fd5b600061225886828701612128565b935050602061226986828701612128565b925050604061227a868287016121bb565b9150509250925092565b6000806000806080858703121561229a57600080fd5b60006122a887828801612128565b94505060206122b987828801612128565b93505060406122ca878288016121bb565b925050606085013567ffffffffffffffff8111156122e757600080fd5b6122f38782880161217c565b91505092959194509250565b6000806040838503121561231257600080fd5b600061232085828601612128565b92505060206123318582860161213d565b9150509250929050565b6000806040838503121561234e57600080fd5b600061235c85828601612128565b925050602061236d858286016121bb565b9150509250929050565b60006020828403121561238957600080fd5b60006123978482850161213d565b91505092915050565b6000602082840312156123b257600080fd5b60006123c084828501612152565b91505092915050565b6000602082840312156123db57600080fd5b60006123e984828501612167565b91505092915050565b60006020828403121561240457600080fd5b6000612412848285016121a6565b91505092915050565b60006020828403121561242d57600080fd5b600061243b848285016121bb565b91505092915050565b61244d81612db0565b82525050565b61245c81612dc2565b82525050565b600061246d82612ca7565b6124778185612cbd565b9350612487818560208601612e45565b61249081613011565b840191505092915050565b60006124a682612ca7565b6124b08185612cce565b93506124c0818560208601612e45565b80840191505092915050565b600081546124d981612e78565b6124e38186612cce565b945060018216600081146124fe576001811461250f57612542565b60ff19831686528186019350612542565b61251885612c92565b60005b8381101561253a5781548189015260018201915060208101905061251b565b838801955050505b50505092915050565b600061255682612cb2565b6125608185612cd9565b9350612570818560208601612e45565b61257981613011565b840191505092915050565b600061258f82612cb2565b6125998185612cea565b93506125a9818560208601612e45565b80840191505092915050565b60006125c2603283612cd9565b91506125cd82613022565b604082019050919050565b60006125e5602683612cd9565b91506125f082613071565b604082019050919050565b6000612608601c83612cd9565b9150612613826130c0565b602082019050919050565b600061262b602483612cd9565b9150612636826130e9565b604082019050919050565b600061264e601983612cd9565b915061265982613138565b602082019050919050565b6000612671601883612cd9565b915061267c82613161565b602082019050919050565b6000612694602c83612cd9565b915061269f8261318a565b604082019050919050565b60006126b7603883612cd9565b91506126c2826131d9565b604082019050919050565b60006126da602a83612cd9565b91506126e582613228565b604082019050919050565b60006126fd602983612cd9565b915061270882613277565b604082019050919050565b6000612720602e83612cd9565b915061272b826132c6565b604082019050919050565b6000612743602083612cd9565b915061274e82613315565b602082019050919050565b6000612766603183612cd9565b91506127718261333e565b604082019050919050565b6000612789601983612cd9565b91506127948261338d565b602082019050919050565b60006127ac602c83612cd9565b91506127b7826133b6565b604082019050919050565b60006127cf602083612cd9565b91506127da82613405565b602082019050919050565b60006127f2602983612cd9565b91506127fd8261342e565b604082019050919050565b6000612815602f83612cd9565b91506128208261347d565b604082019050919050565b6000612838602183612cd9565b9150612843826134cc565b604082019050919050565b600061285b603183612cd9565b91506128668261351b565b604082019050919050565b7f2f00000000000000000000000000000000000000000000000000000000000000815250565b6128a081612e2c565b82525050565b60006128b282856124cc565b91506128bd82612871565b6001820191506128cd828461249b565b91508190509392505050565b60006128e58285612584565b91506128f18284612584565b91508190509392505050565b60006020820190506129126000830184612444565b92915050565b600060808201905061292d6000830187612444565b61293a6020830186612444565b6129476040830185612897565b81810360608301526129598184612462565b905095945050505050565b60006020820190506129796000830184612453565b92915050565b60006020820190508181036000830152612999818461254b565b905092915050565b600060208201905081810360008301526129ba816125b5565b9050919050565b600060208201905081810360008301526129da816125d8565b9050919050565b600060208201905081810360008301526129fa816125fb565b9050919050565b60006020820190508181036000830152612a1a8161261e565b9050919050565b60006020820190508181036000830152612a3a81612641565b9050919050565b60006020820190508181036000830152612a5a81612664565b9050919050565b60006020820190508181036000830152612a7a81612687565b9050919050565b60006020820190508181036000830152612a9a816126aa565b9050919050565b60006020820190508181036000830152612aba816126cd565b9050919050565b60006020820190508181036000830152612ada816126f0565b9050919050565b60006020820190508181036000830152612afa81612713565b9050919050565b60006020820190508181036000830152612b1a81612736565b9050919050565b60006020820190508181036000830152612b3a81612759565b9050919050565b60006020820190508181036000830152612b5a8161277c565b9050919050565b60006020820190508181036000830152612b7a8161279f565b9050919050565b60006020820190508181036000830152612b9a816127c2565b9050919050565b60006020820190508181036000830152612bba816127e5565b9050919050565b60006020820190508181036000830152612bda81612808565b9050919050565b60006020820190508181036000830152612bfa8161282b565b9050919050565b60006020820190508181036000830152612c1a8161284e565b9050919050565b6000602082019050612c366000830184612897565b92915050565b6000612c46612c57565b9050612c528282612eaa565b919050565b6000604051905090565b600067ffffffffffffffff821115612c7c57612c7b612fe2565b5b612c8582613011565b9050602081019050919050565b60008190508160005260206000209050919050565b600081519050919050565b600081519050919050565b600082825260208201905092915050565b600081905092915050565b600082825260208201905092915050565b600081905092915050565b6000612d0082612e2c565b9150612d0b83612e2c565b9250827fffffffffffffffffffffffffffffffffffffffffffffffffffffffffffffffff03821115612d4057612d3f612f55565b5b828201905092915050565b6000612d5682612e2c565b9150612d6183612e2c565b925082612d7157612d70612f84565b5b828204905092915050565b6000612d8782612e2c565b9150612d9283612e2c565b925082821015612da557612da4612f55565b5b828203905092915050565b6000612dbb82612e0c565b9050919050565b60008115159050919050565b60007fffffffff0000000000000000000000000000000000000000000000000000000082169050919050565b6000612e0582612db0565b9050919050565b600073ffffffffffffffffffffffffffffffffffffffff82169050919050565b6000819050919050565b82818337600083830152505050565b60005b83811015612e63578082015181840152602081019050612e48565b83811115612e72576000848401525b50505050565b60006002820490506001821680612e9057607f821691505b60208210811415612ea457612ea3612fb3565b5b50919050565b612eb382613011565b810181811067ffffffffffffffff82111715612ed257612ed1612fe2565b5b80604052505050565b6000612ee682612e2c565b91507fffffffffffffffffffffffffffffffffffffffffffffffffffffffffffffffff821415612f1957612f18612f55565b5b600182019050919050565b6000612f2f82612e2c565b9150612f3a83612e2c565b925082612f4a57612f49612f84565b5b828206905092915050565b7f4e487b7100000000000000000000000000000000000000000000000000000000600052601160045260246000fd5b7f4e487b7100000000000000000000000000000000000000000000000000000000600052601260045260246000fd5b7f4e487b7100000000000000000000000000000000000000000000000000000000600052602260045260246000fd5b7f4e487b7100000000000000000000000000000000000000000000000000000000600052604160045260246000fd5b6000601f19601f8301169050919050565b7f4552433732313a207472616e7366657220746f206e6f6e20455243373231526560008201527f63656976657220696d706c656d656e7465720000000000000000000000000000602082015250565b7f4f776e61626c653a206e6577206f776e657220697320746865207a65726f206160008201527f6464726573730000000000000000000000000000000000000000000000000000602082015250565b7f4552433732313a20746f6b656e20616c7265616479206d696e74656400000000600082015250565b7f4552433732313a207472616e7366657220746f20746865207a65726f2061646460008201527f7265737300000000000000000000000000000000000000000000000000000000602082015250565b7f4552433732313a20617070726f766520746f2063616c6c657200000000000000600082015250565b7f536f7272792c20706175736564206d696e74696e67203a280000000000000000600082015250565b7f4552433732313a206f70657261746f7220717565727920666f72206e6f6e657860008201527f697374656e7420746f6b656e0000000000000000000000000000000000000000602082015250565b7f4552433732313a20617070726f76652063616c6c6572206973206e6f74206f7760008201527f6e6572206e6f7220617070726f76656420666f7220616c6c0000000000000000602082015250565b7f4552433732313a2062616c616e636520717565727920666f7220746865207a6560008201527f726f206164647265737300000000000000000000000000000000000000000000602082015250565b7f4552433732313a206f776e657220717565727920666f72206e6f6e657869737460008201527f656e7420746f6b656e0000000000000000000000000000000000000000000000602082015250565b7f45524337323155524953746f726167653a2055524920736574206f66206e6f6e60008201527f6578697374656e7420746f6b656e000000000000000000000000000000000000602082015250565b7f4552433732313a206d696e7420746f20746865207a65726f2061646472657373600082015250565b7f45524337323155524953746f726167653a2055524920717565727920666f722060008201527f6e6f6e6578697374656e7420746f6b656e000000000000000000000000000000602082015250565b7f43616e277420657863656564204d41585f454c454d454e545300000000000000600082015250565b7f4552433732313a20617070726f76656420717565727920666f72206e6f6e657860008201527f697374656e7420746f6b656e0000000000000000000000000000000000000000602082015250565b7f4f776e61626c653a2063616c6c6572206973206e6f7420746865206f776e6572600082015250565b7f4552433732313a207472616e73666572206f6620746f6b656e2074686174206960008201527f73206e6f74206f776e0000000000000000000000000000000000000000000000602082015250565b7f4552433732314d657461646174613a2055524920717565727920666f72206e6f60008201527f6e6578697374656e7420746f6b656e0000000000000000000000000000000000602082015250565b7f4552433732313a20617070726f76616c20746f2063757272656e74206f776e6560008201527f7200000000000000000000000000000000000000000000000000000000000000602082015250565b7f4552433732313a207472616e736665722063616c6c6572206973206e6f74206f60008201527f776e6572206e6f7220617070726f766564000000000000000000000000000000602082015250565b61357381612db0565b811461357e57600080fd5b50565b61358a81612dc2565b811461359557600080fd5b50565b6135a181612dce565b81146135ac57600080fd5b50565b6135b881612dfa565b81146135c357600080fd5b50565b6135cf81612e2c565b81146135da57600080fd5b5056fea264697066735822122031ef43ef974538a47487f490ada75578a146f6a4470808e99e7a0028ab66215a64736f6c63430008040033",
  "linkReferences": {},
  "deployedLinkReferences": {}
}