{
  "_format": "hh-sol-artifact-1",
  "contractName": "NFT",
  "sourceName": "contracts/NFT.sol",
  "abi": [
    {
      "inputs": [
        {
          "internalType": "string",
          "name": "_BASE_TOKEN_URI",
          "type": "string"
        },
        {
          "internalType": "uint256",
          "name": "_MAX_ELEMENTS",
          "type": "uint256"
        },
        {
          "internalType": "address",
          "name": "_proxyRegistryAddress",
          "type": "address"
        }
      ],
      "stateMutability": "nonpayable",
      "type": "constructor"
    },
    {
      "anonymous": false,
      "inputs": [
        {
          "indexed": true,
          "internalType": "address",
          "name": "owner",
          "type": "address"
        },
        {
          "indexed": true,
          "internalType": "address",
          "name": "approved",
          "type": "address"
        },
        {
          "indexed": true,
          "internalType": "uint256",
          "name": "tokenId",
          "type": "uint256"
        }
      ],
      "name": "Approval",
      "type": "event"
    },
    {
      "anonymous": false,
      "inputs": [
        {
          "indexed": true,
          "internalType": "address",
          "name": "owner",
          "type": "address"
        },
        {
          "indexed": true,
          "internalType": "address",
          "name": "operator",
          "type": "address"
        },
        {
          "indexed": false,
          "internalType": "bool",
          "name": "approved",
          "type": "bool"
        }
      ],
      "name": "ApprovalForAll",
      "type": "event"
    },
    {
      "anonymous": false,
      "inputs": [
        {
          "indexed": true,
          "internalType": "address",
          "name": "previousOwner",
          "type": "address"
        },
        {
          "indexed": true,
          "internalType": "address",
          "name": "newOwner",
          "type": "address"
        }
      ],
      "name": "OwnershipTransferred",
      "type": "event"
    },
    {
      "anonymous": false,
      "inputs": [
        {
          "indexed": true,
          "internalType": "address",
          "name": "from",
          "type": "address"
        },
        {
          "indexed": true,
          "internalType": "address",
          "name": "to",
          "type": "address"
        },
        {
          "indexed": true,
          "internalType": "uint256",
          "name": "tokenId",
          "type": "uint256"
        }
      ],
      "name": "Transfer",
      "type": "event"
    },
    {
      "inputs": [
        {
          "internalType": "address",
          "name": "to",
          "type": "address"
        },
        {
          "internalType": "uint256",
          "name": "tokenId",
          "type": "uint256"
        }
      ],
      "name": "approve",
      "outputs": [],
      "stateMutability": "nonpayable",
      "type": "function"
    },
    {
      "inputs": [
        {
          "internalType": "address",
          "name": "owner",
          "type": "address"
        }
      ],
      "name": "balanceOf",
      "outputs": [
        {
          "internalType": "uint256",
          "name": "",
          "type": "uint256"
        }
      ],
      "stateMutability": "view",
      "type": "function"
    },
    {
      "inputs": [],
      "name": "baseTokenURI",
      "outputs": [
        {
          "internalType": "string",
          "name": "",
          "type": "string"
        }
      ],
      "stateMutability": "view",
      "type": "function"
    },
    {
      "inputs": [
        {
          "internalType": "uint256",
          "name": "tokenId",
          "type": "uint256"
        }
      ],
      "name": "getApproved",
      "outputs": [
        {
          "internalType": "address",
          "name": "",
          "type": "address"
        }
      ],
      "stateMutability": "view",
      "type": "function"
    },
    {
      "inputs": [],
      "name": "getMaxElements",
      "outputs": [
        {
          "internalType": "uint256",
          "name": "",
          "type": "uint256"
        }
      ],
      "stateMutability": "view",
      "type": "function"
    },
    {
      "inputs": [],
      "name": "getStatus",
      "outputs": [
        {
          "internalType": "bool",
          "name": "",
          "type": "bool"
        }
      ],
      "stateMutability": "view",
      "type": "function"
    },
    {
      "inputs": [
        {
          "internalType": "address",
          "name": "owner",
          "type": "address"
        },
        {
          "internalType": "address",
          "name": "operator",
          "type": "address"
        }
      ],
      "name": "isApprovedForAll",
      "outputs": [
        {
          "internalType": "bool",
          "name": "",
          "type": "bool"
        }
      ],
      "stateMutability": "view",
      "type": "function"
    },
    {
      "inputs": [
        {
          "internalType": "address",
          "name": "player",
          "type": "address"
        }
      ],
      "name": "mint",
      "outputs": [
        {
          "internalType": "uint256",
          "name": "",
          "type": "uint256"
        }
      ],
      "stateMutability": "nonpayable",
      "type": "function"
    },
    {
      "inputs": [],
      "name": "name",
      "outputs": [
        {
          "internalType": "string",
          "name": "",
          "type": "string"
        }
      ],
      "stateMutability": "view",
      "type": "function"
    },
    {
      "inputs": [],
      "name": "owner",
      "outputs": [
        {
          "internalType": "address",
          "name": "",
          "type": "address"
        }
      ],
      "stateMutability": "view",
      "type": "function"
    },
    {
      "inputs": [
        {
          "internalType": "uint256",
          "name": "tokenId",
          "type": "uint256"
        }
      ],
      "name": "ownerOf",
      "outputs": [
        {
          "internalType": "address",
          "name": "",
          "type": "address"
        }
      ],
      "stateMutability": "view",
      "type": "function"
    },
    {
      "inputs": [
        {
          "internalType": "bool",
          "name": "status",
          "type": "bool"
        }
      ],
      "name": "pause",
      "outputs": [],
      "stateMutability": "nonpayable",
      "type": "function"
    },
    {
      "inputs": [],
      "name": "renounceOwnership",
      "outputs": [],
      "stateMutability": "nonpayable",
      "type": "function"
    },
    {
      "inputs": [
        {
          "internalType": "address",
          "name": "from",
          "type": "address"
        },
        {
          "internalType": "address",
          "name": "to",
          "type": "address"
        },
        {
          "internalType": "uint256",
          "name": "tokenId",
          "type": "uint256"
        }
      ],
      "name": "safeTransferFrom",
      "outputs": [],
      "stateMutability": "nonpayable",
      "type": "function"
    },
    {
      "inputs": [
        {
          "internalType": "address",
          "name": "from",
          "type": "address"
        },
        {
          "internalType": "address",
          "name": "to",
          "type": "address"
        },
        {
          "internalType": "uint256",
          "name": "tokenId",
          "type": "uint256"
        },
        {
          "internalType": "bytes",
          "name": "_data",
          "type": "bytes"
        }
      ],
      "name": "safeTransferFrom",
      "outputs": [],
      "stateMutability": "nonpayable",
      "type": "function"
    },
    {
      "inputs": [
        {
          "internalType": "address",
          "name": "operator",
          "type": "address"
        },
        {
          "internalType": "bool",
          "name": "approved",
          "type": "bool"
        }
      ],
      "name": "setApprovalForAll",
      "outputs": [],
      "stateMutability": "nonpayable",
      "type": "function"
    },
    {
      "inputs": [
        {
          "internalType": "bytes4",
          "name": "interfaceId",
          "type": "bytes4"
        }
      ],
      "name": "supportsInterface",
      "outputs": [
        {
          "internalType": "bool",
          "name": "",
          "type": "bool"
        }
      ],
      "stateMutability": "view",
      "type": "function"
    },
    {
      "inputs": [],
      "name": "symbol",
      "outputs": [
        {
          "internalType": "string",
          "name": "",
          "type": "string"
        }
      ],
      "stateMutability": "view",
      "type": "function"
    },
    {
      "inputs": [
        {
          "internalType": "uint256",
          "name": "tokenId",
          "type": "uint256"
        }
      ],
      "name": "tokenURI",
      "outputs": [
        {
          "internalType": "string",
          "name": "",
          "type": "string"
        }
      ],
      "stateMutability": "view",
      "type": "function"
    },
    {
      "inputs": [
        {
          "internalType": "address",
          "name": "from",
          "type": "address"
        },
        {
          "internalType": "address",
          "name": "to",
          "type": "address"
        },
        {
          "internalType": "uint256",
          "name": "tokenId",
          "type": "uint256"
        }
      ],
      "name": "transferFrom",
      "outputs": [],
      "stateMutability": "nonpayable",
      "type": "function"
    },
    {
      "inputs": [
        {
          "internalType": "address",
          "name": "newOwner",
          "type": "address"
        }
      ],
      "name": "transferOwnership",
      "outputs": [],
      "stateMutability": "nonpayable",
      "type": "function"
    }
  ],
  "bytecode": "0x60806040526000600b60006101000a81548160ff0219169083151502179055503480156200002c57600080fd5b5060405162003b8138038062003b81833981810160405281019062000052919062000365565b6040518060400160405280600481526020017f4974656d000000000000000000000000000000000000000000000000000000008152506040518060400160405280600381526020017f49544d00000000000000000000000000000000000000000000000000000000008152508160009080519060200190620000d692919062000215565b508060019080519060200190620000ef92919062000215565b5050506000620001046200020d60201b60201c565b905080600760006101000a81548173ffffffffffffffffffffffffffffffffffffffff021916908373ffffffffffffffffffffffffffffffffffffffff1602179055508073ffffffffffffffffffffffffffffffffffffffff16600073ffffffffffffffffffffffffffffffffffffffff167f8be0079c531659141344cd1fd0a4f28419497f9722a3daafe3b4186f6b6457e060405160405180910390a35080600b60016101000a81548173ffffffffffffffffffffffffffffffffffffffff021916908373ffffffffffffffffffffffffffffffffffffffff16021790555082600a9080519060200190620001fc92919062000215565b5081600981905550505050620005b6565b600033905090565b8280546200022390620004a7565b90600052602060002090601f01602090048101928262000247576000855562000293565b82601f106200026257805160ff191683800117855562000293565b8280016001018555821562000293579182015b828111156200029257825182559160200191906001019062000275565b5b509050620002a29190620002a6565b5090565b5b80821115620002c1576000816000905550600101620002a7565b5090565b6000620002dc620002d684620003fd565b620003d4565b905082815260208101848484011115620002f557600080fd5b6200030284828562000471565b509392505050565b6000815190506200031b8162000582565b92915050565b600082601f8301126200033357600080fd5b815162000345848260208601620002c5565b91505092915050565b6000815190506200035f816200059c565b92915050565b6000806000606084860312156200037b57600080fd5b600084015167ffffffffffffffff8111156200039657600080fd5b620003a48682870162000321565b9350506020620003b7868287016200034e565b9250506040620003ca868287016200030a565b9150509250925092565b6000620003e0620003f3565b9050620003ee8282620004dd565b919050565b6000604051905090565b600067ffffffffffffffff8211156200041b576200041a62000542565b5b620004268262000571565b9050602081019050919050565b6000620004408262000447565b9050919050565b600073ffffffffffffffffffffffffffffffffffffffff82169050919050565b6000819050919050565b60005b838110156200049157808201518184015260208101905062000474565b83811115620004a1576000848401525b50505050565b60006002820490506001821680620004c057607f821691505b60208210811415620004d757620004d662000513565b5b50919050565b620004e88262000571565b810181811067ffffffffffffffff821117156200050a576200050962000542565b5b80604052505050565b7f4e487b7100000000000000000000000000000000000000000000000000000000600052602260045260246000fd5b7f4e487b7100000000000000000000000000000000000000000000000000000000600052604160045260246000fd5b6000601f19601f8301169050919050565b6200058d8162000433565b81146200059957600080fd5b50565b620005a78162000467565b8114620005b357600080fd5b50565b6135bb80620005c66000396000f3fe608060405234801561001057600080fd5b50600436106101375760003560e01c80636a627842116100b8578063a22cb4651161007c578063a22cb4651461033c578063b88d4fde14610358578063c87b56dd14610374578063d547cfb7146103a4578063e985e9c5146103c2578063f2fde38b146103f257610137565b80636a6278421461029657806370a08231146102c6578063715018a6146102f65780638da5cb5b1461030057806395d89b411461031e57610137565b806323b872dd116100ff57806323b872dd146101f2578063368e167a1461020e57806342842e0e1461022c5780634e69d560146102485780636352211e1461026657610137565b806301ffc9a71461013c57806302329a291461016c57806306fdde0314610188578063081812fc146101a6578063095ea7b3146101d6575b600080fd5b61015660048036038101906101519190612348565b61040e565b604051610163919061290c565b60405180910390f35b6101866004803603810190610181919061231f565b6104f0565b005b610190610589565b60405161019d9190612927565b60405180910390f35b6101c060048036038101906101bb91906123c3565b61061b565b6040516101cd91906128a5565b60405180910390f35b6101f060048036038101906101eb91906122e3565b6106a0565b005b61020c600480360381019061020791906121dd565b6107b8565b005b610216610818565b6040516102239190612bc9565b60405180910390f35b610246600480360381019061024191906121dd565b610822565b005b610250610842565b60405161025d919061290c565b60405180910390f35b610280600480360381019061027b91906123c3565b610859565b60405161028d91906128a5565b60405180910390f35b6102b060048036038101906102ab9190612178565b61090b565b6040516102bd9190612bc9565b60405180910390f35b6102e060048036038101906102db9190612178565b610a0f565b6040516102ed9190612bc9565b60405180910390f35b6102fe610ac7565b005b610308610c04565b60405161031591906128a5565b60405180910390f35b610326610c2e565b6040516103339190612927565b60405180910390f35b610356600480360381019061035191906122a7565b610cc0565b005b610372600480360381019061036d919061222c565b610e41565b005b61038e600480360381019061038991906123c3565b610ea3565b60405161039b9190612927565b60405180910390f35b6103ac610ff5565b6040516103b99190612927565b60405180910390f35b6103dc60048036038101906103d791906121a1565b611087565b6040516103e9919061290c565b60405180910390f35b61040c60048036038101906104079190612178565b611189565b005b60007f80ac58cd000000000000000000000000000000000000000000000000000000007bffffffffffffffffffffffffffffffffffffffffffffffffffffffff1916827bffffffffffffffffffffffffffffffffffffffffffffffffffffffff191614806104d957507f5b5e139f000000000000000000000000000000000000000000000000000000007bffffffffffffffffffffffffffffffffffffffffffffffffffffffff1916827bffffffffffffffffffffffffffffffffffffffffffffffffffffffff1916145b806104e957506104e882611335565b5b9050919050565b6104f861139f565b73ffffffffffffffffffffffffffffffffffffffff16610516610c04565b73ffffffffffffffffffffffffffffffffffffffff161461056c576040517f08c379a000000000000000000000000000000000000000000000000000000000815260040161056390612b29565b60405180910390fd5b80600b60006101000a81548160ff02191690831515021790555050565b60606000805461059890612e20565b80601f01602080910402602001604051908101604052809291908181526020018280546105c490612e20565b80156106115780601f106105e657610100808354040283529160200191610611565b820191906000526020600020905b8154815290600101906020018083116105f457829003601f168201915b5050505050905090565b6000610626826113a7565b610665576040517f08c379a000000000000000000000000000000000000000000000000000000000815260040161065c90612b09565b60405180910390fd5b6004600083815260200190815260200160002060009054906101000a900473ffffffffffffffffffffffffffffffffffffffff169050919050565b60006106ab82610859565b90508073ffffffffffffffffffffffffffffffffffffffff168373ffffffffffffffffffffffffffffffffffffffff16141561071c576040517f08c379a000000000000000000000000000000000000000000000000000000000815260040161071390612b89565b60405180910390fd5b8073ffffffffffffffffffffffffffffffffffffffff1661073b61139f565b73ffffffffffffffffffffffffffffffffffffffff16148061076a57506107698161076461139f565b611087565b5b6107a9576040517f08c379a00000000000000000000000000000000000000000000000000000000081526004016107a090612a29565b60405180910390fd5b6107b38383611413565b505050565b6107c96107c361139f565b826114cc565b610808576040517f08c379a00000000000000000000000000000000000000000000000000000000081526004016107ff90612ba9565b60405180910390fd5b6108138383836115aa565b505050565b6000600954905090565b61083d83838360405180602001604052806000815250610e41565b505050565b6000600b60009054906101000a900460ff16905090565b6000806002600084815260200190815260200160002060009054906101000a900473ffffffffffffffffffffffffffffffffffffffff169050600073ffffffffffffffffffffffffffffffffffffffff168173ffffffffffffffffffffffffffffffffffffffff161415610902576040517f08c379a00000000000000000000000000000000000000000000000000000000081526004016108f990612a69565b60405180910390fd5b80915050919050565b600060095461091a6008611806565b1061095a576040517f08c379a000000000000000000000000000000000000000000000000000000000815260040161095190612ae9565b60405180910390fd5b60001515600b60009054906101000a900460ff161515146109b0576040517f08c379a00000000000000000000000000000000000000000000000000000000081526004016109a7906129e9565b60405180910390fd5b6109ba6008611814565b60006109c66008611806565b90506109d2838261182a565b610a0681600a6109e184611848565b6040516020016109f292919061284e565b6040516020818303038152906040526119f5565b80915050919050565b60008073ffffffffffffffffffffffffffffffffffffffff168273ffffffffffffffffffffffffffffffffffffffff161415610a80576040517f08c379a0000000000000000000000000000000000000000000000000000000008152600401610a7790612a49565b60405180910390fd5b600360008373ffffffffffffffffffffffffffffffffffffffff1673ffffffffffffffffffffffffffffffffffffffff168152602001908152602001600020549050919050565b610acf61139f565b73ffffffffffffffffffffffffffffffffffffffff16610aed610c04565b73ffffffffffffffffffffffffffffffffffffffff1614610b43576040517f08c379a0000000000000000000000000000000000000000000000000000000008152600401610b3a90612b29565b60405180910390fd5b600073ffffffffffffffffffffffffffffffffffffffff16600760009054906101000a900473ffffffffffffffffffffffffffffffffffffffff1673ffffffffffffffffffffffffffffffffffffffff167f8be0079c531659141344cd1fd0a4f28419497f9722a3daafe3b4186f6b6457e060405160405180910390a36000600760006101000a81548173ffffffffffffffffffffffffffffffffffffffff021916908373ffffffffffffffffffffffffffffffffffffffff160217905550565b6000600760009054906101000a900473ffffffffffffffffffffffffffffffffffffffff16905090565b606060018054610c3d90612e20565b80601f0160208091040260200160405190810160405280929190818152602001828054610c6990612e20565b8015610cb65780601f10610c8b57610100808354040283529160200191610cb6565b820191906000526020600020905b815481529060010190602001808311610c9957829003601f168201915b5050505050905090565b610cc861139f565b73ffffffffffffffffffffffffffffffffffffffff168273ffffffffffffffffffffffffffffffffffffffff161415610d36576040517f08c379a0000000000000000000000000000000000000000000000000000000008152600401610d2d906129c9565b60405180910390fd5b8060056000610d4361139f565b73ffffffffffffffffffffffffffffffffffffffff1673ffffffffffffffffffffffffffffffffffffffff16815260200190815260200160002060008473ffffffffffffffffffffffffffffffffffffffff1673ffffffffffffffffffffffffffffffffffffffff16815260200190815260200160002060006101000a81548160ff0219169083151502179055508173ffffffffffffffffffffffffffffffffffffffff16610df061139f565b73ffffffffffffffffffffffffffffffffffffffff167f17307eab39ab6107e8899845ad3d59bd9653f200f220920489ca2b5937696c3183604051610e35919061290c565b60405180910390a35050565b610e52610e4c61139f565b836114cc565b610e91576040517f08c379a0000000000000000000000000000000000000000000000000000000008152600401610e8890612ba9565b60405180910390fd5b610e9d84848484611a69565b50505050565b6060610eae826113a7565b610eed576040517f08c379a0000000000000000000000000000000000000000000000000000000008152600401610ee490612ac9565b60405180910390fd5b6000600660008481526020019081526020016000208054610f0d90612e20565b80601f0160208091040260200160405190810160405280929190818152602001828054610f3990612e20565b8015610f865780601f10610f5b57610100808354040283529160200191610f86565b820191906000526020600020905b815481529060010190602001808311610f6957829003601f168201915b505050505090506000610f97611ac5565b9050600081511415610fad578192505050610ff0565b600082511115610fe2578082604051602001610fca929190612881565b60405160208183030381529060405292505050610ff0565b610feb84611adc565b925050505b919050565b6060600a805461100490612e20565b80601f016020809104026020016040519081016040528092919081815260200182805461103090612e20565b801561107d5780601f106110525761010080835404028352916020019161107d565b820191906000526020600020905b81548152906001019060200180831161106057829003601f168201915b5050505050905090565b600080600b60019054906101000a900473ffffffffffffffffffffffffffffffffffffffff1690508273ffffffffffffffffffffffffffffffffffffffff168173ffffffffffffffffffffffffffffffffffffffff1663c4552791866040518263ffffffff1660e01b81526004016110ff91906128a5565b60206040518083038186803b15801561111757600080fd5b505afa15801561112b573d6000803e3d6000fd5b505050506040513d601f19601f8201168201806040525081019061114f919061239a565b73ffffffffffffffffffffffffffffffffffffffff161415611175576001915050611183565b61117f8484611b83565b9150505b92915050565b61119161139f565b73ffffffffffffffffffffffffffffffffffffffff166111af610c04565b73ffffffffffffffffffffffffffffffffffffffff1614611205576040517f08c379a00000000000000000000000000000000000000000000000000000000081526004016111fc90612b29565b60405180910390fd5b600073ffffffffffffffffffffffffffffffffffffffff168173ffffffffffffffffffffffffffffffffffffffff161415611275576040517f08c379a000000000000000000000000000000000000000000000000000000000815260040161126c90612969565b60405180910390fd5b8073ffffffffffffffffffffffffffffffffffffffff16600760009054906101000a900473ffffffffffffffffffffffffffffffffffffffff1673ffffffffffffffffffffffffffffffffffffffff167f8be0079c531659141344cd1fd0a4f28419497f9722a3daafe3b4186f6b6457e060405160405180910390a380600760006101000a81548173ffffffffffffffffffffffffffffffffffffffff021916908373ffffffffffffffffffffffffffffffffffffffff16021790555050565b60007f01ffc9a7000000000000000000000000000000000000000000000000000000007bffffffffffffffffffffffffffffffffffffffffffffffffffffffff1916827bffffffffffffffffffffffffffffffffffffffffffffffffffffffff1916149050919050565b600033905090565b60008073ffffffffffffffffffffffffffffffffffffffff166002600084815260200190815260200160002060009054906101000a900473ffffffffffffffffffffffffffffffffffffffff1673ffffffffffffffffffffffffffffffffffffffff1614159050919050565b816004600083815260200190815260200160002060006101000a81548173ffffffffffffffffffffffffffffffffffffffff021916908373ffffffffffffffffffffffffffffffffffffffff160217905550808273ffffffffffffffffffffffffffffffffffffffff1661148683610859565b73ffffffffffffffffffffffffffffffffffffffff167f8c5be1e5ebec7d5bd14f71427d1e84f3dd0314c0f7b2291e5b200ac8c7c3b92560405160405180910390a45050565b60006114d7826113a7565b611516576040517f08c379a000000000000000000000000000000000000000000000000000000000815260040161150d90612a09565b60405180910390fd5b600061152183610859565b90508073ffffffffffffffffffffffffffffffffffffffff168473ffffffffffffffffffffffffffffffffffffffff16148061159057508373ffffffffffffffffffffffffffffffffffffffff166115788461061b565b73ffffffffffffffffffffffffffffffffffffffff16145b806115a157506115a08185611087565b5b91505092915050565b8273ffffffffffffffffffffffffffffffffffffffff166115ca82610859565b73ffffffffffffffffffffffffffffffffffffffff1614611620576040517f08c379a000000000000000000000000000000000000000000000000000000000815260040161161790612b49565b60405180910390fd5b600073ffffffffffffffffffffffffffffffffffffffff168273ffffffffffffffffffffffffffffffffffffffff161415611690576040517f08c379a0000000000000000000000000000000000000000000000000000000008152600401611687906129a9565b60405180910390fd5b61169b838383611c17565b6116a6600082611413565b6001600360008573ffffffffffffffffffffffffffffffffffffffff1673ffffffffffffffffffffffffffffffffffffffff16815260200190815260200160002060008282546116f69190612d24565b925050819055506001600360008473ffffffffffffffffffffffffffffffffffffffff1673ffffffffffffffffffffffffffffffffffffffff168152602001908152602001600020600082825461174d9190612c9d565b92505081905550816002600083815260200190815260200160002060006101000a81548173ffffffffffffffffffffffffffffffffffffffff021916908373ffffffffffffffffffffffffffffffffffffffff160217905550808273ffffffffffffffffffffffffffffffffffffffff168473ffffffffffffffffffffffffffffffffffffffff167fddf252ad1be2c89b69c2b068fc378daa952ba7f163c4a11628f55a4df523b3ef60405160405180910390a4505050565b600081600001549050919050565b6001816000016000828254019250508190555050565b611844828260405180602001604052806000815250611c1c565b5050565b60606000821415611890576040518060400160405280600181526020017f300000000000000000000000000000000000000000000000000000000000000081525090506119f0565b600082905060005b600082146118c25780806118ab90612e83565b915050600a826118bb9190612cf3565b9150611898565b60008167ffffffffffffffff811115611904577f4e487b7100000000000000000000000000000000000000000000000000000000600052604160045260246000fd5b6040519080825280601f01601f1916602001820160405280156119365781602001600182028036833780820191505090505b5090505b600085146119e95760018261194f9190612d24565b9150600a8561195e9190612ecc565b603061196a9190612c9d565b60f81b8183815181106119a6577f4e487b7100000000000000000000000000000000000000000000000000000000600052603260045260246000fd5b60200101907effffffffffffffffffffffffffffffffffffffffffffffffffffffffffffff1916908160001a905350600a856119e29190612cf3565b945061193a565b8093505050505b919050565b6119fe826113a7565b611a3d576040517f08c379a0000000000000000000000000000000000000000000000000000000008152600401611a3490612a89565b60405180910390fd5b80600660008481526020019081526020016000209080519060200190611a64929190611fef565b505050565b611a748484846115aa565b611a8084848484611c77565b611abf576040517f08c379a0000000000000000000000000000000000000000000000000000000008152600401611ab690612949565b60405180910390fd5b50505050565b606060405180602001604052806000815250905090565b6060611ae7826113a7565b611b26576040517f08c379a0000000000000000000000000000000000000000000000000000000008152600401611b1d90612b69565b60405180910390fd5b6000611b30611ac5565b90506000815111611b505760405180602001604052806000815250611b7b565b80611b5a84611848565b604051602001611b6b929190612881565b6040516020818303038152906040525b915050919050565b6000600560008473ffffffffffffffffffffffffffffffffffffffff1673ffffffffffffffffffffffffffffffffffffffff16815260200190815260200160002060008373ffffffffffffffffffffffffffffffffffffffff1673ffffffffffffffffffffffffffffffffffffffff16815260200190815260200160002060009054906101000a900460ff16905092915050565b505050565b611c268383611e0e565b611c336000848484611c77565b611c72576040517f08c379a0000000000000000000000000000000000000000000000000000000008152600401611c6990612949565b60405180910390fd5b505050565b6000611c988473ffffffffffffffffffffffffffffffffffffffff16611fdc565b15611e01578373ffffffffffffffffffffffffffffffffffffffff1663150b7a02611cc161139f565b8786866040518563ffffffff1660e01b8152600401611ce394939291906128c0565b602060405180830381600087803b158015611cfd57600080fd5b505af1925050508015611d2e57506040513d601f19601f82011682018060405250810190611d2b9190612371565b60015b611db1573d8060008114611d5e576040519150601f19603f3d011682016040523d82523d6000602084013e611d63565b606091505b50600081511415611da9576040517f08c379a0000000000000000000000000000000000000000000000000000000008152600401611da090612949565b60405180910390fd5b805181602001fd5b63150b7a0260e01b7bffffffffffffffffffffffffffffffffffffffffffffffffffffffff1916817bffffffffffffffffffffffffffffffffffffffffffffffffffffffff191614915050611e06565b600190505b949350505050565b600073ffffffffffffffffffffffffffffffffffffffff168273ffffffffffffffffffffffffffffffffffffffff161415611e7e576040517f08c379a0000000000000000000000000000000000000000000000000000000008152600401611e7590612aa9565b60405180910390fd5b611e87816113a7565b15611ec7576040517f08c379a0000000000000000000000000000000000000000000000000000000008152600401611ebe90612989565b60405180910390fd5b611ed360008383611c17565b6001600360008473ffffffffffffffffffffffffffffffffffffffff1673ffffffffffffffffffffffffffffffffffffffff1681526020019081526020016000206000828254611f239190612c9d565b92505081905550816002600083815260200190815260200160002060006101000a81548173ffffffffffffffffffffffffffffffffffffffff021916908373ffffffffffffffffffffffffffffffffffffffff160217905550808273ffffffffffffffffffffffffffffffffffffffff16600073ffffffffffffffffffffffffffffffffffffffff167fddf252ad1be2c89b69c2b068fc378daa952ba7f163c4a11628f55a4df523b3ef60405160405180910390a45050565b600080823b905060008111915050919050565b828054611ffb90612e20565b90600052602060002090601f01602090048101928261201d5760008555612064565b82601f1061203657805160ff1916838001178555612064565b82800160010185558215612064579182015b82811115612063578251825591602001919060010190612048565b5b5090506120719190612075565b5090565b5b8082111561208e576000816000905550600101612076565b5090565b60006120a56120a084612c09565b612be4565b9050828152602081018484840111156120bd57600080fd5b6120c8848285612dde565b509392505050565b6000813590506120df81613512565b92915050565b6000813590506120f481613529565b92915050565b60008135905061210981613540565b92915050565b60008151905061211e81613540565b92915050565b600082601f83011261213557600080fd5b8135612145848260208601612092565b91505092915050565b60008151905061215d81613557565b92915050565b6000813590506121728161356e565b92915050565b60006020828403121561218a57600080fd5b6000612198848285016120d0565b91505092915050565b600080604083850312156121b457600080fd5b60006121c2858286016120d0565b92505060206121d3858286016120d0565b9150509250929050565b6000806000606084860312156121f257600080fd5b6000612200868287016120d0565b9350506020612211868287016120d0565b925050604061222286828701612163565b9150509250925092565b6000806000806080858703121561224257600080fd5b6000612250878288016120d0565b9450506020612261878288016120d0565b935050604061227287828801612163565b925050606085013567ffffffffffffffff81111561228f57600080fd5b61229b87828801612124565b91505092959194509250565b600080604083850312156122ba57600080fd5b60006122c8858286016120d0565b92505060206122d9858286016120e5565b9150509250929050565b600080604083850312156122f657600080fd5b6000612304858286016120d0565b925050602061231585828601612163565b9150509250929050565b60006020828403121561233157600080fd5b600061233f848285016120e5565b91505092915050565b60006020828403121561235a57600080fd5b6000612368848285016120fa565b91505092915050565b60006020828403121561238357600080fd5b60006123918482850161210f565b91505092915050565b6000602082840312156123ac57600080fd5b60006123ba8482850161214e565b91505092915050565b6000602082840312156123d557600080fd5b60006123e384828501612163565b91505092915050565b6123f581612d58565b82525050565b61240481612d6a565b82525050565b600061241582612c4f565b61241f8185612c65565b935061242f818560208601612ded565b61243881612fb9565b840191505092915050565b600061244e82612c4f565b6124588185612c76565b9350612468818560208601612ded565b80840191505092915050565b6000815461248181612e20565b61248b8186612c76565b945060018216600081146124a657600181146124b7576124ea565b60ff198316865281860193506124ea565b6124c085612c3a565b60005b838110156124e2578154818901526001820191506020810190506124c3565b838801955050505b50505092915050565b60006124fe82612c5a565b6125088185612c81565b9350612518818560208601612ded565b61252181612fb9565b840191505092915050565b600061253782612c5a565b6125418185612c92565b9350612551818560208601612ded565b80840191505092915050565b600061256a603283612c81565b915061257582612fca565b604082019050919050565b600061258d602683612c81565b915061259882613019565b604082019050919050565b60006125b0601c83612c81565b91506125bb82613068565b602082019050919050565b60006125d3602483612c81565b91506125de82613091565b604082019050919050565b60006125f6601983612c81565b9150612601826130e0565b602082019050919050565b6000612619601883612c81565b915061262482613109565b602082019050919050565b600061263c602c83612c81565b915061264782613132565b604082019050919050565b600061265f603883612c81565b915061266a82613181565b604082019050919050565b6000612682602a83612c81565b915061268d826131d0565b604082019050919050565b60006126a5602983612c81565b91506126b08261321f565b604082019050919050565b60006126c8602e83612c81565b91506126d38261326e565b604082019050919050565b60006126eb602083612c81565b91506126f6826132bd565b602082019050919050565b600061270e603183612c81565b9150612719826132e6565b604082019050919050565b6000612731601983612c81565b915061273c82613335565b602082019050919050565b6000612754602c83612c81565b915061275f8261335e565b604082019050919050565b6000612777602083612c81565b9150612782826133ad565b602082019050919050565b600061279a602983612c81565b91506127a5826133d6565b604082019050919050565b60006127bd602f83612c81565b91506127c882613425565b604082019050919050565b60006127e0602183612c81565b91506127eb82613474565b604082019050919050565b6000612803603183612c81565b915061280e826134c3565b604082019050919050565b7f2f00000000000000000000000000000000000000000000000000000000000000815250565b61284881612dd4565b82525050565b600061285a8285612474565b915061286582612819565b6001820191506128758284612443565b91508190509392505050565b600061288d828561252c565b9150612899828461252c565b91508190509392505050565b60006020820190506128ba60008301846123ec565b92915050565b60006080820190506128d560008301876123ec565b6128e260208301866123ec565b6128ef604083018561283f565b8181036060830152612901818461240a565b905095945050505050565b600060208201905061292160008301846123fb565b92915050565b6000602082019050818103600083015261294181846124f3565b905092915050565b600060208201905081810360008301526129628161255d565b9050919050565b6000602082019050818103600083015261298281612580565b9050919050565b600060208201905081810360008301526129a2816125a3565b9050919050565b600060208201905081810360008301526129c2816125c6565b9050919050565b600060208201905081810360008301526129e2816125e9565b9050919050565b60006020820190508181036000830152612a028161260c565b9050919050565b60006020820190508181036000830152612a228161262f565b9050919050565b60006020820190508181036000830152612a4281612652565b9050919050565b60006020820190508181036000830152612a6281612675565b9050919050565b60006020820190508181036000830152612a8281612698565b9050919050565b60006020820190508181036000830152612aa2816126bb565b9050919050565b60006020820190508181036000830152612ac2816126de565b9050919050565b60006020820190508181036000830152612ae281612701565b9050919050565b60006020820190508181036000830152612b0281612724565b9050919050565b60006020820190508181036000830152612b2281612747565b9050919050565b60006020820190508181036000830152612b428161276a565b9050919050565b60006020820190508181036000830152612b628161278d565b9050919050565b60006020820190508181036000830152612b82816127b0565b9050919050565b60006020820190508181036000830152612ba2816127d3565b9050919050565b60006020820190508181036000830152612bc2816127f6565b9050919050565b6000602082019050612bde600083018461283f565b92915050565b6000612bee612bff565b9050612bfa8282612e52565b919050565b6000604051905090565b600067ffffffffffffffff821115612c2457612c23612f8a565b5b612c2d82612fb9565b9050602081019050919050565b60008190508160005260206000209050919050565b600081519050919050565b600081519050919050565b600082825260208201905092915050565b600081905092915050565b600082825260208201905092915050565b600081905092915050565b6000612ca882612dd4565b9150612cb383612dd4565b9250827fffffffffffffffffffffffffffffffffffffffffffffffffffffffffffffffff03821115612ce857612ce7612efd565b5b828201905092915050565b6000612cfe82612dd4565b9150612d0983612dd4565b925082612d1957612d18612f2c565b5b828204905092915050565b6000612d2f82612dd4565b9150612d3a83612dd4565b925082821015612d4d57612d4c612efd565b5b828203905092915050565b6000612d6382612db4565b9050919050565b60008115159050919050565b60007fffffffff0000000000000000000000000000000000000000000000000000000082169050919050565b6000612dad82612d58565b9050919050565b600073ffffffffffffffffffffffffffffffffffffffff82169050919050565b6000819050919050565b82818337600083830152505050565b60005b83811015612e0b578082015181840152602081019050612df0565b83811115612e1a576000848401525b50505050565b60006002820490506001821680612e3857607f821691505b60208210811415612e4c57612e4b612f5b565b5b50919050565b612e5b82612fb9565b810181811067ffffffffffffffff82111715612e7a57612e79612f8a565b5b80604052505050565b6000612e8e82612dd4565b91507fffffffffffffffffffffffffffffffffffffffffffffffffffffffffffffffff821415612ec157612ec0612efd565b5b600182019050919050565b6000612ed782612dd4565b9150612ee283612dd4565b925082612ef257612ef1612f2c565b5b828206905092915050565b7f4e487b7100000000000000000000000000000000000000000000000000000000600052601160045260246000fd5b7f4e487b7100000000000000000000000000000000000000000000000000000000600052601260045260246000fd5b7f4e487b7100000000000000000000000000000000000000000000000000000000600052602260045260246000fd5b7f4e487b7100000000000000000000000000000000000000000000000000000000600052604160045260246000fd5b6000601f19601f8301169050919050565b7f4552433732313a207472616e7366657220746f206e6f6e20455243373231526560008201527f63656976657220696d706c656d656e7465720000000000000000000000000000602082015250565b7f4f776e61626c653a206e6577206f776e657220697320746865207a65726f206160008201527f6464726573730000000000000000000000000000000000000000000000000000602082015250565b7f4552433732313a20746f6b656e20616c7265616479206d696e74656400000000600082015250565b7f4552433732313a207472616e7366657220746f20746865207a65726f2061646460008201527f7265737300000000000000000000000000000000000000000000000000000000602082015250565b7f4552433732313a20617070726f766520746f2063616c6c657200000000000000600082015250565b7f536f7272792c20706175736564206d696e74696e67203a280000000000000000600082015250565b7f4552433732313a206f70657261746f7220717565727920666f72206e6f6e657860008201527f697374656e7420746f6b656e0000000000000000000000000000000000000000602082015250565b7f4552433732313a20617070726f76652063616c6c6572206973206e6f74206f7760008201527f6e6572206e6f7220617070726f76656420666f7220616c6c0000000000000000602082015250565b7f4552433732313a2062616c616e636520717565727920666f7220746865207a6560008201527f726f206164647265737300000000000000000000000000000000000000000000602082015250565b7f4552433732313a206f776e657220717565727920666f72206e6f6e657869737460008201527f656e7420746f6b656e0000000000000000000000000000000000000000000000602082015250565b7f45524337323155524953746f726167653a2055524920736574206f66206e6f6e60008201527f6578697374656e7420746f6b656e000000000000000000000000000000000000602082015250565b7f4552433732313a206d696e7420746f20746865207a65726f2061646472657373600082015250565b7f45524337323155524953746f726167653a2055524920717565727920666f722060008201527f6e6f6e6578697374656e7420746f6b656e000000000000000000000000000000602082015250565b7f43616e277420657863656564204d41585f454c454d454e545300000000000000600082015250565b7f4552433732313a20617070726f76656420717565727920666f72206e6f6e657860008201527f697374656e7420746f6b656e0000000000000000000000000000000000000000602082015250565b7f4f776e61626c653a2063616c6c6572206973206e6f7420746865206f776e6572600082015250565b7f4552433732313a207472616e73666572206f6620746f6b656e2074686174206960008201527f73206e6f74206f776e0000000000000000000000000000000000000000000000602082015250565b7f4552433732314d657461646174613a2055524920717565727920666f72206e6f60008201527f6e6578697374656e7420746f6b656e0000000000000000000000000000000000602082015250565b7f4552433732313a20617070726f76616c20746f2063757272656e74206f776e6560008201527f7200000000000000000000000000000000000000000000000000000000000000602082015250565b7f4552433732313a207472616e736665722063616c6c6572206973206e6f74206f60008201527f776e6572206e6f7220617070726f766564000000000000000000000000000000602082015250565b61351b81612d58565b811461352657600080fd5b50565b61353281612d6a565b811461353d57600080fd5b50565b61354981612d76565b811461355457600080fd5b50565b61356081612da2565b811461356b57600080fd5b50565b61357781612dd4565b811461358257600080fd5b5056fea26469706673582212206426000b344e16ae241195c2cdea51ba9680cfe230ebd6d029e95eebcfe5a05064736f6c63430008040033",
  "linkReferences": {},
  "deployedLinkReferences": {}
}