{
  "_format": "hh-sol-artifact-1",
  "contractName": "TheBadYonkies",
  "sourceName": "contracts/NFT.sol",
  "abi": [
    {
      "inputs": [
        {
          "internalType": "string",
          "name": "_name",
          "type": "string"
        },
        {
          "internalType": "string",
          "name": "_symbol",
          "type": "string"
        },
        {
          "internalType": "string",
          "name": "_BASE_TOKEN_URI",
          "type": "string"
        },
        {
          "internalType": "uint256",
          "name": "_MAX_ELEMENTS",
          "type": "uint256"
        },
        {
          "internalType": "uint256",
          "name": "_PRICE",
          "type": "uint256"
        },
        {
          "internalType": "address",
          "name": "_proxyRegistryAddress",
          "type": "address"
        }
      ],
      "stateMutability": "nonpayable",
      "type": "constructor"
    },
    {
      "anonymous": false,
      "inputs": [
        {
          "indexed": true,
          "internalType": "address",
          "name": "owner",
          "type": "address"
        },
        {
          "indexed": true,
          "internalType": "address",
          "name": "approved",
          "type": "address"
        },
        {
          "indexed": true,
          "internalType": "uint256",
          "name": "tokenId",
          "type": "uint256"
        }
      ],
      "name": "Approval",
      "type": "event"
    },
    {
      "anonymous": false,
      "inputs": [
        {
          "indexed": true,
          "internalType": "address",
          "name": "owner",
          "type": "address"
        },
        {
          "indexed": true,
          "internalType": "address",
          "name": "operator",
          "type": "address"
        },
        {
          "indexed": false,
          "internalType": "bool",
          "name": "approved",
          "type": "bool"
        }
      ],
      "name": "ApprovalForAll",
      "type": "event"
    },
    {
      "anonymous": false,
      "inputs": [
        {
          "indexed": false,
          "internalType": "address",
          "name": "player",
          "type": "address"
        },
        {
          "indexed": false,
          "internalType": "uint256",
          "name": "tokenId",
          "type": "uint256"
        }
      ],
      "name": "Minted",
      "type": "event"
    },
    {
      "anonymous": false,
      "inputs": [
        {
          "indexed": true,
          "internalType": "address",
          "name": "previousOwner",
          "type": "address"
        },
        {
          "indexed": true,
          "internalType": "address",
          "name": "newOwner",
          "type": "address"
        }
      ],
      "name": "OwnershipTransferred",
      "type": "event"
    },
    {
      "anonymous": false,
      "inputs": [
        {
          "indexed": true,
          "internalType": "address",
          "name": "from",
          "type": "address"
        },
        {
          "indexed": true,
          "internalType": "address",
          "name": "to",
          "type": "address"
        },
        {
          "indexed": true,
          "internalType": "uint256",
          "name": "tokenId",
          "type": "uint256"
        }
      ],
      "name": "Transfer",
      "type": "event"
    },
    {
      "inputs": [
        {
          "internalType": "address",
          "name": "to",
          "type": "address"
        },
        {
          "internalType": "uint256",
          "name": "tokenId",
          "type": "uint256"
        }
      ],
      "name": "approve",
      "outputs": [],
      "stateMutability": "nonpayable",
      "type": "function"
    },
    {
      "inputs": [
        {
          "internalType": "address",
          "name": "owner",
          "type": "address"
        }
      ],
      "name": "balanceOf",
      "outputs": [
        {
          "internalType": "uint256",
          "name": "",
          "type": "uint256"
        }
      ],
      "stateMutability": "view",
      "type": "function"
    },
    {
      "inputs": [],
      "name": "baseTokenURI",
      "outputs": [
        {
          "internalType": "string",
          "name": "",
          "type": "string"
        }
      ],
      "stateMutability": "view",
      "type": "function"
    },
    {
      "inputs": [],
      "name": "contractURI",
      "outputs": [
        {
          "internalType": "string",
          "name": "",
          "type": "string"
        }
      ],
      "stateMutability": "view",
      "type": "function"
    },
    {
      "inputs": [
        {
          "internalType": "address",
          "name": "player",
          "type": "address"
        }
      ],
      "name": "freeMint",
      "outputs": [
        {
          "internalType": "uint256",
          "name": "",
          "type": "uint256"
        }
      ],
      "stateMutability": "nonpayable",
      "type": "function"
    },
    {
      "inputs": [
        {
          "internalType": "uint256",
          "name": "tokenId",
          "type": "uint256"
        }
      ],
      "name": "getApproved",
      "outputs": [
        {
          "internalType": "address",
          "name": "",
          "type": "address"
        }
      ],
      "stateMutability": "view",
      "type": "function"
    },
    {
      "inputs": [],
      "name": "getMaxElements",
      "outputs": [
        {
          "internalType": "uint256",
          "name": "",
          "type": "uint256"
        }
      ],
      "stateMutability": "view",
      "type": "function"
    },
    {
      "inputs": [],
      "name": "getPrice",
      "outputs": [
        {
          "internalType": "uint256",
          "name": "",
          "type": "uint256"
        }
      ],
      "stateMutability": "view",
      "type": "function"
    },
    {
      "inputs": [],
      "name": "getStatus",
      "outputs": [
        {
          "internalType": "bool",
          "name": "",
          "type": "bool"
        }
      ],
      "stateMutability": "view",
      "type": "function"
    },
    {
      "inputs": [
        {
          "internalType": "address",
          "name": "owner",
          "type": "address"
        },
        {
          "internalType": "address",
          "name": "operator",
          "type": "address"
        }
      ],
      "name": "isApprovedForAll",
      "outputs": [
        {
          "internalType": "bool",
          "name": "",
          "type": "bool"
        }
      ],
      "stateMutability": "view",
      "type": "function"
    },
    {
      "inputs": [
        {
          "internalType": "address",
          "name": "player",
          "type": "address"
        }
      ],
      "name": "mint",
      "outputs": [
        {
          "internalType": "uint256",
          "name": "",
          "type": "uint256"
        }
      ],
      "stateMutability": "payable",
      "type": "function"
    },
    {
      "inputs": [],
      "name": "name",
      "outputs": [
        {
          "internalType": "string",
          "name": "",
          "type": "string"
        }
      ],
      "stateMutability": "view",
      "type": "function"
    },
    {
      "inputs": [],
      "name": "owner",
      "outputs": [
        {
          "internalType": "address",
          "name": "",
          "type": "address"
        }
      ],
      "stateMutability": "view",
      "type": "function"
    },
    {
      "inputs": [
        {
          "internalType": "uint256",
          "name": "tokenId",
          "type": "uint256"
        }
      ],
      "name": "ownerOf",
      "outputs": [
        {
          "internalType": "address",
          "name": "",
          "type": "address"
        }
      ],
      "stateMutability": "view",
      "type": "function"
    },
    {
      "inputs": [
        {
          "internalType": "bool",
          "name": "status",
          "type": "bool"
        }
      ],
      "name": "pause",
      "outputs": [],
      "stateMutability": "nonpayable",
      "type": "function"
    },
    {
      "inputs": [],
      "name": "renounceOwnership",
      "outputs": [],
      "stateMutability": "nonpayable",
      "type": "function"
    },
    {
      "inputs": [
        {
          "internalType": "address",
          "name": "from",
          "type": "address"
        },
        {
          "internalType": "address",
          "name": "to",
          "type": "address"
        },
        {
          "internalType": "uint256",
          "name": "tokenId",
          "type": "uint256"
        }
      ],
      "name": "safeTransferFrom",
      "outputs": [],
      "stateMutability": "nonpayable",
      "type": "function"
    },
    {
      "inputs": [
        {
          "internalType": "address",
          "name": "from",
          "type": "address"
        },
        {
          "internalType": "address",
          "name": "to",
          "type": "address"
        },
        {
          "internalType": "uint256",
          "name": "tokenId",
          "type": "uint256"
        },
        {
          "internalType": "bytes",
          "name": "_data",
          "type": "bytes"
        }
      ],
      "name": "safeTransferFrom",
      "outputs": [],
      "stateMutability": "nonpayable",
      "type": "function"
    },
    {
      "inputs": [
        {
          "internalType": "address",
          "name": "operator",
          "type": "address"
        },
        {
          "internalType": "bool",
          "name": "approved",
          "type": "bool"
        }
      ],
      "name": "setApprovalForAll",
      "outputs": [],
      "stateMutability": "nonpayable",
      "type": "function"
    },
    {
      "inputs": [
        {
          "internalType": "bytes4",
          "name": "interfaceId",
          "type": "bytes4"
        }
      ],
      "name": "supportsInterface",
      "outputs": [
        {
          "internalType": "bool",
          "name": "",
          "type": "bool"
        }
      ],
      "stateMutability": "view",
      "type": "function"
    },
    {
      "inputs": [],
      "name": "symbol",
      "outputs": [
        {
          "internalType": "string",
          "name": "",
          "type": "string"
        }
      ],
      "stateMutability": "view",
      "type": "function"
    },
    {
      "inputs": [
        {
          "internalType": "uint256",
          "name": "tokenId",
          "type": "uint256"
        }
      ],
      "name": "tokenURI",
      "outputs": [
        {
          "internalType": "string",
          "name": "",
          "type": "string"
        }
      ],
      "stateMutability": "view",
      "type": "function"
    },
    {
      "inputs": [
        {
          "internalType": "address",
          "name": "from",
          "type": "address"
        },
        {
          "internalType": "address",
          "name": "to",
          "type": "address"
        },
        {
          "internalType": "uint256",
          "name": "tokenId",
          "type": "uint256"
        }
      ],
      "name": "transferFrom",
      "outputs": [],
      "stateMutability": "nonpayable",
      "type": "function"
    },
    {
      "inputs": [
        {
          "internalType": "address",
          "name": "newOwner",
          "type": "address"
        }
      ],
      "name": "transferOwnership",
      "outputs": [],
      "stateMutability": "nonpayable",
      "type": "function"
    }
  ],
  "bytecode": "0x60806040526000600c60006101000a81548160ff0219169083151502179055503480156200002c57600080fd5b50604051620042d5380380620042d5833981810160405281019062000052919062000305565b858581600090805190602001906200006c929190620001b5565b50806001908051906020019062000085929190620001b5565b50505060006200009a620001ad60201b60201c565b905080600760006101000a81548173ffffffffffffffffffffffffffffffffffffffff021916908373ffffffffffffffffffffffffffffffffffffffff1602179055508073ffffffffffffffffffffffffffffffffffffffff16600073ffffffffffffffffffffffffffffffffffffffff167f8be0079c531659141344cd1fd0a4f28419497f9722a3daafe3b4186f6b6457e060405160405180910390a35080600c60016101000a81548173ffffffffffffffffffffffffffffffffffffffff021916908373ffffffffffffffffffffffffffffffffffffffff16021790555083600a908051906020019062000192929190620001b5565b508260098190555081600b81905550505050505050620005c8565b600033905090565b828054620001c390620004b9565b90600052602060002090601f016020900481019282620001e7576000855562000233565b82601f106200020257805160ff191683800117855562000233565b8280016001018555821562000233579182015b828111156200023257825182559160200191906001019062000215565b5b50905062000242919062000246565b5090565b5b808211156200026157600081600090555060010162000247565b5090565b60006200027c62000276846200040f565b620003e6565b9050828152602081018484840111156200029557600080fd5b620002a284828562000483565b509392505050565b600081519050620002bb8162000594565b92915050565b600082601f830112620002d357600080fd5b8151620002e584826020860162000265565b91505092915050565b600081519050620002ff81620005ae565b92915050565b60008060008060008060c087890312156200031f57600080fd5b600087015167ffffffffffffffff8111156200033a57600080fd5b6200034889828a01620002c1565b965050602087015167ffffffffffffffff8111156200036657600080fd5b6200037489828a01620002c1565b955050604087015167ffffffffffffffff8111156200039257600080fd5b620003a089828a01620002c1565b9450506060620003b389828a01620002ee565b9350506080620003c689828a01620002ee565b92505060a0620003d989828a01620002aa565b9150509295509295509295565b6000620003f262000405565b9050620004008282620004ef565b919050565b6000604051905090565b600067ffffffffffffffff8211156200042d576200042c62000554565b5b620004388262000583565b9050602081019050919050565b6000620004528262000459565b9050919050565b600073ffffffffffffffffffffffffffffffffffffffff82169050919050565b6000819050919050565b60005b83811015620004a357808201518184015260208101905062000486565b83811115620004b3576000848401525b50505050565b60006002820490506001821680620004d257607f821691505b60208210811415620004e957620004e862000525565b5b50919050565b620004fa8262000583565b810181811067ffffffffffffffff821117156200051c576200051b62000554565b5b80604052505050565b7f4e487b7100000000000000000000000000000000000000000000000000000000600052602260045260246000fd5b7f4e487b7100000000000000000000000000000000000000000000000000000000600052604160045260246000fd5b6000601f19601f8301169050919050565b6200059f8162000445565b8114620005ab57600080fd5b50565b620005b98162000479565b8114620005c557600080fd5b50565b613cfd80620005d86000396000f3fe60806040526004361061014b5760003560e01c8063715018a6116100b6578063c87b56dd1161006f578063c87b56dd14610483578063d547cfb7146104c0578063e8a3d485146104eb578063e985e9c514610516578063f2fde38b14610553578063fa07ce1d1461057c5761014b565b8063715018a6146103995780638da5cb5b146103b057806395d89b41146103db57806398d5fdca14610406578063a22cb46514610431578063b88d4fde1461045a5761014b565b8063368e167a11610108578063368e167a1461027057806342842e0e1461029b5780634e69d560146102c45780636352211e146102ef5780636a6278421461032c57806370a082311461035c5761014b565b806301ffc9a71461015057806302329a291461018d57806306fdde03146101b6578063081812fc146101e1578063095ea7b31461021e57806323b872dd14610247575b600080fd5b34801561015c57600080fd5b5061017760048036038101906101729190612960565b6105b9565b6040516101849190612f93565b60405180910390f35b34801561019957600080fd5b506101b460048036038101906101af9190612937565b61069b565b005b3480156101c257600080fd5b506101cb610734565b6040516101d89190612fae565b60405180910390f35b3480156101ed57600080fd5b50610208600480360381019061020391906129db565b6107c6565b6040516102159190612f03565b60405180910390f35b34801561022a57600080fd5b50610245600480360381019061024091906128fb565b61084b565b005b34801561025357600080fd5b5061026e600480360381019061026991906127f5565b610963565b005b34801561027c57600080fd5b506102856109c3565b6040516102929190613290565b60405180910390f35b3480156102a757600080fd5b506102c260048036038101906102bd91906127f5565b6109cd565b005b3480156102d057600080fd5b506102d96109ed565b6040516102e69190612f93565b60405180910390f35b3480156102fb57600080fd5b50610316600480360381019061031191906129db565b610a04565b6040516103239190612f03565b60405180910390f35b61034660048036038101906103419190612790565b610ab6565b6040516103539190613290565b60405180910390f35b34801561036857600080fd5b50610383600480360381019061037e9190612790565b610c9d565b6040516103909190613290565b60405180910390f35b3480156103a557600080fd5b506103ae610d55565b005b3480156103bc57600080fd5b506103c5610e92565b6040516103d29190612f03565b60405180910390f35b3480156103e757600080fd5b506103f0610ebc565b6040516103fd9190612fae565b60405180910390f35b34801561041257600080fd5b5061041b610f4e565b6040516104289190613290565b60405180910390f35b34801561043d57600080fd5b50610458600480360381019061045391906128bf565b610f58565b005b34801561046657600080fd5b50610481600480360381019061047c9190612844565b6110d9565b005b34801561048f57600080fd5b506104aa60048036038101906104a591906129db565b61113b565b6040516104b79190612fae565b60405180910390f35b3480156104cc57600080fd5b506104d561128d565b6040516104e29190612fae565b60405180910390f35b3480156104f757600080fd5b5061050061131f565b60405161050d9190612fae565b60405180910390f35b34801561052257600080fd5b5061053d600480360381019061053891906127b9565b6113b1565b60405161054a9190612f93565b60405180910390f35b34801561055f57600080fd5b5061057a60048036038101906105759190612790565b6114b3565b005b34801561058857600080fd5b506105a3600480360381019061059e9190612790565b61165f565b6040516105b09190613290565b60405180910390f35b60007f80ac58cd000000000000000000000000000000000000000000000000000000007bffffffffffffffffffffffffffffffffffffffffffffffffffffffff1916827bffffffffffffffffffffffffffffffffffffffffffffffffffffffff1916148061068457507f5b5e139f000000000000000000000000000000000000000000000000000000007bffffffffffffffffffffffffffffffffffffffffffffffffffffffff1916827bffffffffffffffffffffffffffffffffffffffffffffffffffffffff1916145b80610694575061069382611888565b5b9050919050565b6106a36118f2565b73ffffffffffffffffffffffffffffffffffffffff166106c1610e92565b73ffffffffffffffffffffffffffffffffffffffff1614610717576040517f08c379a000000000000000000000000000000000000000000000000000000000815260040161070e906131d0565b60405180910390fd5b80600c60006101000a81548160ff02191690831515021790555050565b60606000805461074390613510565b80601f016020809104026020016040519081016040528092919081815260200182805461076f90613510565b80156107bc5780601f10610791576101008083540402835291602001916107bc565b820191906000526020600020905b81548152906001019060200180831161079f57829003601f168201915b5050505050905090565b60006107d1826118fa565b610810576040517f08c379a0000000000000000000000000000000000000000000000000000000008152600401610807906131b0565b60405180910390fd5b6004600083815260200190815260200160002060009054906101000a900473ffffffffffffffffffffffffffffffffffffffff169050919050565b600061085682610a04565b90508073ffffffffffffffffffffffffffffffffffffffff168373ffffffffffffffffffffffffffffffffffffffff1614156108c7576040517f08c379a00000000000000000000000000000000000000000000000000000000081526004016108be90613250565b60405180910390fd5b8073ffffffffffffffffffffffffffffffffffffffff166108e66118f2565b73ffffffffffffffffffffffffffffffffffffffff16148061091557506109148161090f6118f2565b6113b1565b5b610954576040517f08c379a000000000000000000000000000000000000000000000000000000000815260040161094b906130b0565b60405180910390fd5b61095e8383611966565b505050565b61097461096e6118f2565b82611a1f565b6109b3576040517f08c379a00000000000000000000000000000000000000000000000000000000081526004016109aa90613270565b60405180910390fd5b6109be838383611afd565b505050565b6000600954905090565b6109e8838383604051806020016040528060008152506110d9565b505050565b6000600c60009054906101000a900460ff16905090565b6000806002600084815260200190815260200160002060009054906101000a900473ffffffffffffffffffffffffffffffffffffffff169050600073ffffffffffffffffffffffffffffffffffffffff168173ffffffffffffffffffffffffffffffffffffffff161415610aad576040517f08c379a0000000000000000000000000000000000000000000000000000000008152600401610aa4906130f0565b60405180910390fd5b80915050919050565b6000600954610ac56008611d59565b1115610b06576040517f08c379a0000000000000000000000000000000000000000000000000000000008152600401610afd90613190565b60405180910390fd5b60001515600c60009054906101000a900460ff16151514610b5c576040517f08c379a0000000000000000000000000000000000000000000000000000000008152600401610b5390613070565b60405180910390fd5b610b666008611d67565b6000610b726008611d59565b90506001600d60003373ffffffffffffffffffffffffffffffffffffffff1673ffffffffffffffffffffffffffffffffffffffff16815260200190815260200160002060006101000a81548160ff021916908315150217905550610bd834600b54611d7d565b600b54341015610c1d576040517f08c379a0000000000000000000000000000000000000000000000000000000008152600401610c1490613130565b60405180910390fd5b610c278382611e19565b610c5b81600a610c3684611e37565b604051602001610c47929190612eac565b604051602081830303815290604052611fe4565b7f30385c845b448a36257a6a1716e6ad2e1bc2cbe333cde1e69fe849ad6511adfe3382604051610c8c929190612f6a565b60405180910390a180915050919050565b60008073ffffffffffffffffffffffffffffffffffffffff168273ffffffffffffffffffffffffffffffffffffffff161415610d0e576040517f08c379a0000000000000000000000000000000000000000000000000000000008152600401610d05906130d0565b60405180910390fd5b600360008373ffffffffffffffffffffffffffffffffffffffff1673ffffffffffffffffffffffffffffffffffffffff168152602001908152602001600020549050919050565b610d5d6118f2565b73ffffffffffffffffffffffffffffffffffffffff16610d7b610e92565b73ffffffffffffffffffffffffffffffffffffffff1614610dd1576040517f08c379a0000000000000000000000000000000000000000000000000000000008152600401610dc8906131d0565b60405180910390fd5b600073ffffffffffffffffffffffffffffffffffffffff16600760009054906101000a900473ffffffffffffffffffffffffffffffffffffffff1673ffffffffffffffffffffffffffffffffffffffff167f8be0079c531659141344cd1fd0a4f28419497f9722a3daafe3b4186f6b6457e060405160405180910390a36000600760006101000a81548173ffffffffffffffffffffffffffffffffffffffff021916908373ffffffffffffffffffffffffffffffffffffffff160217905550565b6000600760009054906101000a900473ffffffffffffffffffffffffffffffffffffffff16905090565b606060018054610ecb90613510565b80601f0160208091040260200160405190810160405280929190818152602001828054610ef790613510565b8015610f445780601f10610f1957610100808354040283529160200191610f44565b820191906000526020600020905b815481529060010190602001808311610f2757829003601f168201915b5050505050905090565b6000600b54905090565b610f606118f2565b73ffffffffffffffffffffffffffffffffffffffff168273ffffffffffffffffffffffffffffffffffffffff161415610fce576040517f08c379a0000000000000000000000000000000000000000000000000000000008152600401610fc590613050565b60405180910390fd5b8060056000610fdb6118f2565b73ffffffffffffffffffffffffffffffffffffffff1673ffffffffffffffffffffffffffffffffffffffff16815260200190815260200160002060008473ffffffffffffffffffffffffffffffffffffffff1673ffffffffffffffffffffffffffffffffffffffff16815260200190815260200160002060006101000a81548160ff0219169083151502179055508173ffffffffffffffffffffffffffffffffffffffff166110886118f2565b73ffffffffffffffffffffffffffffffffffffffff167f17307eab39ab6107e8899845ad3d59bd9653f200f220920489ca2b5937696c31836040516110cd9190612f93565b60405180910390a35050565b6110ea6110e46118f2565b83611a1f565b611129576040517f08c379a000000000000000000000000000000000000000000000000000000000815260040161112090613270565b60405180910390fd5b61113584848484612058565b50505050565b6060611146826118fa565b611185576040517f08c379a000000000000000000000000000000000000000000000000000000000815260040161117c90613170565b60405180910390fd5b60006006600084815260200190815260200160002080546111a590613510565b80601f01602080910402602001604051908101604052809291908181526020018280546111d190613510565b801561121e5780601f106111f35761010080835404028352916020019161121e565b820191906000526020600020905b81548152906001019060200180831161120157829003601f168201915b50505050509050600061122f6120b4565b9050600081511415611245578192505050611288565b60008251111561127a578082604051602001611262929190612edf565b60405160208183030381529060405292505050611288565b611283846120cb565b925050505b919050565b6060600a805461129c90613510565b80601f01602080910402602001604051908101604052809291908181526020018280546112c890613510565b80156113155780601f106112ea57610100808354040283529160200191611315565b820191906000526020600020905b8154815290600101906020018083116112f857829003601f168201915b5050505050905090565b6060600a805461132e90613510565b80601f016020809104026020016040519081016040528092919081815260200182805461135a90613510565b80156113a75780601f1061137c576101008083540402835291602001916113a7565b820191906000526020600020905b81548152906001019060200180831161138a57829003601f168201915b5050505050905090565b600080600c60019054906101000a900473ffffffffffffffffffffffffffffffffffffffff1690508273ffffffffffffffffffffffffffffffffffffffff168173ffffffffffffffffffffffffffffffffffffffff1663c4552791866040518263ffffffff1660e01b81526004016114299190612f03565b60206040518083038186803b15801561144157600080fd5b505afa158015611455573d6000803e3d6000fd5b505050506040513d601f19601f8201168201806040525081019061147991906129b2565b73ffffffffffffffffffffffffffffffffffffffff16141561149f5760019150506114ad565b6114a98484612172565b9150505b92915050565b6114bb6118f2565b73ffffffffffffffffffffffffffffffffffffffff166114d9610e92565b73ffffffffffffffffffffffffffffffffffffffff161461152f576040517f08c379a0000000000000000000000000000000000000000000000000000000008152600401611526906131d0565b60405180910390fd5b600073ffffffffffffffffffffffffffffffffffffffff168173ffffffffffffffffffffffffffffffffffffffff16141561159f576040517f08c379a000000000000000000000000000000000000000000000000000000000815260040161159690612ff0565b60405180910390fd5b8073ffffffffffffffffffffffffffffffffffffffff16600760009054906101000a900473ffffffffffffffffffffffffffffffffffffffff1673ffffffffffffffffffffffffffffffffffffffff167f8be0079c531659141344cd1fd0a4f28419497f9722a3daafe3b4186f6b6457e060405160405180910390a380600760006101000a81548173ffffffffffffffffffffffffffffffffffffffff021916908373ffffffffffffffffffffffffffffffffffffffff16021790555050565b600060095461166e6008611d59565b11156116af576040517f08c379a00000000000000000000000000000000000000000000000000000000081526004016116a690613190565b60405180910390fd5b60001515600c60009054906101000a900460ff16151514611705576040517f08c379a00000000000000000000000000000000000000000000000000000000081526004016116fc90613070565b60405180910390fd5b60001515600d60003373ffffffffffffffffffffffffffffffffffffffff1673ffffffffffffffffffffffffffffffffffffffff16815260200190815260200160002060009054906101000a900460ff16151514611798576040517f08c379a000000000000000000000000000000000000000000000000000000000815260040161178f90613210565b60405180910390fd5b6117a26008611d67565b60006117ae6008611d59565b90506001600d60003373ffffffffffffffffffffffffffffffffffffffff1673ffffffffffffffffffffffffffffffffffffffff16815260200190815260200160002060006101000a81548160ff0219169083151502179055506118128382611e19565b61184681600a61182184611e37565b604051602001611832929190612eac565b604051602081830303815290604052611fe4565b7f30385c845b448a36257a6a1716e6ad2e1bc2cbe333cde1e69fe849ad6511adfe3382604051611877929190612f6a565b60405180910390a180915050919050565b60007f01ffc9a7000000000000000000000000000000000000000000000000000000007bffffffffffffffffffffffffffffffffffffffffffffffffffffffff1916827bffffffffffffffffffffffffffffffffffffffffffffffffffffffff1916149050919050565b600033905090565b60008073ffffffffffffffffffffffffffffffffffffffff166002600084815260200190815260200160002060009054906101000a900473ffffffffffffffffffffffffffffffffffffffff1673ffffffffffffffffffffffffffffffffffffffff1614159050919050565b816004600083815260200190815260200160002060006101000a81548173ffffffffffffffffffffffffffffffffffffffff021916908373ffffffffffffffffffffffffffffffffffffffff160217905550808273ffffffffffffffffffffffffffffffffffffffff166119d983610a04565b73ffffffffffffffffffffffffffffffffffffffff167f8c5be1e5ebec7d5bd14f71427d1e84f3dd0314c0f7b2291e5b200ac8c7c3b92560405160405180910390a45050565b6000611a2a826118fa565b611a69576040517f08c379a0000000000000000000000000000000000000000000000000000000008152600401611a6090613090565b60405180910390fd5b6000611a7483610a04565b90508073ffffffffffffffffffffffffffffffffffffffff168473ffffffffffffffffffffffffffffffffffffffff161480611ae357508373ffffffffffffffffffffffffffffffffffffffff16611acb846107c6565b73ffffffffffffffffffffffffffffffffffffffff16145b80611af45750611af381856113b1565b5b91505092915050565b8273ffffffffffffffffffffffffffffffffffffffff16611b1d82610a04565b73ffffffffffffffffffffffffffffffffffffffff1614611b73576040517f08c379a0000000000000000000000000000000000000000000000000000000008152600401611b6a906131f0565b60405180910390fd5b600073ffffffffffffffffffffffffffffffffffffffff168273ffffffffffffffffffffffffffffffffffffffff161415611be3576040517f08c379a0000000000000000000000000000000000000000000000000000000008152600401611bda90613030565b60405180910390fd5b611bee838383612206565b611bf9600082611966565b6001600360008573ffffffffffffffffffffffffffffffffffffffff1673ffffffffffffffffffffffffffffffffffffffff1681526020019081526020016000206000828254611c499190613414565b925050819055506001600360008473ffffffffffffffffffffffffffffffffffffffff1673ffffffffffffffffffffffffffffffffffffffff1681526020019081526020016000206000828254611ca0919061338d565b92505081905550816002600083815260200190815260200160002060006101000a81548173ffffffffffffffffffffffffffffffffffffffff021916908373ffffffffffffffffffffffffffffffffffffffff160217905550808273ffffffffffffffffffffffffffffffffffffffff168473ffffffffffffffffffffffffffffffffffffffff167fddf252ad1be2c89b69c2b068fc378daa952ba7f163c4a11628f55a4df523b3ef60405160405180910390a4505050565b600081600001549050919050565b6001816000016000828254019250508190555050565b611e158282604051602401611d939291906132ab565b6040516020818303038152906040527f6c0f6980000000000000000000000000000000000000000000000000000000007bffffffffffffffffffffffffffffffffffffffffffffffffffffffff19166020820180517bffffffffffffffffffffffffffffffffffffffffffffffffffffffff838183161783525050505061220b565b5050565b611e33828260405180602001604052806000815250612234565b5050565b60606000821415611e7f576040518060400160405280600181526020017f30000000000000000000000000000000000000000000000000000000000000008152509050611fdf565b600082905060005b60008214611eb1578080611e9a90613573565b915050600a82611eaa91906133e3565b9150611e87565b60008167ffffffffffffffff811115611ef3577f4e487b7100000000000000000000000000000000000000000000000000000000600052604160045260246000fd5b6040519080825280601f01601f191660200182016040528015611f255781602001600182028036833780820191505090505b5090505b60008514611fd857600182611f3e9190613414565b9150600a85611f4d91906135bc565b6030611f59919061338d565b60f81b818381518110611f95577f4e487b7100000000000000000000000000000000000000000000000000000000600052603260045260246000fd5b60200101907effffffffffffffffffffffffffffffffffffffffffffffffffffffffffffff1916908160001a905350600a85611fd191906133e3565b9450611f29565b8093505050505b919050565b611fed826118fa565b61202c576040517f08c379a000000000000000000000000000000000000000000000000000000000815260040161202390613110565b60405180910390fd5b80600660008481526020019081526020016000209080519060200190612053929190612607565b505050565b612063848484611afd565b61206f8484848461228f565b6120ae576040517f08c379a00000000000000000000000000000000000000000000000000000000081526004016120a590612fd0565b60405180910390fd5b50505050565b606060405180602001604052806000815250905090565b60606120d6826118fa565b612115576040517f08c379a000000000000000000000000000000000000000000000000000000000815260040161210c90613230565b60405180910390fd5b600061211f6120b4565b9050600081511161213f576040518060200160405280600081525061216a565b8061214984611e37565b60405160200161215a929190612edf565b6040516020818303038152906040525b915050919050565b6000600560008473ffffffffffffffffffffffffffffffffffffffff1673ffffffffffffffffffffffffffffffffffffffff16815260200190815260200160002060008373ffffffffffffffffffffffffffffffffffffffff1673ffffffffffffffffffffffffffffffffffffffff16815260200190815260200160002060009054906101000a900460ff16905092915050565b505050565b60008151905060006a636f6e736f6c652e6c6f679050602083016000808483855afa5050505050565b61223e8383612426565b61224b600084848461228f565b61228a576040517f08c379a000000000000000000000000000000000000000000000000000000000815260040161228190612fd0565b60405180910390fd5b505050565b60006122b08473ffffffffffffffffffffffffffffffffffffffff166125f4565b15612419578373ffffffffffffffffffffffffffffffffffffffff1663150b7a026122d96118f2565b8786866040518563ffffffff1660e01b81526004016122fb9493929190612f1e565b602060405180830381600087803b15801561231557600080fd5b505af192505050801561234657506040513d601f19601f820116820180604052508101906123439190612989565b60015b6123c9573d8060008114612376576040519150601f19603f3d011682016040523d82523d6000602084013e61237b565b606091505b506000815114156123c1576040517f08c379a00000000000000000000000000000000000000000000000000000000081526004016123b890612fd0565b60405180910390fd5b805181602001fd5b63150b7a0260e01b7bffffffffffffffffffffffffffffffffffffffffffffffffffffffff1916817bffffffffffffffffffffffffffffffffffffffffffffffffffffffff19161491505061241e565b600190505b949350505050565b600073ffffffffffffffffffffffffffffffffffffffff168273ffffffffffffffffffffffffffffffffffffffff161415612496576040517f08c379a000000000000000000000000000000000000000000000000000000000815260040161248d90613150565b60405180910390fd5b61249f816118fa565b156124df576040517f08c379a00000000000000000000000000000000000000000000000000000000081526004016124d690613010565b60405180910390fd5b6124eb60008383612206565b6001600360008473ffffffffffffffffffffffffffffffffffffffff1673ffffffffffffffffffffffffffffffffffffffff168152602001908152602001600020600082825461253b919061338d565b92505081905550816002600083815260200190815260200160002060006101000a81548173ffffffffffffffffffffffffffffffffffffffff021916908373ffffffffffffffffffffffffffffffffffffffff160217905550808273ffffffffffffffffffffffffffffffffffffffff16600073ffffffffffffffffffffffffffffffffffffffff167fddf252ad1be2c89b69c2b068fc378daa952ba7f163c4a11628f55a4df523b3ef60405160405180910390a45050565b600080823b905060008111915050919050565b82805461261390613510565b90600052602060002090601f016020900481019282612635576000855561267c565b82601f1061264e57805160ff191683800117855561267c565b8280016001018555821561267c579182015b8281111561267b578251825591602001919060010190612660565b5b509050612689919061268d565b5090565b5b808211156126a657600081600090555060010161268e565b5090565b60006126bd6126b8846132f9565b6132d4565b9050828152602081018484840111156126d557600080fd5b6126e08482856134ce565b509392505050565b6000813590506126f781613c54565b92915050565b60008135905061270c81613c6b565b92915050565b60008135905061272181613c82565b92915050565b60008151905061273681613c82565b92915050565b600082601f83011261274d57600080fd5b813561275d8482602086016126aa565b91505092915050565b60008151905061277581613c99565b92915050565b60008135905061278a81613cb0565b92915050565b6000602082840312156127a257600080fd5b60006127b0848285016126e8565b91505092915050565b600080604083850312156127cc57600080fd5b60006127da858286016126e8565b92505060206127eb858286016126e8565b9150509250929050565b60008060006060848603121561280a57600080fd5b6000612818868287016126e8565b9350506020612829868287016126e8565b925050604061283a8682870161277b565b9150509250925092565b6000806000806080858703121561285a57600080fd5b6000612868878288016126e8565b9450506020612879878288016126e8565b935050604061288a8782880161277b565b925050606085013567ffffffffffffffff8111156128a757600080fd5b6128b38782880161273c565b91505092959194509250565b600080604083850312156128d257600080fd5b60006128e0858286016126e8565b92505060206128f1858286016126fd565b9150509250929050565b6000806040838503121561290e57600080fd5b600061291c858286016126e8565b925050602061292d8582860161277b565b9150509250929050565b60006020828403121561294957600080fd5b6000612957848285016126fd565b91505092915050565b60006020828403121561297257600080fd5b600061298084828501612712565b91505092915050565b60006020828403121561299b57600080fd5b60006129a984828501612727565b91505092915050565b6000602082840312156129c457600080fd5b60006129d284828501612766565b91505092915050565b6000602082840312156129ed57600080fd5b60006129fb8482850161277b565b91505092915050565b612a0d81613448565b82525050565b612a1c8161345a565b82525050565b6000612a2d8261333f565b612a378185613355565b9350612a478185602086016134dd565b612a50816136a9565b840191505092915050565b6000612a668261333f565b612a708185613366565b9350612a808185602086016134dd565b80840191505092915050565b60008154612a9981613510565b612aa38186613366565b94506001821660008114612abe5760018114612acf57612b02565b60ff19831686528186019350612b02565b612ad88561332a565b60005b83811015612afa57815481890152600182019150602081019050612adb565b838801955050505b50505092915050565b6000612b168261334a565b612b208185613371565b9350612b308185602086016134dd565b612b39816136a9565b840191505092915050565b6000612b4f8261334a565b612b598185613382565b9350612b698185602086016134dd565b80840191505092915050565b6000612b82603283613371565b9150612b8d826136ba565b604082019050919050565b6000612ba5602683613371565b9150612bb082613709565b604082019050919050565b6000612bc8601c83613371565b9150612bd382613758565b602082019050919050565b6000612beb602483613371565b9150612bf682613781565b604082019050919050565b6000612c0e601983613371565b9150612c19826137d0565b602082019050919050565b6000612c31601883613371565b9150612c3c826137f9565b602082019050919050565b6000612c54602c83613371565b9150612c5f82613822565b604082019050919050565b6000612c77603883613371565b9150612c8282613871565b604082019050919050565b6000612c9a602a83613371565b9150612ca5826138c0565b604082019050919050565b6000612cbd602983613371565b9150612cc88261390f565b604082019050919050565b6000612ce0602e83613371565b9150612ceb8261395e565b604082019050919050565b6000612d03601283613371565b9150612d0e826139ad565b602082019050919050565b6000612d26602083613371565b9150612d31826139d6565b602082019050919050565b6000612d49603183613371565b9150612d54826139ff565b604082019050919050565b6000612d6c601983613371565b9150612d7782613a4e565b602082019050919050565b6000612d8f602c83613371565b9150612d9a82613a77565b604082019050919050565b6000612db2602083613371565b9150612dbd82613ac6565b602082019050919050565b6000612dd5602983613371565b9150612de082613aef565b604082019050919050565b6000612df8600e83613371565b9150612e0382613b3e565b602082019050919050565b6000612e1b602f83613371565b9150612e2682613b67565b604082019050919050565b6000612e3e602183613371565b9150612e4982613bb6565b604082019050919050565b6000612e61603183613371565b9150612e6c82613c05565b604082019050919050565b7f2f00000000000000000000000000000000000000000000000000000000000000815250565b612ea6816134c4565b82525050565b6000612eb88285612a8c565b9150612ec382612e77565b600182019150612ed38284612a5b565b91508190509392505050565b6000612eeb8285612b44565b9150612ef78284612b44565b91508190509392505050565b6000602082019050612f186000830184612a04565b92915050565b6000608082019050612f336000830187612a04565b612f406020830186612a04565b612f4d6040830185612e9d565b8181036060830152612f5f8184612a22565b905095945050505050565b6000604082019050612f7f6000830185612a04565b612f8c6020830184612e9d565b9392505050565b6000602082019050612fa86000830184612a13565b92915050565b60006020820190508181036000830152612fc88184612b0b565b905092915050565b60006020820190508181036000830152612fe981612b75565b9050919050565b6000602082019050818103600083015261300981612b98565b9050919050565b6000602082019050818103600083015261302981612bbb565b9050919050565b6000602082019050818103600083015261304981612bde565b9050919050565b6000602082019050818103600083015261306981612c01565b9050919050565b6000602082019050818103600083015261308981612c24565b9050919050565b600060208201905081810360008301526130a981612c47565b9050919050565b600060208201905081810360008301526130c981612c6a565b9050919050565b600060208201905081810360008301526130e981612c8d565b9050919050565b6000602082019050818103600083015261310981612cb0565b9050919050565b6000602082019050818103600083015261312981612cd3565b9050919050565b6000602082019050818103600083015261314981612cf6565b9050919050565b6000602082019050818103600083015261316981612d19565b9050919050565b6000602082019050818103600083015261318981612d3c565b9050919050565b600060208201905081810360008301526131a981612d5f565b9050919050565b600060208201905081810360008301526131c981612d82565b9050919050565b600060208201905081810360008301526131e981612da5565b9050919050565b6000602082019050818103600083015261320981612dc8565b9050919050565b6000602082019050818103600083015261322981612deb565b9050919050565b6000602082019050818103600083015261324981612e0e565b9050919050565b6000602082019050818103600083015261326981612e31565b9050919050565b6000602082019050818103600083015261328981612e54565b9050919050565b60006020820190506132a56000830184612e9d565b92915050565b60006040820190506132c06000830185612e9d565b6132cd6020830184612e9d565b9392505050565b60006132de6132ef565b90506132ea8282613542565b919050565b6000604051905090565b600067ffffffffffffffff8211156133145761331361367a565b5b61331d826136a9565b9050602081019050919050565b60008190508160005260206000209050919050565b600081519050919050565b600081519050919050565b600082825260208201905092915050565b600081905092915050565b600082825260208201905092915050565b600081905092915050565b6000613398826134c4565b91506133a3836134c4565b9250827fffffffffffffffffffffffffffffffffffffffffffffffffffffffffffffffff038211156133d8576133d76135ed565b5b828201905092915050565b60006133ee826134c4565b91506133f9836134c4565b9250826134095761340861361c565b5b828204905092915050565b600061341f826134c4565b915061342a836134c4565b92508282101561343d5761343c6135ed565b5b828203905092915050565b6000613453826134a4565b9050919050565b60008115159050919050565b60007fffffffff0000000000000000000000000000000000000000000000000000000082169050919050565b600061349d82613448565b9050919050565b600073ffffffffffffffffffffffffffffffffffffffff82169050919050565b6000819050919050565b82818337600083830152505050565b60005b838110156134fb5780820151818401526020810190506134e0565b8381111561350a576000848401525b50505050565b6000600282049050600182168061352857607f821691505b6020821081141561353c5761353b61364b565b5b50919050565b61354b826136a9565b810181811067ffffffffffffffff8211171561356a5761356961367a565b5b80604052505050565b600061357e826134c4565b91507fffffffffffffffffffffffffffffffffffffffffffffffffffffffffffffffff8214156135b1576135b06135ed565b5b600182019050919050565b60006135c7826134c4565b91506135d2836134c4565b9250826135e2576135e161361c565b5b828206905092915050565b7f4e487b7100000000000000000000000000000000000000000000000000000000600052601160045260246000fd5b7f4e487b7100000000000000000000000000000000000000000000000000000000600052601260045260246000fd5b7f4e487b7100000000000000000000000000000000000000000000000000000000600052602260045260246000fd5b7f4e487b7100000000000000000000000000000000000000000000000000000000600052604160045260246000fd5b6000601f19601f8301169050919050565b7f4552433732313a207472616e7366657220746f206e6f6e20455243373231526560008201527f63656976657220696d706c656d656e7465720000000000000000000000000000602082015250565b7f4f776e61626c653a206e6577206f776e657220697320746865207a65726f206160008201527f6464726573730000000000000000000000000000000000000000000000000000602082015250565b7f4552433732313a20746f6b656e20616c7265616479206d696e74656400000000600082015250565b7f4552433732313a207472616e7366657220746f20746865207a65726f2061646460008201527f7265737300000000000000000000000000000000000000000000000000000000602082015250565b7f4552433732313a20617070726f766520746f2063616c6c657200000000000000600082015250565b7f536f7272792c20706175736564206d696e74696e67203a280000000000000000600082015250565b7f4552433732313a206f70657261746f7220717565727920666f72206e6f6e657860008201527f697374656e7420746f6b656e0000000000000000000000000000000000000000602082015250565b7f4552433732313a20617070726f76652063616c6c6572206973206e6f74206f7760008201527f6e6572206e6f7220617070726f76656420666f7220616c6c0000000000000000602082015250565b7f4552433732313a2062616c616e636520717565727920666f7220746865207a6560008201527f726f206164647265737300000000000000000000000000000000000000000000602082015250565b7f4552433732313a206f776e657220717565727920666f72206e6f6e657869737460008201527f656e7420746f6b656e0000000000000000000000000000000000000000000000602082015250565b7f45524337323155524953746f726167653a2055524920736574206f66206e6f6e60008201527f6578697374656e7420746f6b656e000000000000000000000000000000000000602082015250565b7f496e737566696369656e7420616d6f756e740000000000000000000000000000600082015250565b7f4552433732313a206d696e7420746f20746865207a65726f2061646472657373600082015250565b7f45524337323155524953746f726167653a2055524920717565727920666f722060008201527f6e6f6e6578697374656e7420746f6b656e000000000000000000000000000000602082015250565b7f43616e277420657863656564204d41585f454c454d454e545300000000000000600082015250565b7f4552433732313a20617070726f76656420717565727920666f72206e6f6e657860008201527f697374656e7420746f6b656e0000000000000000000000000000000000000000602082015250565b7f4f776e61626c653a2063616c6c6572206973206e6f7420746865206f776e6572600082015250565b7f4552433732313a207472616e73666572206f6620746f6b656e2074686174206960008201527f73206e6f74206f776e0000000000000000000000000000000000000000000000602082015250565b7f4d6178656420667265656d696e74000000000000000000000000000000000000600082015250565b7f4552433732314d657461646174613a2055524920717565727920666f72206e6f60008201527f6e6578697374656e7420746f6b656e0000000000000000000000000000000000602082015250565b7f4552433732313a20617070726f76616c20746f2063757272656e74206f776e6560008201527f7200000000000000000000000000000000000000000000000000000000000000602082015250565b7f4552433732313a207472616e736665722063616c6c6572206973206e6f74206f60008201527f776e6572206e6f7220617070726f766564000000000000000000000000000000602082015250565b613c5d81613448565b8114613c6857600080fd5b50565b613c748161345a565b8114613c7f57600080fd5b50565b613c8b81613466565b8114613c9657600080fd5b50565b613ca281613492565b8114613cad57600080fd5b50565b613cb9816134c4565b8114613cc457600080fd5b5056fea2646970667358221220658ae8bccb07dcd7367aea61ab3d5460fd0a0ffa4ab56b0204a6396f9a107b3864736f6c63430008040033",
  "linkReferences": {},
  "deployedLinkReferences": {}
}