{
  "_format": "hh-sol-artifact-1",
  "contractName": "TheBadYonkies",
  "sourceName": "contracts/NFT.sol",
  "abi": [
    {
      "inputs": [
        {
          "internalType": "string",
          "name": "_name",
          "type": "string"
        },
        {
          "internalType": "string",
          "name": "_symbol",
          "type": "string"
        },
        {
          "internalType": "string",
          "name": "_BASE_TOKEN_URI",
          "type": "string"
        },
        {
          "internalType": "uint256",
          "name": "_MAX_ELEMENTS",
          "type": "uint256"
        },
        {
          "internalType": "uint256",
          "name": "_PRICE",
          "type": "uint256"
        },
        {
          "internalType": "address",
          "name": "_proxyRegistryAddress",
          "type": "address"
        }
      ],
      "stateMutability": "nonpayable",
      "type": "constructor"
    },
    {
      "anonymous": false,
      "inputs": [
        {
          "indexed": true,
          "internalType": "address",
          "name": "owner",
          "type": "address"
        },
        {
          "indexed": true,
          "internalType": "address",
          "name": "approved",
          "type": "address"
        },
        {
          "indexed": true,
          "internalType": "uint256",
          "name": "tokenId",
          "type": "uint256"
        }
      ],
      "name": "Approval",
      "type": "event"
    },
    {
      "anonymous": false,
      "inputs": [
        {
          "indexed": true,
          "internalType": "address",
          "name": "owner",
          "type": "address"
        },
        {
          "indexed": true,
          "internalType": "address",
          "name": "operator",
          "type": "address"
        },
        {
          "indexed": false,
          "internalType": "bool",
          "name": "approved",
          "type": "bool"
        }
      ],
      "name": "ApprovalForAll",
      "type": "event"
    },
    {
      "anonymous": false,
      "inputs": [
        {
          "indexed": false,
          "internalType": "address",
          "name": "player",
          "type": "address"
        },
        {
          "indexed": false,
          "internalType": "uint256",
          "name": "tokenId",
          "type": "uint256"
        }
      ],
      "name": "Minted",
      "type": "event"
    },
    {
      "anonymous": false,
      "inputs": [
        {
          "indexed": true,
          "internalType": "address",
          "name": "previousOwner",
          "type": "address"
        },
        {
          "indexed": true,
          "internalType": "address",
          "name": "newOwner",
          "type": "address"
        }
      ],
      "name": "OwnershipTransferred",
      "type": "event"
    },
    {
      "anonymous": false,
      "inputs": [
        {
          "indexed": true,
          "internalType": "address",
          "name": "from",
          "type": "address"
        },
        {
          "indexed": true,
          "internalType": "address",
          "name": "to",
          "type": "address"
        },
        {
          "indexed": true,
          "internalType": "uint256",
          "name": "tokenId",
          "type": "uint256"
        }
      ],
      "name": "Transfer",
      "type": "event"
    },
    {
      "inputs": [
        {
          "internalType": "address",
          "name": "to",
          "type": "address"
        },
        {
          "internalType": "uint256",
          "name": "tokenId",
          "type": "uint256"
        }
      ],
      "name": "approve",
      "outputs": [],
      "stateMutability": "nonpayable",
      "type": "function"
    },
    {
      "inputs": [
        {
          "internalType": "address",
          "name": "owner",
          "type": "address"
        }
      ],
      "name": "balanceOf",
      "outputs": [
        {
          "internalType": "uint256",
          "name": "",
          "type": "uint256"
        }
      ],
      "stateMutability": "view",
      "type": "function"
    },
    {
      "inputs": [],
      "name": "baseTokenURI",
      "outputs": [
        {
          "internalType": "string",
          "name": "",
          "type": "string"
        }
      ],
      "stateMutability": "view",
      "type": "function"
    },
    {
      "inputs": [
        {
          "internalType": "address",
          "name": "player",
          "type": "address"
        }
      ],
      "name": "freeMint",
      "outputs": [
        {
          "internalType": "uint256",
          "name": "",
          "type": "uint256"
        }
      ],
      "stateMutability": "nonpayable",
      "type": "function"
    },
    {
      "inputs": [
        {
          "internalType": "uint256",
          "name": "tokenId",
          "type": "uint256"
        }
      ],
      "name": "getApproved",
      "outputs": [
        {
          "internalType": "address",
          "name": "",
          "type": "address"
        }
      ],
      "stateMutability": "view",
      "type": "function"
    },
    {
      "inputs": [],
      "name": "getMaxElements",
      "outputs": [
        {
          "internalType": "uint256",
          "name": "",
          "type": "uint256"
        }
      ],
      "stateMutability": "view",
      "type": "function"
    },
    {
      "inputs": [],
      "name": "getPrice",
      "outputs": [
        {
          "internalType": "uint256",
          "name": "",
          "type": "uint256"
        }
      ],
      "stateMutability": "view",
      "type": "function"
    },
    {
      "inputs": [],
      "name": "getStatus",
      "outputs": [
        {
          "internalType": "bool",
          "name": "",
          "type": "bool"
        }
      ],
      "stateMutability": "view",
      "type": "function"
    },
    {
      "inputs": [
        {
          "internalType": "address",
          "name": "owner",
          "type": "address"
        },
        {
          "internalType": "address",
          "name": "operator",
          "type": "address"
        }
      ],
      "name": "isApprovedForAll",
      "outputs": [
        {
          "internalType": "bool",
          "name": "",
          "type": "bool"
        }
      ],
      "stateMutability": "view",
      "type": "function"
    },
    {
      "inputs": [
        {
          "internalType": "address",
          "name": "player",
          "type": "address"
        }
      ],
      "name": "mint",
      "outputs": [
        {
          "internalType": "uint256",
          "name": "",
          "type": "uint256"
        }
      ],
      "stateMutability": "payable",
      "type": "function"
    },
    {
      "inputs": [],
      "name": "name",
      "outputs": [
        {
          "internalType": "string",
          "name": "",
          "type": "string"
        }
      ],
      "stateMutability": "view",
      "type": "function"
    },
    {
      "inputs": [],
      "name": "owner",
      "outputs": [
        {
          "internalType": "address",
          "name": "",
          "type": "address"
        }
      ],
      "stateMutability": "view",
      "type": "function"
    },
    {
      "inputs": [
        {
          "internalType": "uint256",
          "name": "tokenId",
          "type": "uint256"
        }
      ],
      "name": "ownerOf",
      "outputs": [
        {
          "internalType": "address",
          "name": "",
          "type": "address"
        }
      ],
      "stateMutability": "view",
      "type": "function"
    },
    {
      "inputs": [
        {
          "internalType": "bool",
          "name": "status",
          "type": "bool"
        }
      ],
      "name": "pause",
      "outputs": [],
      "stateMutability": "nonpayable",
      "type": "function"
    },
    {
      "inputs": [],
      "name": "renounceOwnership",
      "outputs": [],
      "stateMutability": "nonpayable",
      "type": "function"
    },
    {
      "inputs": [
        {
          "internalType": "address",
          "name": "from",
          "type": "address"
        },
        {
          "internalType": "address",
          "name": "to",
          "type": "address"
        },
        {
          "internalType": "uint256",
          "name": "tokenId",
          "type": "uint256"
        }
      ],
      "name": "safeTransferFrom",
      "outputs": [],
      "stateMutability": "nonpayable",
      "type": "function"
    },
    {
      "inputs": [
        {
          "internalType": "address",
          "name": "from",
          "type": "address"
        },
        {
          "internalType": "address",
          "name": "to",
          "type": "address"
        },
        {
          "internalType": "uint256",
          "name": "tokenId",
          "type": "uint256"
        },
        {
          "internalType": "bytes",
          "name": "_data",
          "type": "bytes"
        }
      ],
      "name": "safeTransferFrom",
      "outputs": [],
      "stateMutability": "nonpayable",
      "type": "function"
    },
    {
      "inputs": [
        {
          "internalType": "address",
          "name": "operator",
          "type": "address"
        },
        {
          "internalType": "bool",
          "name": "approved",
          "type": "bool"
        }
      ],
      "name": "setApprovalForAll",
      "outputs": [],
      "stateMutability": "nonpayable",
      "type": "function"
    },
    {
      "inputs": [
        {
          "internalType": "bytes4",
          "name": "interfaceId",
          "type": "bytes4"
        }
      ],
      "name": "supportsInterface",
      "outputs": [
        {
          "internalType": "bool",
          "name": "",
          "type": "bool"
        }
      ],
      "stateMutability": "view",
      "type": "function"
    },
    {
      "inputs": [],
      "name": "symbol",
      "outputs": [
        {
          "internalType": "string",
          "name": "",
          "type": "string"
        }
      ],
      "stateMutability": "view",
      "type": "function"
    },
    {
      "inputs": [
        {
          "internalType": "uint256",
          "name": "tokenId",
          "type": "uint256"
        }
      ],
      "name": "tokenURI",
      "outputs": [
        {
          "internalType": "string",
          "name": "",
          "type": "string"
        }
      ],
      "stateMutability": "view",
      "type": "function"
    },
    {
      "inputs": [
        {
          "internalType": "address",
          "name": "from",
          "type": "address"
        },
        {
          "internalType": "address",
          "name": "to",
          "type": "address"
        },
        {
          "internalType": "uint256",
          "name": "tokenId",
          "type": "uint256"
        }
      ],
      "name": "transferFrom",
      "outputs": [],
      "stateMutability": "nonpayable",
      "type": "function"
    },
    {
      "inputs": [
        {
          "internalType": "address",
          "name": "newOwner",
          "type": "address"
        }
      ],
      "name": "transferOwnership",
      "outputs": [],
      "stateMutability": "nonpayable",
      "type": "function"
    }
  ],
  "bytecode": "0x60806040526000600c60006101000a81548160ff0219169083151502179055503480156200002c57600080fd5b506040516200420d3803806200420d833981810160405281019062000052919062000305565b858581600090805190602001906200006c929190620001b5565b50806001908051906020019062000085929190620001b5565b50505060006200009a620001ad60201b60201c565b905080600760006101000a81548173ffffffffffffffffffffffffffffffffffffffff021916908373ffffffffffffffffffffffffffffffffffffffff1602179055508073ffffffffffffffffffffffffffffffffffffffff16600073ffffffffffffffffffffffffffffffffffffffff167f8be0079c531659141344cd1fd0a4f28419497f9722a3daafe3b4186f6b6457e060405160405180910390a35080600c60016101000a81548173ffffffffffffffffffffffffffffffffffffffff021916908373ffffffffffffffffffffffffffffffffffffffff16021790555083600a908051906020019062000192929190620001b5565b508260098190555081600b81905550505050505050620005c8565b600033905090565b828054620001c390620004b9565b90600052602060002090601f016020900481019282620001e7576000855562000233565b82601f106200020257805160ff191683800117855562000233565b8280016001018555821562000233579182015b828111156200023257825182559160200191906001019062000215565b5b50905062000242919062000246565b5090565b5b808211156200026157600081600090555060010162000247565b5090565b60006200027c62000276846200040f565b620003e6565b9050828152602081018484840111156200029557600080fd5b620002a284828562000483565b509392505050565b600081519050620002bb8162000594565b92915050565b600082601f830112620002d357600080fd5b8151620002e584826020860162000265565b91505092915050565b600081519050620002ff81620005ae565b92915050565b60008060008060008060c087890312156200031f57600080fd5b600087015167ffffffffffffffff8111156200033a57600080fd5b6200034889828a01620002c1565b965050602087015167ffffffffffffffff8111156200036657600080fd5b6200037489828a01620002c1565b955050604087015167ffffffffffffffff8111156200039257600080fd5b620003a089828a01620002c1565b9450506060620003b389828a01620002ee565b9350506080620003c689828a01620002ee565b92505060a0620003d989828a01620002aa565b9150509295509295509295565b6000620003f262000405565b9050620004008282620004ef565b919050565b6000604051905090565b600067ffffffffffffffff8211156200042d576200042c62000554565b5b620004388262000583565b9050602081019050919050565b6000620004528262000459565b9050919050565b600073ffffffffffffffffffffffffffffffffffffffff82169050919050565b6000819050919050565b60005b83811015620004a357808201518184015260208101905062000486565b83811115620004b3576000848401525b50505050565b60006002820490506001821680620004d257607f821691505b60208210811415620004e957620004e862000525565b5b50919050565b620004fa8262000583565b810181811067ffffffffffffffff821117156200051c576200051b62000554565b5b80604052505050565b7f4e487b7100000000000000000000000000000000000000000000000000000000600052602260045260246000fd5b7f4e487b7100000000000000000000000000000000000000000000000000000000600052604160045260246000fd5b6000601f19601f8301169050919050565b6200059f8162000445565b8114620005ab57600080fd5b50565b620005b98162000479565b8114620005c557600080fd5b50565b613c3580620005d86000396000f3fe6080604052600436106101405760003560e01c806370a08231116100b6578063b88d4fde1161006f578063b88d4fde1461044f578063c87b56dd14610478578063d547cfb7146104b5578063e985e9c5146104e0578063f2fde38b1461051d578063fa07ce1d1461054657610140565b806370a0823114610351578063715018a61461038e5780638da5cb5b146103a557806395d89b41146103d057806398d5fdca146103fb578063a22cb4651461042657610140565b806323b872dd1161010857806323b872dd1461023c578063368e167a1461026557806342842e0e146102905780634e69d560146102b95780636352211e146102e45780636a6278421461032157610140565b806301ffc9a71461014557806302329a291461018257806306fdde03146101ab578063081812fc146101d6578063095ea7b314610213575b600080fd5b34801561015157600080fd5b5061016c60048036038101906101679190612898565b610583565b6040516101799190612ecb565b60405180910390f35b34801561018e57600080fd5b506101a960048036038101906101a4919061286f565b610665565b005b3480156101b757600080fd5b506101c06106fe565b6040516101cd9190612ee6565b60405180910390f35b3480156101e257600080fd5b506101fd60048036038101906101f89190612913565b610790565b60405161020a9190612e3b565b60405180910390f35b34801561021f57600080fd5b5061023a60048036038101906102359190612833565b610815565b005b34801561024857600080fd5b50610263600480360381019061025e919061272d565b61092d565b005b34801561027157600080fd5b5061027a61098d565b60405161028791906131c8565b60405180910390f35b34801561029c57600080fd5b506102b760048036038101906102b2919061272d565b610997565b005b3480156102c557600080fd5b506102ce6109b7565b6040516102db9190612ecb565b60405180910390f35b3480156102f057600080fd5b5061030b60048036038101906103069190612913565b6109ce565b6040516103189190612e3b565b60405180910390f35b61033b600480360381019061033691906126c8565b610a80565b60405161034891906131c8565b60405180910390f35b34801561035d57600080fd5b50610378600480360381019061037391906126c8565b610c67565b60405161038591906131c8565b60405180910390f35b34801561039a57600080fd5b506103a3610d1f565b005b3480156103b157600080fd5b506103ba610e5c565b6040516103c79190612e3b565b60405180910390f35b3480156103dc57600080fd5b506103e5610e86565b6040516103f29190612ee6565b60405180910390f35b34801561040757600080fd5b50610410610f18565b60405161041d91906131c8565b60405180910390f35b34801561043257600080fd5b5061044d600480360381019061044891906127f7565b610f22565b005b34801561045b57600080fd5b506104766004803603810190610471919061277c565b6110a3565b005b34801561048457600080fd5b5061049f600480360381019061049a9190612913565b611105565b6040516104ac9190612ee6565b60405180910390f35b3480156104c157600080fd5b506104ca611257565b6040516104d79190612ee6565b60405180910390f35b3480156104ec57600080fd5b50610507600480360381019061050291906126f1565b6112e9565b6040516105149190612ecb565b60405180910390f35b34801561052957600080fd5b50610544600480360381019061053f91906126c8565b6113eb565b005b34801561055257600080fd5b5061056d600480360381019061056891906126c8565b611597565b60405161057a91906131c8565b60405180910390f35b60007f80ac58cd000000000000000000000000000000000000000000000000000000007bffffffffffffffffffffffffffffffffffffffffffffffffffffffff1916827bffffffffffffffffffffffffffffffffffffffffffffffffffffffff1916148061064e57507f5b5e139f000000000000000000000000000000000000000000000000000000007bffffffffffffffffffffffffffffffffffffffffffffffffffffffff1916827bffffffffffffffffffffffffffffffffffffffffffffffffffffffff1916145b8061065e575061065d826117c0565b5b9050919050565b61066d61182a565b73ffffffffffffffffffffffffffffffffffffffff1661068b610e5c565b73ffffffffffffffffffffffffffffffffffffffff16146106e1576040517f08c379a00000000000000000000000000000000000000000000000000000000081526004016106d890613108565b60405180910390fd5b80600c60006101000a81548160ff02191690831515021790555050565b60606000805461070d90613448565b80601f016020809104026020016040519081016040528092919081815260200182805461073990613448565b80156107865780601f1061075b57610100808354040283529160200191610786565b820191906000526020600020905b81548152906001019060200180831161076957829003601f168201915b5050505050905090565b600061079b82611832565b6107da576040517f08c379a00000000000000000000000000000000000000000000000000000000081526004016107d1906130e8565b60405180910390fd5b6004600083815260200190815260200160002060009054906101000a900473ffffffffffffffffffffffffffffffffffffffff169050919050565b6000610820826109ce565b90508073ffffffffffffffffffffffffffffffffffffffff168373ffffffffffffffffffffffffffffffffffffffff161415610891576040517f08c379a000000000000000000000000000000000000000000000000000000000815260040161088890613188565b60405180910390fd5b8073ffffffffffffffffffffffffffffffffffffffff166108b061182a565b73ffffffffffffffffffffffffffffffffffffffff1614806108df57506108de816108d961182a565b6112e9565b5b61091e576040517f08c379a000000000000000000000000000000000000000000000000000000000815260040161091590612fe8565b60405180910390fd5b610928838361189e565b505050565b61093e61093861182a565b82611957565b61097d576040517f08c379a0000000000000000000000000000000000000000000000000000000008152600401610974906131a8565b60405180910390fd5b610988838383611a35565b505050565b6000600954905090565b6109b2838383604051806020016040528060008152506110a3565b505050565b6000600c60009054906101000a900460ff16905090565b6000806002600084815260200190815260200160002060009054906101000a900473ffffffffffffffffffffffffffffffffffffffff169050600073ffffffffffffffffffffffffffffffffffffffff168173ffffffffffffffffffffffffffffffffffffffff161415610a77576040517f08c379a0000000000000000000000000000000000000000000000000000000008152600401610a6e90613028565b60405180910390fd5b80915050919050565b6000600954610a8f6008611c91565b1115610ad0576040517f08c379a0000000000000000000000000000000000000000000000000000000008152600401610ac7906130c8565b60405180910390fd5b60001515600c60009054906101000a900460ff16151514610b26576040517f08c379a0000000000000000000000000000000000000000000000000000000008152600401610b1d90612fa8565b60405180910390fd5b610b306008611c9f565b6000610b3c6008611c91565b90506001600d60003373ffffffffffffffffffffffffffffffffffffffff1673ffffffffffffffffffffffffffffffffffffffff16815260200190815260200160002060006101000a81548160ff021916908315150217905550610ba234600b54611cb5565b600b54341015610be7576040517f08c379a0000000000000000000000000000000000000000000000000000000008152600401610bde90613068565b60405180910390fd5b610bf18382611d51565b610c2581600a610c0084611d6f565b604051602001610c11929190612de4565b604051602081830303815290604052611f1c565b7f30385c845b448a36257a6a1716e6ad2e1bc2cbe333cde1e69fe849ad6511adfe3382604051610c56929190612ea2565b60405180910390a180915050919050565b60008073ffffffffffffffffffffffffffffffffffffffff168273ffffffffffffffffffffffffffffffffffffffff161415610cd8576040517f08c379a0000000000000000000000000000000000000000000000000000000008152600401610ccf90613008565b60405180910390fd5b600360008373ffffffffffffffffffffffffffffffffffffffff1673ffffffffffffffffffffffffffffffffffffffff168152602001908152602001600020549050919050565b610d2761182a565b73ffffffffffffffffffffffffffffffffffffffff16610d45610e5c565b73ffffffffffffffffffffffffffffffffffffffff1614610d9b576040517f08c379a0000000000000000000000000000000000000000000000000000000008152600401610d9290613108565b60405180910390fd5b600073ffffffffffffffffffffffffffffffffffffffff16600760009054906101000a900473ffffffffffffffffffffffffffffffffffffffff1673ffffffffffffffffffffffffffffffffffffffff167f8be0079c531659141344cd1fd0a4f28419497f9722a3daafe3b4186f6b6457e060405160405180910390a36000600760006101000a81548173ffffffffffffffffffffffffffffffffffffffff021916908373ffffffffffffffffffffffffffffffffffffffff160217905550565b6000600760009054906101000a900473ffffffffffffffffffffffffffffffffffffffff16905090565b606060018054610e9590613448565b80601f0160208091040260200160405190810160405280929190818152602001828054610ec190613448565b8015610f0e5780601f10610ee357610100808354040283529160200191610f0e565b820191906000526020600020905b815481529060010190602001808311610ef157829003601f168201915b5050505050905090565b6000600b54905090565b610f2a61182a565b73ffffffffffffffffffffffffffffffffffffffff168273ffffffffffffffffffffffffffffffffffffffff161415610f98576040517f08c379a0000000000000000000000000000000000000000000000000000000008152600401610f8f90612f88565b60405180910390fd5b8060056000610fa561182a565b73ffffffffffffffffffffffffffffffffffffffff1673ffffffffffffffffffffffffffffffffffffffff16815260200190815260200160002060008473ffffffffffffffffffffffffffffffffffffffff1673ffffffffffffffffffffffffffffffffffffffff16815260200190815260200160002060006101000a81548160ff0219169083151502179055508173ffffffffffffffffffffffffffffffffffffffff1661105261182a565b73ffffffffffffffffffffffffffffffffffffffff167f17307eab39ab6107e8899845ad3d59bd9653f200f220920489ca2b5937696c31836040516110979190612ecb565b60405180910390a35050565b6110b46110ae61182a565b83611957565b6110f3576040517f08c379a00000000000000000000000000000000000000000000000000000000081526004016110ea906131a8565b60405180910390fd5b6110ff84848484611f90565b50505050565b606061111082611832565b61114f576040517f08c379a0000000000000000000000000000000000000000000000000000000008152600401611146906130a8565b60405180910390fd5b600060066000848152602001908152602001600020805461116f90613448565b80601f016020809104026020016040519081016040528092919081815260200182805461119b90613448565b80156111e85780601f106111bd576101008083540402835291602001916111e8565b820191906000526020600020905b8154815290600101906020018083116111cb57829003601f168201915b5050505050905060006111f9611fec565b905060008151141561120f578192505050611252565b60008251111561124457808260405160200161122c929190612e17565b60405160208183030381529060405292505050611252565b61124d84612003565b925050505b919050565b6060600a805461126690613448565b80601f016020809104026020016040519081016040528092919081815260200182805461129290613448565b80156112df5780601f106112b4576101008083540402835291602001916112df565b820191906000526020600020905b8154815290600101906020018083116112c257829003601f168201915b5050505050905090565b600080600c60019054906101000a900473ffffffffffffffffffffffffffffffffffffffff1690508273ffffffffffffffffffffffffffffffffffffffff168173ffffffffffffffffffffffffffffffffffffffff1663c4552791866040518263ffffffff1660e01b81526004016113619190612e3b565b60206040518083038186803b15801561137957600080fd5b505afa15801561138d573d6000803e3d6000fd5b505050506040513d601f19601f820116820180604052508101906113b191906128ea565b73ffffffffffffffffffffffffffffffffffffffff1614156113d75760019150506113e5565b6113e184846120aa565b9150505b92915050565b6113f361182a565b73ffffffffffffffffffffffffffffffffffffffff16611411610e5c565b73ffffffffffffffffffffffffffffffffffffffff1614611467576040517f08c379a000000000000000000000000000000000000000000000000000000000815260040161145e90613108565b60405180910390fd5b600073ffffffffffffffffffffffffffffffffffffffff168173ffffffffffffffffffffffffffffffffffffffff1614156114d7576040517f08c379a00000000000000000000000000000000000000000000000000000000081526004016114ce90612f28565b60405180910390fd5b8073ffffffffffffffffffffffffffffffffffffffff16600760009054906101000a900473ffffffffffffffffffffffffffffffffffffffff1673ffffffffffffffffffffffffffffffffffffffff167f8be0079c531659141344cd1fd0a4f28419497f9722a3daafe3b4186f6b6457e060405160405180910390a380600760006101000a81548173ffffffffffffffffffffffffffffffffffffffff021916908373ffffffffffffffffffffffffffffffffffffffff16021790555050565b60006009546115a66008611c91565b11156115e7576040517f08c379a00000000000000000000000000000000000000000000000000000000081526004016115de906130c8565b60405180910390fd5b60001515600c60009054906101000a900460ff1615151461163d576040517f08c379a000000000000000000000000000000000000000000000000000000000815260040161163490612fa8565b60405180910390fd5b60001515600d60003373ffffffffffffffffffffffffffffffffffffffff1673ffffffffffffffffffffffffffffffffffffffff16815260200190815260200160002060009054906101000a900460ff161515146116d0576040517f08c379a00000000000000000000000000000000000000000000000000000000081526004016116c790613148565b60405180910390fd5b6116da6008611c9f565b60006116e66008611c91565b90506001600d60003373ffffffffffffffffffffffffffffffffffffffff1673ffffffffffffffffffffffffffffffffffffffff16815260200190815260200160002060006101000a81548160ff02191690831515021790555061174a8382611d51565b61177e81600a61175984611d6f565b60405160200161176a929190612de4565b604051602081830303815290604052611f1c565b7f30385c845b448a36257a6a1716e6ad2e1bc2cbe333cde1e69fe849ad6511adfe33826040516117af929190612ea2565b60405180910390a180915050919050565b60007f01ffc9a7000000000000000000000000000000000000000000000000000000007bffffffffffffffffffffffffffffffffffffffffffffffffffffffff1916827bffffffffffffffffffffffffffffffffffffffffffffffffffffffff1916149050919050565b600033905090565b60008073ffffffffffffffffffffffffffffffffffffffff166002600084815260200190815260200160002060009054906101000a900473ffffffffffffffffffffffffffffffffffffffff1673ffffffffffffffffffffffffffffffffffffffff1614159050919050565b816004600083815260200190815260200160002060006101000a81548173ffffffffffffffffffffffffffffffffffffffff021916908373ffffffffffffffffffffffffffffffffffffffff160217905550808273ffffffffffffffffffffffffffffffffffffffff16611911836109ce565b73ffffffffffffffffffffffffffffffffffffffff167f8c5be1e5ebec7d5bd14f71427d1e84f3dd0314c0f7b2291e5b200ac8c7c3b92560405160405180910390a45050565b600061196282611832565b6119a1576040517f08c379a000000000000000000000000000000000000000000000000000000000815260040161199890612fc8565b60405180910390fd5b60006119ac836109ce565b90508073ffffffffffffffffffffffffffffffffffffffff168473ffffffffffffffffffffffffffffffffffffffff161480611a1b57508373ffffffffffffffffffffffffffffffffffffffff16611a0384610790565b73ffffffffffffffffffffffffffffffffffffffff16145b80611a2c5750611a2b81856112e9565b5b91505092915050565b8273ffffffffffffffffffffffffffffffffffffffff16611a55826109ce565b73ffffffffffffffffffffffffffffffffffffffff1614611aab576040517f08c379a0000000000000000000000000000000000000000000000000000000008152600401611aa290613128565b60405180910390fd5b600073ffffffffffffffffffffffffffffffffffffffff168273ffffffffffffffffffffffffffffffffffffffff161415611b1b576040517f08c379a0000000000000000000000000000000000000000000000000000000008152600401611b1290612f68565b60405180910390fd5b611b2683838361213e565b611b3160008261189e565b6001600360008573ffffffffffffffffffffffffffffffffffffffff1673ffffffffffffffffffffffffffffffffffffffff1681526020019081526020016000206000828254611b81919061334c565b925050819055506001600360008473ffffffffffffffffffffffffffffffffffffffff1673ffffffffffffffffffffffffffffffffffffffff1681526020019081526020016000206000828254611bd891906132c5565b92505081905550816002600083815260200190815260200160002060006101000a81548173ffffffffffffffffffffffffffffffffffffffff021916908373ffffffffffffffffffffffffffffffffffffffff160217905550808273ffffffffffffffffffffffffffffffffffffffff168473ffffffffffffffffffffffffffffffffffffffff167fddf252ad1be2c89b69c2b068fc378daa952ba7f163c4a11628f55a4df523b3ef60405160405180910390a4505050565b600081600001549050919050565b6001816000016000828254019250508190555050565b611d4d8282604051602401611ccb9291906131e3565b6040516020818303038152906040527f6c0f6980000000000000000000000000000000000000000000000000000000007bffffffffffffffffffffffffffffffffffffffffffffffffffffffff19166020820180517bffffffffffffffffffffffffffffffffffffffffffffffffffffffff8381831617835250505050612143565b5050565b611d6b82826040518060200160405280600081525061216c565b5050565b60606000821415611db7576040518060400160405280600181526020017f30000000000000000000000000000000000000000000000000000000000000008152509050611f17565b600082905060005b60008214611de9578080611dd2906134ab565b915050600a82611de2919061331b565b9150611dbf565b60008167ffffffffffffffff811115611e2b577f4e487b7100000000000000000000000000000000000000000000000000000000600052604160045260246000fd5b6040519080825280601f01601f191660200182016040528015611e5d5781602001600182028036833780820191505090505b5090505b60008514611f1057600182611e76919061334c565b9150600a85611e8591906134f4565b6030611e9191906132c5565b60f81b818381518110611ecd577f4e487b7100000000000000000000000000000000000000000000000000000000600052603260045260246000fd5b60200101907effffffffffffffffffffffffffffffffffffffffffffffffffffffffffffff1916908160001a905350600a85611f09919061331b565b9450611e61565b8093505050505b919050565b611f2582611832565b611f64576040517f08c379a0000000000000000000000000000000000000000000000000000000008152600401611f5b90613048565b60405180910390fd5b80600660008481526020019081526020016000209080519060200190611f8b92919061253f565b505050565b611f9b848484611a35565b611fa7848484846121c7565b611fe6576040517f08c379a0000000000000000000000000000000000000000000000000000000008152600401611fdd90612f08565b60405180910390fd5b50505050565b606060405180602001604052806000815250905090565b606061200e82611832565b61204d576040517f08c379a000000000000000000000000000000000000000000000000000000000815260040161204490613168565b60405180910390fd5b6000612057611fec565b9050600081511161207757604051806020016040528060008152506120a2565b8061208184611d6f565b604051602001612092929190612e17565b6040516020818303038152906040525b915050919050565b6000600560008473ffffffffffffffffffffffffffffffffffffffff1673ffffffffffffffffffffffffffffffffffffffff16815260200190815260200160002060008373ffffffffffffffffffffffffffffffffffffffff1673ffffffffffffffffffffffffffffffffffffffff16815260200190815260200160002060009054906101000a900460ff16905092915050565b505050565b60008151905060006a636f6e736f6c652e6c6f679050602083016000808483855afa5050505050565b612176838361235e565b61218360008484846121c7565b6121c2576040517f08c379a00000000000000000000000000000000000000000000000000000000081526004016121b990612f08565b60405180910390fd5b505050565b60006121e88473ffffffffffffffffffffffffffffffffffffffff1661252c565b15612351578373ffffffffffffffffffffffffffffffffffffffff1663150b7a0261221161182a565b8786866040518563ffffffff1660e01b81526004016122339493929190612e56565b602060405180830381600087803b15801561224d57600080fd5b505af192505050801561227e57506040513d601f19601f8201168201806040525081019061227b91906128c1565b60015b612301573d80600081146122ae576040519150601f19603f3d011682016040523d82523d6000602084013e6122b3565b606091505b506000815114156122f9576040517f08c379a00000000000000000000000000000000000000000000000000000000081526004016122f090612f08565b60405180910390fd5b805181602001fd5b63150b7a0260e01b7bffffffffffffffffffffffffffffffffffffffffffffffffffffffff1916817bffffffffffffffffffffffffffffffffffffffffffffffffffffffff191614915050612356565b600190505b949350505050565b600073ffffffffffffffffffffffffffffffffffffffff168273ffffffffffffffffffffffffffffffffffffffff1614156123ce576040517f08c379a00000000000000000000000000000000000000000000000000000000081526004016123c590613088565b60405180910390fd5b6123d781611832565b15612417576040517f08c379a000000000000000000000000000000000000000000000000000000000815260040161240e90612f48565b60405180910390fd5b6124236000838361213e565b6001600360008473ffffffffffffffffffffffffffffffffffffffff1673ffffffffffffffffffffffffffffffffffffffff168152602001908152602001600020600082825461247391906132c5565b92505081905550816002600083815260200190815260200160002060006101000a81548173ffffffffffffffffffffffffffffffffffffffff021916908373ffffffffffffffffffffffffffffffffffffffff160217905550808273ffffffffffffffffffffffffffffffffffffffff16600073ffffffffffffffffffffffffffffffffffffffff167fddf252ad1be2c89b69c2b068fc378daa952ba7f163c4a11628f55a4df523b3ef60405160405180910390a45050565b600080823b905060008111915050919050565b82805461254b90613448565b90600052602060002090601f01602090048101928261256d57600085556125b4565b82601f1061258657805160ff19168380011785556125b4565b828001600101855582156125b4579182015b828111156125b3578251825591602001919060010190612598565b5b5090506125c191906125c5565b5090565b5b808211156125de5760008160009055506001016125c6565b5090565b60006125f56125f084613231565b61320c565b90508281526020810184848401111561260d57600080fd5b612618848285613406565b509392505050565b60008135905061262f81613b8c565b92915050565b60008135905061264481613ba3565b92915050565b60008135905061265981613bba565b92915050565b60008151905061266e81613bba565b92915050565b600082601f83011261268557600080fd5b81356126958482602086016125e2565b91505092915050565b6000815190506126ad81613bd1565b92915050565b6000813590506126c281613be8565b92915050565b6000602082840312156126da57600080fd5b60006126e884828501612620565b91505092915050565b6000806040838503121561270457600080fd5b600061271285828601612620565b925050602061272385828601612620565b9150509250929050565b60008060006060848603121561274257600080fd5b600061275086828701612620565b935050602061276186828701612620565b9250506040612772868287016126b3565b9150509250925092565b6000806000806080858703121561279257600080fd5b60006127a087828801612620565b94505060206127b187828801612620565b93505060406127c2878288016126b3565b925050606085013567ffffffffffffffff8111156127df57600080fd5b6127eb87828801612674565b91505092959194509250565b6000806040838503121561280a57600080fd5b600061281885828601612620565b925050602061282985828601612635565b9150509250929050565b6000806040838503121561284657600080fd5b600061285485828601612620565b9250506020612865858286016126b3565b9150509250929050565b60006020828403121561288157600080fd5b600061288f84828501612635565b91505092915050565b6000602082840312156128aa57600080fd5b60006128b88482850161264a565b91505092915050565b6000602082840312156128d357600080fd5b60006128e18482850161265f565b91505092915050565b6000602082840312156128fc57600080fd5b600061290a8482850161269e565b91505092915050565b60006020828403121561292557600080fd5b6000612933848285016126b3565b91505092915050565b61294581613380565b82525050565b61295481613392565b82525050565b600061296582613277565b61296f818561328d565b935061297f818560208601613415565b612988816135e1565b840191505092915050565b600061299e82613277565b6129a8818561329e565b93506129b8818560208601613415565b80840191505092915050565b600081546129d181613448565b6129db818661329e565b945060018216600081146129f65760018114612a0757612a3a565b60ff19831686528186019350612a3a565b612a1085613262565b60005b83811015612a3257815481890152600182019150602081019050612a13565b838801955050505b50505092915050565b6000612a4e82613282565b612a5881856132a9565b9350612a68818560208601613415565b612a71816135e1565b840191505092915050565b6000612a8782613282565b612a9181856132ba565b9350612aa1818560208601613415565b80840191505092915050565b6000612aba6032836132a9565b9150612ac5826135f2565b604082019050919050565b6000612add6026836132a9565b9150612ae882613641565b604082019050919050565b6000612b00601c836132a9565b9150612b0b82613690565b602082019050919050565b6000612b236024836132a9565b9150612b2e826136b9565b604082019050919050565b6000612b466019836132a9565b9150612b5182613708565b602082019050919050565b6000612b696018836132a9565b9150612b7482613731565b602082019050919050565b6000612b8c602c836132a9565b9150612b978261375a565b604082019050919050565b6000612baf6038836132a9565b9150612bba826137a9565b604082019050919050565b6000612bd2602a836132a9565b9150612bdd826137f8565b604082019050919050565b6000612bf56029836132a9565b9150612c0082613847565b604082019050919050565b6000612c18602e836132a9565b9150612c2382613896565b604082019050919050565b6000612c3b6012836132a9565b9150612c46826138e5565b602082019050919050565b6000612c5e6020836132a9565b9150612c698261390e565b602082019050919050565b6000612c816031836132a9565b9150612c8c82613937565b604082019050919050565b6000612ca46019836132a9565b9150612caf82613986565b602082019050919050565b6000612cc7602c836132a9565b9150612cd2826139af565b604082019050919050565b6000612cea6020836132a9565b9150612cf5826139fe565b602082019050919050565b6000612d0d6029836132a9565b9150612d1882613a27565b604082019050919050565b6000612d30600e836132a9565b9150612d3b82613a76565b602082019050919050565b6000612d53602f836132a9565b9150612d5e82613a9f565b604082019050919050565b6000612d766021836132a9565b9150612d8182613aee565b604082019050919050565b6000612d996031836132a9565b9150612da482613b3d565b604082019050919050565b7f2f00000000000000000000000000000000000000000000000000000000000000815250565b612dde816133fc565b82525050565b6000612df082856129c4565b9150612dfb82612daf565b600182019150612e0b8284612993565b91508190509392505050565b6000612e238285612a7c565b9150612e2f8284612a7c565b91508190509392505050565b6000602082019050612e50600083018461293c565b92915050565b6000608082019050612e6b600083018761293c565b612e78602083018661293c565b612e856040830185612dd5565b8181036060830152612e97818461295a565b905095945050505050565b6000604082019050612eb7600083018561293c565b612ec46020830184612dd5565b9392505050565b6000602082019050612ee0600083018461294b565b92915050565b60006020820190508181036000830152612f008184612a43565b905092915050565b60006020820190508181036000830152612f2181612aad565b9050919050565b60006020820190508181036000830152612f4181612ad0565b9050919050565b60006020820190508181036000830152612f6181612af3565b9050919050565b60006020820190508181036000830152612f8181612b16565b9050919050565b60006020820190508181036000830152612fa181612b39565b9050919050565b60006020820190508181036000830152612fc181612b5c565b9050919050565b60006020820190508181036000830152612fe181612b7f565b9050919050565b6000602082019050818103600083015261300181612ba2565b9050919050565b6000602082019050818103600083015261302181612bc5565b9050919050565b6000602082019050818103600083015261304181612be8565b9050919050565b6000602082019050818103600083015261306181612c0b565b9050919050565b6000602082019050818103600083015261308181612c2e565b9050919050565b600060208201905081810360008301526130a181612c51565b9050919050565b600060208201905081810360008301526130c181612c74565b9050919050565b600060208201905081810360008301526130e181612c97565b9050919050565b6000602082019050818103600083015261310181612cba565b9050919050565b6000602082019050818103600083015261312181612cdd565b9050919050565b6000602082019050818103600083015261314181612d00565b9050919050565b6000602082019050818103600083015261316181612d23565b9050919050565b6000602082019050818103600083015261318181612d46565b9050919050565b600060208201905081810360008301526131a181612d69565b9050919050565b600060208201905081810360008301526131c181612d8c565b9050919050565b60006020820190506131dd6000830184612dd5565b92915050565b60006040820190506131f86000830185612dd5565b6132056020830184612dd5565b9392505050565b6000613216613227565b9050613222828261347a565b919050565b6000604051905090565b600067ffffffffffffffff82111561324c5761324b6135b2565b5b613255826135e1565b9050602081019050919050565b60008190508160005260206000209050919050565b600081519050919050565b600081519050919050565b600082825260208201905092915050565b600081905092915050565b600082825260208201905092915050565b600081905092915050565b60006132d0826133fc565b91506132db836133fc565b9250827fffffffffffffffffffffffffffffffffffffffffffffffffffffffffffffffff038211156133105761330f613525565b5b828201905092915050565b6000613326826133fc565b9150613331836133fc565b92508261334157613340613554565b5b828204905092915050565b6000613357826133fc565b9150613362836133fc565b92508282101561337557613374613525565b5b828203905092915050565b600061338b826133dc565b9050919050565b60008115159050919050565b60007fffffffff0000000000000000000000000000000000000000000000000000000082169050919050565b60006133d582613380565b9050919050565b600073ffffffffffffffffffffffffffffffffffffffff82169050919050565b6000819050919050565b82818337600083830152505050565b60005b83811015613433578082015181840152602081019050613418565b83811115613442576000848401525b50505050565b6000600282049050600182168061346057607f821691505b6020821081141561347457613473613583565b5b50919050565b613483826135e1565b810181811067ffffffffffffffff821117156134a2576134a16135b2565b5b80604052505050565b60006134b6826133fc565b91507fffffffffffffffffffffffffffffffffffffffffffffffffffffffffffffffff8214156134e9576134e8613525565b5b600182019050919050565b60006134ff826133fc565b915061350a836133fc565b92508261351a57613519613554565b5b828206905092915050565b7f4e487b7100000000000000000000000000000000000000000000000000000000600052601160045260246000fd5b7f4e487b7100000000000000000000000000000000000000000000000000000000600052601260045260246000fd5b7f4e487b7100000000000000000000000000000000000000000000000000000000600052602260045260246000fd5b7f4e487b7100000000000000000000000000000000000000000000000000000000600052604160045260246000fd5b6000601f19601f8301169050919050565b7f4552433732313a207472616e7366657220746f206e6f6e20455243373231526560008201527f63656976657220696d706c656d656e7465720000000000000000000000000000602082015250565b7f4f776e61626c653a206e6577206f776e657220697320746865207a65726f206160008201527f6464726573730000000000000000000000000000000000000000000000000000602082015250565b7f4552433732313a20746f6b656e20616c7265616479206d696e74656400000000600082015250565b7f4552433732313a207472616e7366657220746f20746865207a65726f2061646460008201527f7265737300000000000000000000000000000000000000000000000000000000602082015250565b7f4552433732313a20617070726f766520746f2063616c6c657200000000000000600082015250565b7f536f7272792c20706175736564206d696e74696e67203a280000000000000000600082015250565b7f4552433732313a206f70657261746f7220717565727920666f72206e6f6e657860008201527f697374656e7420746f6b656e0000000000000000000000000000000000000000602082015250565b7f4552433732313a20617070726f76652063616c6c6572206973206e6f74206f7760008201527f6e6572206e6f7220617070726f76656420666f7220616c6c0000000000000000602082015250565b7f4552433732313a2062616c616e636520717565727920666f7220746865207a6560008201527f726f206164647265737300000000000000000000000000000000000000000000602082015250565b7f4552433732313a206f776e657220717565727920666f72206e6f6e657869737460008201527f656e7420746f6b656e0000000000000000000000000000000000000000000000602082015250565b7f45524337323155524953746f726167653a2055524920736574206f66206e6f6e60008201527f6578697374656e7420746f6b656e000000000000000000000000000000000000602082015250565b7f496e737566696369656e7420616d6f756e740000000000000000000000000000600082015250565b7f4552433732313a206d696e7420746f20746865207a65726f2061646472657373600082015250565b7f45524337323155524953746f726167653a2055524920717565727920666f722060008201527f6e6f6e6578697374656e7420746f6b656e000000000000000000000000000000602082015250565b7f43616e277420657863656564204d41585f454c454d454e545300000000000000600082015250565b7f4552433732313a20617070726f76656420717565727920666f72206e6f6e657860008201527f697374656e7420746f6b656e0000000000000000000000000000000000000000602082015250565b7f4f776e61626c653a2063616c6c6572206973206e6f7420746865206f776e6572600082015250565b7f4552433732313a207472616e73666572206f6620746f6b656e2074686174206960008201527f73206e6f74206f776e0000000000000000000000000000000000000000000000602082015250565b7f4d6178656420667265656d696e74000000000000000000000000000000000000600082015250565b7f4552433732314d657461646174613a2055524920717565727920666f72206e6f60008201527f6e6578697374656e7420746f6b656e0000000000000000000000000000000000602082015250565b7f4552433732313a20617070726f76616c20746f2063757272656e74206f776e6560008201527f7200000000000000000000000000000000000000000000000000000000000000602082015250565b7f4552433732313a207472616e736665722063616c6c6572206973206e6f74206f60008201527f776e6572206e6f7220617070726f766564000000000000000000000000000000602082015250565b613b9581613380565b8114613ba057600080fd5b50565b613bac81613392565b8114613bb757600080fd5b50565b613bc38161339e565b8114613bce57600080fd5b50565b613bda816133ca565b8114613be557600080fd5b50565b613bf1816133fc565b8114613bfc57600080fd5b5056fea2646970667358221220494f656e2eb4098a693d21bd2d44c179c006c95133045510c798e3d032605a8564736f6c63430008040033",
  "linkReferences": {},
  "deployedLinkReferences": {}
}